:400000000080002011000000111800001118000008B5044B1A6803F53F5302331A6001F017FC00BFFA46004010B5054C237833B9044B13B10448AFF300800123237010BD11
:400040004881FF1F000000001C230000084B10B51BB108490848AFF300800848036803B910BD074B002BFBD0BDE81040184700BF000000004C81FF1F1C230000C880FF1F84
:400080000000000070B582B006460D46002408E0325D074901A801F003FD01A801F07AFC0134AC42F4D3034801F074FC02B070BD34230000682300002DE9F047ADF5CE6D34
:4000C00062B601F04DFC85A801F0EAF90022BF4985A801F0FFF985A90FA801F039FABC4801F058FC14210FA8FFF7CCFFB94A92E803000B908DF8301034ACB74D0FCD0FC4FB
:4001000095E80F0007C423709CAC4FF4807632460021204601F0BBFC05AD059634A801F0E3FC01950094034634AA04210BA800F089F9AA4801F02EFC14212046FFF7A2FFDA
:40014000A74F384601F026FCA64D14AC28686968AA68EB680FC42869206028ACA24D0FCD0FC495E8030044F8040B2170DCAC32460021204601F08BFC06AD069628A801F0BE
:40018000B3FC01950094034628AA142114A800F059F9964801F0FEFB14212046FFF772FF384601F0F7FB5022AA215DA801F06FFC3CAC8F4D0FCD0FC40FCD0FC40FCD0FC47E
:4001C00095E8030044F8040B24F8021B090C21700DF58E6432460021204601F058FC07AB07960193009436233CAA50215DA800F029F9804801F0CEFB14212046FFF742FF8B
:40020000384601F0C7FB5022AA2171A801F03FFC4A2279494AA801F02FFC0DF5AE6432460021204601F033FC08AB08960193009449234AAA502171A800F004F96F4801F0A4
:40024000A9FB14212046FFF71DFF384601F0A2FB6B4801F09FFB4FF00008CDF83480CDF8388009238DF83B30664801F093FB08210DA8FFF707FF644E2EAC35460FCD0FC4CD
:4002800095E8030044F8040B2170604801F082FB14212EA8FFF7F6FE09AB4FF01409CDF82490019319AC009408230DAA49462EA800F0C8F8564801F06DFB49462046FFF788
:4002C000E1FEE27C534904A801F0EAFB04A801F061FB94F813A00AF00F0A52464E4904A801F0DEFB04A801F055FB4C4801F052FB042204EB0A010AA801F0FEFB04210AA861
:40030000FFF7C0FE9DF8283003F07F038DF8283004210AA8FFF7B6FE384601F03BFB404801F038FB9DF828409DF829301B0443EA04649DF82A3044EA03239DF82B401C43B7
:40034000224638491EA801F0ABFB1EA801F022FB354BA3FB04239B0C344A02FB134234491EA801F09DFB1EA801F014FB384601F011FB304801F00EFB23AF34460FCC0FC72B
:400380002B683B60CDF800801E234A4623A93B2000F0FCF8024628491EA801F081FB1EA801F0F8FA0123ADF80E30244801F0F2FA02210DF10E00FFF765FE214801F0EAFA43
:4003C00041F2883001F006FB7DE600BF34240000382300003824000040240000482300005823000020230000602400005C230000782400006C230000B02400007C230000C1
:400400008C2300009C230000FC240000AC230000B8230000CC230000D4230000DC230000EC230000FC23000083DE1B4340420F000024000008240000182400001C24000055
:400440002C2400002DE9F041E4B005460C46174698466B9E40290DD9684601F021F822462946684601F036F8694627A801F070F8142427AD4DA801F013F8002305E0EA5CA3
:4004800082F0360217A9CA5401339C42F7D8234603E0362117AAD15401333F2BF9D9402217A94DA801F016F8424639464DA801F011F84DA931A801F04BF836A800F0F0FF0E
:4004C000002305E0EA5C82F05C0217A9CA5401339C42F7D804E05C220DEB02031A5501343F2CF8D9402217A936A800F0F3FF142231A936A800F0EEFF36A92CA801F028F86F
:400500003268142A28BF142232602CA96A9801F0B3FA64B0BDE8F08130B58DB0034608461146DD171BBA2ABA0A920B931423049304AB019305AC009408230AAAFFF782FFF2
:400540009DF8271001F00F010422214403A801F0D3FA9DF80C3003F07F009DF80D301B0443EA00639DF80E0043EA00239DF80F000343044AA2FB0312920C034800FB1230F3
:400580000DB030BD83DE1B4340420F0010B5029C001B90FBF3F0FFF7BFFF10BD2DE9F04FA3B000900C4612AF01F140063D4620686168A268E3680FC510342F46B442F5D1DF
:4005C000009A146856689768D068126987EA000A06EA0A0A80EA0A0A129B4FEA332101F0FF214FEA336303F0FF130B4309939A440AEBF46AEA4B9A4452444FEAB60687EA2F
:40060000060525407D4013994FEA312E0EF0FF2E4FEA316101F0FF114EEA01010A910D4405EBF2651D4405444FEAB40486EA040902EA090986EA090014994FEA312909F01D
:40064000FF294FEA316101F0FF1149EA010ECDF804E000EB0E0909EBF5699944B9444FEAB20A84EA0A0129406140159A4FEA322808F0FF284FEA326202F0FF1248EA020789
:400680000297394401EBF961194431444FEAB5058AEA050C09EA0C0C8AEA0C0B169A4FEA322000F0FF204FEA326C0CF0FF1C40EA0C060B960BEB060C0CEBF16C9C44A444C5
:4006C0004FEAB90085EA00020A406A40179C4FEA342606F0FF264FEA346E0EF0FF1E46EA0E040C94224402EBFC621A4452444FEAB10880EA08010CEA01014140189C4FEAFA
:40070000342606F0FF264FEA346707F0FF1746EA070E7446CDF834E00F1907EBF2671F442F444FEABC0B88EA0B0902EA090988EA090919994FEA312404F0FF244FEA316613
:4007400006F0FF1644EA060ECDF838E0F14409EBF769994481444FEAB2048BEA040139408BEA01011A9A4FEA322000F0FF204FEA326505F0FF1540EA050ECDF80CE0714401
:4007800001EBF961194441444FEAB70E84EA0E0C09EA0C0C84EA0C0C1B9A4FEA322000F0FF204FEA326505F0FF1540EA0508CDF81080C4440CEBF16C9C44DC444FEAB909EF
:4007C0008EEA090A01EA0A0A8EEA0A0A1C984FEA302505F0FF254FEA306202F0FF1245EA0208CDF814800AEB080202EBFC621A4422444FEAB10689EA06070CEA070789EA33
:4008000007071D994FEA312000F0FF204FEA316404F0FF1440EA0408CDF81880474407EBF2671F4477444FEABC0C86EA0C00104070401E994FEA312505F0FF254FEA316455
:4008400004F0FF1445EA040ECDF83CE0704400EBF760184448444FEAB20A8CEA0A0139408CEA01011F9A4FEA322505F0FF254FEA326404F0FF1445EA040ECDF81CE071441B
:4008800001EBF061194431444FEAB7078AEA070B00EA0B0B8AEA0B0B209A4FEA322505F0FF254FEA326404F0FF1445EA040ECDF820E0F3440BEBF16B9B44E3444FEAB00962
:4008C00087EA09020A407A4021984FEA302505F0FF254FEA306404F0FF1445EA040E7646724402EBFB621A4452444FEAB10889EA08050BEA050589EA050503988646079C5B
:400900008EEA040101984140099841404FEAF1700990054405EBF2651D443D444FEABB0C88EA0C00104088EA00000499089F7940029F79400A9F79404FEAF1710A910844DE
:4009400000EBF560184448444FEAB20E8CEA0E0129408CEA0101059A109682EA06090B9A82EA0909019E86EA09094FEAF979494401EBF061194441444FEAB5078EEA070B16
:4009800000EA0B0B8EEA0B0B069DA846099D88EA05080C9E86EA0808029D85EA080801E09979825A4FEAF878C3440BEBF16B9B44E3444FEAB00681EA06027A400F9B9C462C
:4009C0000A9B8CEA030C0D9880EA0C0C0B9B83EA0C0C4FEAFC7C624402EBFB62D64B1A4472444FEAB1018BEA0105754084EA090E0E9880EA0E0E0C9C84EA0E0E4FEAFE7EF2
:400A0000754405EBF2651D443D444FEABB0A82EA0A004840089F87EA0807039C67400D9C67404FEAF7740194204400EBF560184430444FEAB20285EA02048AEA0404109EE2
:400A400086EA0C06049F7E400E9F7E404FEAF6760296344404EBF0641C4421444FEAB50480EA040B82EA0B0B099D85EA0E05059F7D40039E75404FEAF5752F46AB440BEBA2
:400A8000F16B9B44D3444FEAB0000B9081EA000A84EA0A0A0A9D2846019D454006984540049E75404FEAF5752E46AA440AEBFB6A9A4492444FEAB1010E918BEA01050B9AFA
:400AC0005540029A89EA02020F994A40059842404FEAF2720392154405EBFA651D4425444FEABB0B8AEA0B020E9842400C9788EA0704079F7C40069844404FEAF4740494D4
:400B0000141904EBF5641C440B9A224410464FEABA0A85EA0A028BEA02020D968CEA0604089E74404C404FEAF4740594224402EBF0621A440E9911444FEAB5020892424040
:400B40008AEA0202039C8EEA0404109D6C407C404FEAF47706973A4402EBF1621A4493444FEAB00081EA0002089F7A40049F019C7C40099F7C4074404FEAF4760796324414
:400B800002EBFB621A4492444FEAB1028BEA02014140059E029C74400A9E74406C404FEAF4750E95294401EBFA611944089D0D444FEABB010A918AEA010454400C998B4676
:400BC00006998BEA010189EA010179404FEAF17108910C4404EBF5641C4404444FEABA0A85EA0A000A9948400D9FBB46079F8BEA070188EA010171404FEAF17609968119CE
:400C000001EBF461194411444FEAB50584EA05028AEA020203980E9E70408CEA000089EA00094FEAF9794A4402EBF1621A440A98834693444FEAB40481EA04006840049E35
:400C4000089A72408EEA020288EA02084FEAF878CDF83C80404400EBFB60184482444FEAB1018BEA010884EA08080598024609984240019842408CEA020C4FEAFC7CCDF80E
:400C800028C0E04408EBFA68984445444FEABB0B8AEA0B004840069E86EA090C029A82EA0C0C8EEA0C0E4FEAFE7ECDF82CE0704400EBF560184404444FEABA0A85EA0A02F7
:400CC0008BEA02020F9887EA000E0C9880EA0E0E019880EA0E074FEAF77701973A4402EBF4621A4411444FEAB50584EA05028AEA02020E9E0A9F86EA07000D9F7840029EB0
:400D000046404FEAF6700290024402EBF16213449B444FEAB40441EA04032B4001EA04021343089A96460B9A8EEA0202039E72400C98424002E000BFA1EBD96E4FEAF27044
:400D40000C90034403EBFB63D84803449A444FEAB1014BEA010323400BEA01021343099A019E7240049E72407A404FEAF2770D973B4403EBFA6303441D444FEABB0B4AEA3D
:400D80000B0601EA06030AEA0B061E43029B89EA0302059B5A40039B5A404FEAF27303931E4406EBF566064426444FEABA0A45EA0A030BEA030305EA0A0213430F9CA6468F
:400DC0000C9C8EEA0404069F7C40049F7C404FEAF4740494234403EBF663034419444FEAB50546EA05070AEA070306EA05071F430A9C0D9B5C40079B5C40059B5C404FEA58
:400E0000F4720592BC1804EBF1640444A3444FEAB60241EA020805EA080301EA020843EA08080B9B039C5C400E9E7440069F7C404FEAF4770697B84408EBFB688044C2441D
:400E40004FEAB1014BEA010E02EA0E030BEA010E43EA0E0E019F049C7C40089F7C40079B5C404FEAF47307939E440EEBFA6E864475444FEABB0B4AEA0B0701EA07030AEA2E
:400E80000B071F43029B9E46059B8EEA0304099B5C4074404FEAF4760E96374407EBF567074417444FEABA0845EA08060BEA060305EA08061E430C9C069A84EA020389EAB2
:400EC0000303089C63404FEAF3720892164406EBF76606440E444FEAB50E47EA0E0408EA040307EA0E041C430D99079D81EA05020F9D6A40099B5A404FEAF27109910C44B9
:400F000004EBF66404445C444FEAB70746EA07010EEA010306EA07011943039A0E9B53400A9A534089EA03094FEAF97CCDF83CC08C440CEBF46C8444C4444FEAB60644EAE9
:400F400006033B4004EA0602134304998846089988EA01080B9981EA080885EA08084FEAF878CDF84080434403EBFC6303449E444FEAB4044CEA040B06EA0B030CEA040B18
:400F800043EA0B0B059DA846099D88EA050A019D85EA0A0A0A9B83EA0A0A4FEAFA78CDF84480C3440BEBFE6B83445F444FEABC014EEA010A04EA0A030EEA010A43EA0A0A74
:400FC000069D0F9A6A40029D6A400B9B5A404FEAF2730A939A440AEBF76A8244B2444FEABE0347EA030501EA050207EA03051543079EB646109E8EEA06090C9E86EA0909CF
:40100000019E86EA09094FEAF97ECDF804E0754405EBFA65054425444FEAB70B4AEA0B0C03EA0C020AEA0B0C42EA0C0C0E9FBE46119F8EEA07080D9F87EA0808029C84EACB
:4010400008084FEAF87ECDF808E0F4440CEBF56C84448C444FEABA0A45EA0A0E0BEA0E0205EA0A0E42EA0E0E089F0A9C87EA0401039C61400C9E71404FEAF1720B929644D3
:401080000EEBFC6E86449E444FEAB5044CEA04070AEA07030CEA04071F43099E019986EA0102049E72400D9B5A4001E0DCBC1B8F4FEAF2710D910F4407EBFE6707445F444E
:4010C0004FEABC094EEA090604EA06030EEA09061E430F99029A81EA0203059D6B40039D6B404FEAF37303931E4406EBF766064456444FEABE0847EA080509EA050307EA0E
:4011000008051D4310990B9B5940069A5140049B59404FEAF17304931D4405EBF665054425444FEAB70786EA070C88EA0C0C119886460D988EEA000207984240059B5A406C
:401140004FEAF270059084440CEBF56CD2498C44CC444FEAB60085EA000E87EA0E0E0A9B039C63400E9C6340069C63404FEAF37306939E440EEBFC6E8E44C6444FEAB50566
:401180008CEA050A80EA0A0A019B049C5C40089B5C40079E74404FEAF4760796B2440AEBFE6A8A4457444FEABC038EEA03026A40029C059E7440099E74400E9E74404FEAB8
:4011C000F4760C96324402EBF762561806444FEABE0B87EA0B0983EA09090B98069A80EA02010F984140089841404FEAF1720892914409EBF669A84881444D444FEAB70AD2
:4012000086EA0A0C8BEA0C0C0D9F079987EA010210994A40099C62404FEAF2770997BC440CEBF56C84449C444FEAB60485EA040E8AEA0E0E039E0C9F86EA0703119A534017
:401240000F9E73404FEAF3760E96B6440EEBFC6E8644DE444FEAB5098CEA09076740049DA846089D88EA050B0A9D85EA0B0B81EA0B0B4FEAFB7B5F4407EBFE670744574469
:401280004FEABC088EEA080689EA06060599099D81EA050A019D85EA0A0A82EA0A0A4FEAFA7A564406EBF766064426444FEABE0187EA010588EA0505069B0E9A5A40029C18
:4012C00062400A9C62404FEAF2730A931D4405EBF66505444D444FEAB70286EA020C81EA0C0C079F87EA0B090B9F87EA0909019C84EA09094FEAF979CC440CEBF56C844400
:40130000C4444FEAB60685EA060E82EA0E0E0C9B83EA0A080D9B83EA0808029C84EA08084FEAF878C6440EEBFC6E86448E444FEAB5048CEA0407774008990A9D6940039DD1
:4013400069400B9D69404FEAF1710F4407EBFE67074417444FEABC0C8EEA0C0565400195099A82EA0902049D6A405A404FEAF272019D154405EBF76505442E4401964FEA59
:40138000BE0E87EA0E058CEA05050E9B83EA0803059E7340039E73404FEAF3731D44019E05EBF665054425444FEAB70786EA07048EEA04048BEA0101069E7140049E7140E5
:4013C0004FEAF1710C4404EBF5640444A444019C4FEAB40685EA060B87EA0B0B8AEA0202079C6240059C62404FEAF27293440BEBFC6B8344DE444FEAB5058CEA050484EA59
:40140000060A0A9C63400C9C6340069C63400AEBF37303EBFE6303441F444FEABC0C8EEA0C0A85EA0A0A89EA0109089B83EA0909079C84EA09090AEBF97A0AEBF76A824417
:4014400056444FEABE0E87EA0E038CEA030388EA020209994A400C9C624003EBF27202EBF66210440544009A10680544156053681E445660936803EBB7079760D36873447C
:40148000D3601369634413614022002112A800F0FEFA23B002E000BFD6C162CABDE8F08F0A4B036003F18833436003F12943A3F59613A3F68B638360A3F18833C360044B0C
:4014C0000361002383614361704700BF01234567F0E1D2C32DE9F04107460E461546436903EBC2024261934202D9826901328261BA6902EB5572BA61C3F3C503EA183F2A61
:401500001BD903F118003844C3F1400422463146043000F0B1FAB84607F11C013846FFF73DF804E031194046FFF738F8403404F13F039D42F6D8002300E0002403F1180068
:4015400038442A1B3119043000F096FABDE8F08130B585B005460C46002312E0032B8CBF00220122043204EB82025168DA4302F00302D20021FA02F204A9194401F8082C7E
:401580000133072BEAD904A9802301F8093D01222046FFF79FFF07E004A9002301F8093D01222046FFF796FF636903F4FC73B3F5E07FF1D108220DEB02012046FFF78AFF47
:4015C00000230AE09A0854F82210DA4302F00302D20021FA02F2EA540133132BF2D95C220021204600F053FA05B030BDFEE700BFF0B40022174611E050F82760F3B226F028
:40160000FF0608E001EB420511F812406D78A5550132013BDBB2002BF4D10137082FEBD9F0BC7047064B1B78DBB203F00701054A11701B09013213704422034B1A707047C3
:40164000CF0100496E5800407658004008B50A46002100F01CFA08BD38B51925234B1D80182202331A70022203F27E231A7008224FF040231A70032103F5007319701C4BFC
:401680001B78DBB21B490B701B4B1A8041F25122023B1A8000240CE0184B1B7803F0010343EA440404F003044FF4F07000F0A8F9013D0DB1032CEFD115B90320FFF796FFA6
:4016C0000F4B4FF480721A8007221A7000220D490A704820023108701A700222033B1A70094A137843F00103137038BD8040004008010049A1460040224200402542004042
:401700000440004006400040A243004008B500F0B3F908BD38B572B6304A137843F00403137000240CE02E4D630019194A0011462A44084691882858FFF788FF0134E4B227
:40174000082CF0D900240BE02549A3001819420088188022C16B806BFFF7D8FF0134E4B2002CF1D01F494FF09040FFF741FF1E4A137843F0020313701032137843F002039B
:4017800013701A4C237843F040032370A2F58632513A137843F0100313700A2214491548FFF7B4FF082214491448FFF7AFFF144A137843F008031370124D61232B70FFF73A
:4017C0004BFF81232B7001220F4B1A70FFF72AFF0E2221460D48FFF799FF38BDE8460040142500002400004803500140A0430040D0020048C0510040DC02004812510040CD
:40180000224300400048004004000840B043004008B500F005F903680C2B00D1FEE7FEE708B5094B1A681044084BC31A802B02DC054B186005E000F0F3F80C2303604FF01B
:40184000FF32104608BD00BFCC80FF1F7881FF1F08B5104E104D16E029686B68AC68002204E051F8040B43F8040B0432A242F8D1E868002203E0002143F8041B04328242A1
:40188000F9D11035013E002EE6D100F0CFF8FEF713FCFEE701000000B025000008B5104A104B1A60104A136843F40073136000230AE0032B03D80D4A52F8231000E00C4982
:4018C0000C4A42F8231001332F2BF2D90A4B1A780A4B1A70074A0A4B1A60FFF71BFF08BD0004FA050CED00E014ED00E000000000111800000080FF1FBC760040C080FF1FBD
:4019000008ED00E07222074B1A70202201331A7006225F3B1A70472210331A70002251331A7070478865004010B500F071F804460A4A137843F0200313700132137843F0BB
:40194000100313700232137843F01003137000F033F8204600F060F810BD00BF9865004008B5054B1B7823B9FFF7CCFF0122024B1A70FFF7D9FF08BD6481FF1F034B1B7809
:4019800013F0040FFAD1024B187070476B6500404B65004038B5074B1B782BB938BDFFF7EDFF0134A4B201E005460024285D0028F5D138BD6481FF1F054A137843F00103D6
:4019C00013701032137843F001031370704700BFA243004010B5044605E0084B186800F00FF8A4F50044B4F5004FF6D8034B586800FB04F000F004F810BD00BFD080FF1FFE
:401A00000230800803D000BF01380046FCD17047EFF3108072B6704780F31088704700BF014B1868704700BF4081FF1F0E4B70B51E460E4C0025E41AA410A54204D056F848
:401A4000253098470135F8E700F0A0FD084B094C1E46E41AA4100025A54204D056F8253098470135F8E770BD982500009825000098250000A025000010B5431E0A449142EB
:401A800004D011F8014B03F8014FF8E710BD03460244934202D003F8011BFAE7704700000EB400B54FF402719CB0ADF814106FF00041049107914FF6FF711DAB029006906D
:401AC000084853F8042BADF81610006802A9019300F07EF8029B00221A701CB05DF804EB03B070474081FF1F034613F8012B002AFBD1181A01387047034610B542B111F800
:401B0000014B013A03F8014B002CF7D11A4400E010BD934202D003F8014BFAE710BD2DE9F0478E6882469E420C46914698463ED88A8912F4906F3AD02568096902236F1A65
:401B4000656905EB450595FBF3F57B1C43449D4238BF1D4653050FD5294600F03FFB064698B13A462169FFF787FFA38923F4906343F08003A38113E02A4600F08DFB064667
:401B800070B92169504600F0DDFA0C23CAF80030A3894FF0FF3043F04003A381BDE8F08726613E44266046466561ED1BA560464528BF464649463246206800F0A7FAA3688D
:401BC00000209B1BA36023681E442660BDE8F0872DE9F04F9DB003938B8980461C060D4616460DD50B695BB9402100F0F7FA2860286118B90C23C8F80030CDE040236B6111
:401C00000023099320238DF82930DFF89CB130238DF82A3037463C4614F8013B1BB9B7EB060910D003E0252BF9D02746F3E74B46324629464046FFF772FF013000F0A780D2
:401C4000099B4B4409933B78002B00F0A08000234FF0FF3204930793059206938DF853301A930126052221784E4800F041FA671C049B38B14B4A3C46801A06FA00F018434F
:401C80000490EFE7D90644BF20228DF853201A0744BF2B228DF8532022782A2A03D0079A00210A200BE0039A111D12680391002A10DA524243F00200079204900BE0274662
:401CC0003B780134303B092B03D800FB02320121F5E701B107923B782E2B1ED17B782A2B0AD1039B02371A1D1B680392002BB8BF4FF0FF33059310E0002319460593781C7D
:401D00000A2407463A780130303A092A03D804FB01210123F5E703B1059103223978224800F0E6F940B14023CBEB000003FA00F0049B013718430490397806221B487E1CC0
:401D40008DF8281000F0D4F988B1194B33B9039B073323F007030833039314E003AB00932A46144B04A94046AFF3008007E003AB00932A460F4B04A9404600F093F8B0F100
:401D8000FF3F824603D0099B5344099342E7AB895B0601D4099801E04FF0FF301DB0BDE8F08F00BF582500005E25000062250000000000001F1B00002DE9F04791461F46F6
:401DC0000A698B6806469342B8BF1346C9F8003091F843200C46DDF8208012B10133C9F800302368990642BFD9F800300233C9F80030256815F0060510D104F1190A07E031
:401E00000123524639463046C04701301AD00135E368D9F800209B1A9D42F1DB94F843302268003318BF012392060FD5E118302081F843005A1C94F845102244023382F859
:401E4000431003E04FF0FF30BDE8F08704F1430239463046C0470130F4D02268D9F80050E36802F00602042A08BF5D1B2269A3680CBF25EAE57500259342C4BF9B1AED1819
:401E80004FF000091A344D4509D00123224639463046C0470130D5D009F10109F3E70020BDE8F0872DE9F04317460A7E85B06E2A984606460C460C9B01F1430E00F0AE802A
:401EC00011D8632A22D009D8002A00F0BB80582A40F0CA8081F84520834955E0642A1ED0692A1CD0C0E0732A00F0B08009D86F2A2ED0702A40F0B8800A6842F020020A6067
:401F00003EE0752A24D0782A3AD0ADE01A6801F14205111D1960136884F84230A8E021681A6811F0800F02D0111D196008E011F0400F02F10401196002D0B2F9003000E01A
:401F40001368002B3CDA2D225B4284F8432037E021681A6811F0800F02D0111D196007E011F0400F02F10401196001D0138800E01368227E5C496F2A14BF0A2208221BE03E
:401F800078225A4984F845202268186812F0800F00F104051D6003D1550601D5038800E00368D00744BF42F0200222601BB9226822F0200222601022002084F8430001E060
:401FC00049490A226568002DA56008DB206820F0040020602BB9002D7DD175460CE0002B79D07546B3FBF2F002FB1033CB5C05F8013D03460028F5D1082A0BD12368DA070D
:4020000008D5236962689A42DEBF302305F8013C05F1FF35C5EB0E0323612EE008681A6810F0800F496903D0101D1860136808E010F0400F02F104001860136801D0198039
:4020400000E0196000232361754616E01A68111D1960156800216268284600F049F808B1401B6060636804E004F1420584F8422001232361002384F84330CDF800803B4662
:4020800003AA21463046FFF797FE013002D14FF0FF3026E023692A4639463046C0470130F5D023689B0710D5002504F1190907E001234A4639463046C0470130E7D00135A2
:4020C000E368039A9B1A9D42F2DBE068039B9842B8BF184605E00B7804F1420584F842308AE705B0BDE8F083692500007A25000010B5C9B202449042034605D01C780130CA
:402100008C42F8D1184610BD002010BD884210B501EB020301D8421E0BE09842FBD28118D21AD34204D013F8014D01F8014DF8E710BD994204D011F8014B02F8014FF8E7BE
:4021400010BD000038B50546002944D051F8043C0C1F002BB8BFE41800F0D4F81E4A1368114613B96360146030E0A3420DD92268A018834201BF18685B681218226063607E
:402180000C6023E0A24203D813465A68002AF9D118681918A1420BD12168014458188242196013D110685268014419605A600DE002D90C232B6009E021686018824201BF79
:4021C000106852680918216062605C602846BDE8384000F098B838BD6C81FF1F70B5CD1C25F0030508350C2D38BF0C25002D064601DBA94202D90C23336046E000F082F88C
:40220000234B1C681A462146A1B10B685B1B0ED40B2B03D90B60CC18CD501EE08C420BBF63684B681360636018BF0C4615E00C464968E9E7174C23681BB9304600F052F89D
:4022400020602946304600F04DF8431C18D0C41C24F00304A0420DD12560304600F053F804F10B00231D20F00700C31A0ED05A42E25070BD211A304600F034F80130EBD1C5
:402280000C233360304600F03EF8002070BD00BF6C81FF1F6881FF1FF8B5074615460E4621B91146BDE8F840FFF798BF1AB9FFF749FF2846F8BD00F027F885420ED929463E
:4022C0003846FFF78BFF044650B131462A46FFF7D3FB31463846FFF735FF01E03046F8BD2046F8BD38B5064C0023054608462360FFF796FA431C02D1236803B12B6038BDAF
:402300007081FF1F7047704751F8040C0028BEBF091851F8043CC01804387047000000000C0C0C0C0C0C0C0C0C0C0C0C0C0C0C0C0C0C0C0C255800000A0D53484120544594
:40234000535420313A2000000A0D484D4143205445535420313A20000A0D0000484D4143205445535420323A20000000484D4143205445535420333A20000000484D414355
:40238000205445535420343A200000000A0D20484F5450205445535420313A000A0D20436F756E743A20307800000000204B65793A203078000000000A0D484D4143204392
:4023C000616C63756C617465643A2000202D3E20255820002558200A0D0000007472756E636174696E673A2000000000686F74702076616C75653A20000000002564200044
:402400002D3E2025640000000A0D544F545020546573743A2000000025640000656E6469616E20746573743A200000002D2D2D2D2D2D0A0D000000004A656665000000003F
:402440007768617420646F2079612077616E7420666F72206E6F7468696E673F00000000546573742057697468205472756E636174696F6E00000000546573742055736990
:402480006E67204C6172676572205468616E20426C6F636B2D53697A65204B6579202D2048617368204B6579204669727374000054657374205573696E67204C61726765D0
:4024C00072205468616E20426C6F636B2D53697A65204B657920616E64204C6172676572205468616E204F6E6520426C6F636B2D53697A65204461746100000031323334AF
:402500003536373839303132333435363738393000000000005100401000205100405000F0510040100000000140001000140140000480180140800300400140000A004C3B
:40254000014000020050014020000000001801405002004880004300232D302B2000686C4C00656667454647003031323334353637383941424344454600303132333435F1
:40258000363738396162636465660000F8B500BFF8BC08BC9E4670474D0000009D180000F8B500BFF8BC08BC9E46704729000000C0250000C880FF1F8000000030000000C4
:4025C000000000007881FF1F0000E02EC05D00001800000000366E010000000000000000000000000000000000000000000000000000000000000000562500000000000061
:402600000000000000000000000000000000000000000000000000000000000000000000000000000000000000000000000000000000000000000000E080FF1F000000001C
:40264000000000000000000000000000000000000000000000000000000000000000000000000000000000000000000000000000000000000000000000000000000000005A
:40268000000000000000000000000000000000000000000000000000000000000000000000000000000000000000000000000000000000000000000000000000000000001A
:4026C00000000000000000000000000000000000000000000000000000000000000000000000000000000000000000000000000000000000000000000000000000000000DA
:402700000000000000000000000000000000000000000000000000000000000000000000000000000000000000000000000000000000000000000000000000000000000099
:020000040003F7
:0200000480007A
:400000000252004003650040141801403A190140691A01404F1B0140014C0140074D01400250014061806440887289388B0F800886048801A101A202A401AA02AC01B002F3
:40004000B204B401B501B608BE41BF10D418D804D904DB04DF01010A0308052906020C410D020E0A0F2010221248168017141A011B151C101D211E0A1F102308250A26089F
:4000800027012B402C412D202F10354137143D803E823F284440452847404F20550156405B015C10600463026C226E046F08760277148601C0FEC2F0C47FCAF1CCF0CEF0C2
:4000C000D0F0D220D621D80CE00802030410060C070808100C090D800E100F131220152C16201743180C19711A111B06230C24142571270E281C2A02301F31C0330F3420E2
:40010000353039223B083E103F104002450449FF4A074BFF4C404D204EF04F055008580459045A045F01604061A862406320814882358334844A85F8863488138A2C8D204F
:400140008E488FC293019501980399909A149B2CA101A413A664A9F8AA40AF01B010B106B268B301B40FB518B7E0B908BA28BE01BF01C024C103C50CC6CEC70BC81DC9FF3D
:40018000CAFFCBFFCEF0CF44D00CD401D804D904DA04DB04DF01E6C0EA40EB020060010203100440051006410720082009090F081108132014201604180419021D141E4029
:4001C0002040211022042320254826102740282029042A012C412F083110320433103521361438803A043B043D803E06411044204640471048104B044F085040524055041C
:4002000057505D015E405F18633079017B4089488A0292049404984199019B089D6A9F40A101A204A308A540A740C0FFC24EC466CAB3CCE6CEDAD0E4D6F0871010407310E2
:4002400088409310C408DC01E20110011C0100001F10200001000004020000E308C000001C1C23E10008230033180C003F44000003FF000004E700180C800000003C00C288
:400280002C1F10380F0000C00000A202000004002604030001000CE024FFFFFF62A0F0410C00000000000211040404040000000100000000000040020010301000101012D2
:4002C00000000000000000000000000000000000800040808000800000000000000B0B000000000000000000000000000000000000000000000000000000000000000000A8
:4003000000000000000000000000000000000000000000000000000000000000000000000000000000000000000000000000000000000000000000000000000000000000BD
:40034000000000000000000000000000000000000000000000000000000000000000000000000000000000000000000000000000000000000000000000000000000000007D
:40038000000000000000000000000000000000000000000000000000000000000000000000000000000000000000000000000000000000000000000000000000000000003D
:4003C00000000000000000000000000000000000000000000000000000000000000000000000000000000000000000000000000000000000000000000000000000000000FD
:0200000490006A
:0400000000004005B7
:0200000490105A
:04000000BC90ACAF55
:0200000490303A
:02000000F99273
:0200000490402A
:4000000000000000000000000000000000000000000000000000000000000000000000000000000000000000000000000000000000000000000000000000000000000000C0
:400040000000000000000000000000000000000000000000000000000000000000000000000000000000000000000000000000000000000000000000000000000000000080
:400080000000000000000000000000000000000000000000000000000000000000000000000000000000000000000000000000000000000000000000000000000000000040
:4000C0000000000000000000000000000000000000000000000000000000000000000000000000000000000000000000000000000000000000000000000000000000000000
:0200000490501A
:0C00000000012E16106900012E2509FBDE
:00000001FF