:400000000080002011000000192100001921000008B5044B1A6803F53F5302331A6002F09BF800BFFA46004010B5054C237833B9044B13B10448AFF300800123237010BD6E
:40004000508FFF1F00000000808B0000084B10B51BB108490848AFF300800848036803B910BD074B002BFBD0BDE81040184700BF00000000548FFF1F808B0000C880FF1FC0
:4000800000000000024A137883F0010313707047B5A0FF1F08B50122024B1A70024802F0FFF808BDB4A0FF1F848B000030B59BB062B6254802F0B4F9244803F039F802F03F
:4000C000D5F806F07BFB02F0EBF90022204B1A6002F08AFA1F4C0125256002F007FE4FF4004323603C2001F033F9684600F08CFC02F026FA9DE8030000F060FC80B202F0B5
:4001000007FA00F053FA0A21084601F041F9022001F044F9284601F049F90F4801F070FB01F0DAF801F0EAFB0C4801F07FFB01F0B1FB10B102A800F03FFA094C204600F005
:4001400011FE00232370F2E79500000085000000EC80FF1F00E100E0948B00009C8B0000B4A0FF1F38B505460A490B4801F072FE002405E005EB0411074801F06FFE013495
:40018000064B1B68002B00DA0F33B4EB231FF1DB38BD00BFCC80FF1FC8A0FF1FB082FF1F38B505460A490B4801F054FE002405E005EB0411074801F059FE0134064B1B68B4
:4001C000002B00DA0F33B4EB231FF1DB38BD00BFCC80FF1FC8A0FF1FB082FF1F00B585B0264802F05DF8092201A9002006F084FC30B1234802F054F801A802F051F805E0BA
:40020000204802F04DF8204802F04AF801A804F065FD18B91D4802F043F802E01C4802F03FF81C491C4806F0EBFB1C4B1860C0B11B4802F035F8184802F032F8194802F06C
:400240002FF8164B186806F015FB18B9164802F027F80CE0154802F023F8154802F020F805E0144802F01CF8134802F019F8134802F016F805B05DF804FB00BFA88B000078
:40028000BC8B0000D08B0000E48B0000F48B0000008C0000088C0000DC80FF1FB8A0FF1F0C8C0000188C0000248C0000388C00004C8C0000548C0000688C0000708C000046
:4002C00070B504460D4616461F49204806F098FB1F4B1860002834D006F078F863191D4A116801FB03F3984203DA1B4801F0D8FF27E0012201FB04F1154B186806F05CFA9C
:4003000018B1164801F0CCFF1BE0124B1A6802FB05F231460E4B186806F0E3FB002406E004EB440358013044FFF73AFF0134AC42F6DB074B186806F09DFA10B1084801F057
:40034000AFFF002070BD00BF848C0000DC80FF1FB8A0FF1FB082FF1F888C0000B08C0000D08C000038B504460E490F4806F048FB0E4B1860A0B12046FFF7F4FE0B4D0C4B8A
:400380001A682146286806F097FC286806F072FA18B1084801F084FF02E0074801F080FF002038BDEC8C0000DC80FF1FB8A0FF1FB082FF1FD08C0000F08C000010B584B07D
:4003C0000C490D4806F01CFB0C4B186018B105F0FDFF044600E000242246094901A807F0F1FE01A801F05CFF064B186894FBF0F004B010BD848C0000DC80FF1FB8A0FF1F70
:40040000108D0000B082FF1F08B5034B1A680021024807F0CEFE08BDE880FF1F88A1FF1F84B010B582B004AC84E80F00174801F0FDF905A801F0FAF9154801F0F7F90024F3
:4004400018E004F131038DF8043000238DF8053001A801F0EBF90F4801F0E8F904EB84039800183004AB184401F0E0F9074801F0DDF90134049B9C42E3DB074801F0D6F95E
:4004800002B0BDE8104004B0704700BF748D0000788D00007C8D0000808D000084B000B589B00DF1280E8EE80F001B4801F0BEF91E220021684607F07CFE002305E008AA2F
:4004C0001A442A2102F8201C01331C2BF7DD00238DF81D30684601F0A9F9104801F0A6F90AA801F0A3F90E4801F0A0F90DF1320001F09CF90B4801F099F90DF15A0001F0BC
:4005000095F9094801F092F9684601F08FF909B05DF804EB04B07047A08D0000A88D0000B88D0000CC8D0000E08D000070B5ACB0FFF744FF064600250FE014AC2246012100
:400540002846FFF7BDFE502218A9684607F026FE94E80F00FFF7A2FF0135B542EDDB2CB070BD00BF08B5024801F060F908BD00BFE88D000038B50546002411E001F0C2FF38
:40058000C0B204E001F0B2FF01F0BCFFC0B2A0F12103DBB25D2BF5D8285501F0A7FF01340F2CEBDD00232B7438BD00BF0022014B5A607047E880FF1F70B5BAB001F096FF52
:4005C000AB4C204601F03CF92078003018BF012001F078FFA74B5B68032B00F2A481DFE813F0040013006F008701A24CD02204F11801684607F0D2FD04F108030FCBFFF74C
:400600000FFF012363608EE1994B1B78002B00F08A81974807F092FD0446032835D8DFE800F002111B24FFF79DFF924CD02204F11801684607F0B2FD04F108030FCBFFF735
:40064000EFFE3AE002228B4B5A6000228A4B1A608A4801F0EBF830E00022864B5A60884801F0E4F8FFF762FF27E0864801F0DEF8854801F0DBF8854801F0D8F8844801F07F
:40068000D5F803227B4B5A6017E0824801F0CEF8774B2246804935A807F094FD35A801F0C5F8744CD02204F11801684607F076FD04F108030FCBFFF7B3FEFFF7A5FE32E168
:4006C0006D4B1B68052B00F22E81DFE803F003122B51A9C6684C60227049201D07F05EFD6F4801F0A3F86F4801F0A0F80123236019E15F4B1B78002B00F015815E4C251DB8
:400700005B49284607F09BFDFFF77EFE664801F08DF8284601F08AF8644801F087F80223236000E1524B1B78002B00F0FC80524D05F10E044E49204607F081FDFFF764FEC4
:400740005B4801F073F8204601F070F8574801F06DF8484CD02204F1F801684607F01EFD04F1E8030FCBFFF75BFE03232B60DAE03F4B1B78002B00F0D6803D4807F0DEFC3A
:40078000012812D002281ED0002846D1FFF7EAFE384CD02204F1F801684607F0FFFC04F1E8030FCBFFF73CFE37E0424801F03EF8314C04F10E0001F039F83C4801F036F8FE
:4007C0000423236029E03C4801F030F835A8FFF7D1FE294C251D04F1360635A9304607F02EFD364801F022F804F10E0001F01EF82E4801F01BF8304601F018F8502204F1BE
:400800001401684607F0CAFC95E80F00FFF746FE2B4801F00BF805232360FFF7F5FD82E0134B1B78002B7ED0134C251D104904F1360007F004FDFFF7E7FD502204F1140139
:40084000684607F0ABFC95E80F00FFF727FE1C4800F0ECFF0523236065E0054B1B78002B61D0792B30D11748FFF77CFD2FE000BF88A1FF1FE880FF1F6C8FFF1F348E00002E
:40088000448E00005C8E00007C8E0000A88E0000CC8E0000FC8E00000C8F0000148D0000148F00003C8F0000548F0000B48D00006C8F0000848F0000A08F0000B88F000006
:4008C000D88F0000708FFF1F184800F0AFFFFFF79BFD174C01236360D02204F11801684607F05CFC04F108030FCBFFF799FD1AE0104B1B78BBB110490E4807F096FC60B996
:400900000E4800F093FF0020FFF768FC0C4800F08DFF0022064B5A6005E00A4800F086FF0022034B5A603AB070BD00BF0C900000E880FF1F88A1FF1F1C90000034900000E3
:40094000489000006890000030B4B0F5FA6F02D3A0F5FA6080B292B2012306E05C1E0E4D2C5D224492B20133DBB28B42F6D3022904D910F0030F01D1013292B2C31C00EBE5
:40098000C00100EBC10000EB8000024402EBA300013880B230BC70478C90000010B400EB4000C4002144C1EB011188000244C2EB02129000184410BC704700BF00B583B0E4
:4009C00002AB03E903009DF802209DF801109DF80000FFF7B9FF9DF805309DF804209DF80310FFF7DBFF00F1615000F5351000F5607003B05DF804FB0309A3EB83035A009E
:400A00001044C0B2704700BF2DE9F04782B00446002302A901F8043D0122682001F08CFF02F068F810F0020FFAD002F07DF8002307221A49682001F0EDFF02F05BF810F095
:400A4000010FFAD002F070F8144D287800F07F00FFF7D2FF06466878FFF7CEFF0746A878FFF7CAFF80462879FFF7C6FF81466879FFF7C2FF8246A879FFF7BEFF054602F096
:400A800063F8257084F801A084F8029084F8038027716671204602B0BDE8F087A8A1FF1F08B500220D4B5A600538904200DD5860FFF784FC094A5368C01A1060084AD2F893
:400AC00080249918884201DD04490A60044A034909681846FFF7F4FB08BD00BFD08FFF1FB482FF1FF0B583B007464B4B58680C1A05D5002001F0A8FC0024254610E00D469D
:400B0000454B1B68013B9C420ADD2044013840B201F09AFC404B5D682544013D1C68013C00F0CCFB01260096142364221621002000F0D4FC304600F031FC0621002000F0C1
:400B400027FC304600F032FC304600F027FCB44205DD04EB44035801C038384400E02F4800F04EFE002C05DD04EB440358016038384400E0294800F043FE022000F00EFC78
:400B8000002000F013FC1821052000F001FC04EB44035E01B81900F033FE012000F0FEFB012000F003FC2A21002000F0F1FB1A4B1B68023B9C4205DC631C03EB43035801F3
:400BC000384400E0154800F01BFE134B1B68033B9C4203DC06F1C000384400E00F4800F00FFE00F079FB0C4B9B689D4211D00A4B5B68EB1A022B03DC2846FFF751FF08E0AD
:400C0000074AD2F88024043A934202DD2846FFF747FF03B0F0BD00BFD08FFF1FA8900000B482FF1F10B582B0041E04DA002001F00BFC00240CE0124BD3F88404431E9C4223
:400C400006DD58B201F000FC0D4BD3F88444013C0B4BB3F98824B3F98C14002000902C2300F03CFC04EBC40404F118010123022209B20A2000F066FC00F02EFB02B010BD75
:400C8000B482FF1F84B038B504AC84E80F0000F015FB0621002000F07BFB012000F07EFB012000F083FB04A800F0AAFD002413E004EBC401114DD5F88C34194409B2B5F90F
:400CC000880400F065FB05F5926504EB84039800284400F095FD0134084BD3F884349C42E6DB00F0F9FA002001F0AEFB01F0A6FBFFF798FFBDE8384004B07047B482FF1FE9
:400D000084B008B50DF1080E8EE80F0000F0D6FA0621002000F03CFB012000F03FFB012000F044FB02A800F06BFD0B4800F05AFD0DF1120000F064FD084800F053FD0DF1D5
:400D40003A0000F05DFD064800F05AFD00F0C4FABDE8084004B07047B4900000C0900000CC9000002DE9F04399B0054601F066FB0446714B1B7B042B00F2D880DFE803F066
:400D8000031F3E67C70000F099FA0A21084600F0FFFA022000F002FB012000F007FB674800F02EFD00F098FA0122634B1A732046FFF776FE4FF47A7001F094FAB6E002469A
:400DC0005F4915A807F0FEF900F078FA28210A2000F0DEFA15A800F013FD00F07DFA2B78002B00F0A3800222534B1A73002001F02BFB21465348FFF775FE97E0514E0146B0
:400E00003046FFF76FFE4C4B5B68E31A03EB43035901602231444C4807F0C0F92B78002B00F084800322444B1A734749D1F800804F688E68CD6850221031684607F0AEF9FC
:400E40004046394632462B46FFF71CFF6EE0FFF7E9FE2B78002B69D0042C67D8DFE804F0031B34664900394D0121284600F07CFD2B4653F80A9DD3F804809F68DE68502226
:400E8000A91D684607F08AF9484641463A463346FFF7F8FE4AE02E4D0121284600F064FD2B4653F8329DD3F804809F68DE685022A5F12201684607F071F9484641463A46CE
:400EC0003346FFF7DFFE31E01F49D1F800804F688E68CD6850221031684607F05FF94046394632462B46FFF70BFF0422124B1A731CE00222104B1A73002001F0A5FA00207C
:400F0000FFF7CEFD21460F48FFF7ECFD0EE02B7863B10222084B1A73002001F095FA0020FFF7BEFD21460748FFF7DCFD024B9C6019B0BDE8F08300BFD08FFF1FE0900000DE
:400F4000108D0000B482FF1F54A0FF1F5EA0FF1F86A0FF1F83B27F2B3CD800293ADB3F2938DC012A03D09AB1022A23D070471A4A0B46002900DACB1DDB1000EBC31001F008
:400F80000701012303FA01F1135C194311547047114A0B46002900DACB1DDB1000EBC31001F00701012303FA01F1135C23EA010111547047084A0B46002900DACB1DDB10D0
:400FC00000EBC31001F00701012303FA01F1135C59401154704700BFA987FF1FF0B5BDF81440904267D10D46002900DACD1DED1000EBC510444F07441846002B00DAD81D0B
:40100000C01002EBC012404810443A4650E0BA4218D13E4D0D4003D5013D65F007050135EEB2F5186D1AEDB2062D00D90725AD1B01354FF0010E0EFA05F5013D05FA06F699
:40104000F6B20EE082420CD1304D1D4003D5013D65F0070501352DB2012606FA05F56E1EF6B2BA4201D0824212D1012C03D034B1022C09D01BE015783543157017E0157815
:4010800025EA0605157012E01578754015700EE0012C03D02CB1022C06D008E0FF25157005E00025157002E01578ED43157080328242ACD9F0BD0B46002900DACB1DDB10F6
:4010C00000EBC313104D2B44121A1A4401F00701012000FA01F1CDB212E0012C03D034B1022C09D00BE018782843187007E0187820EA0100187002E0187868401870013328
:401100009342EAD9F0BD00BFA987FF1F07000080B1F90020154B1B78022B0CD0032B19D0012B21D1B0F900300B80114B1B889A1A013A02807047B0F900200D4B1B889B1AD7
:40114000013B0380B1F900200A4B1B889B1A013B0B80704710B4B0F90040064B1B881B1B013B0B80028010BC704700BFB4A1FF1FB2A1FF1FB6A1FF1F10B584B0ADF80E0054
:40118000ADF80C10ADF80A20ADF80830904203D009B21BB2994271D1394B1B78012B01D0032B1AD1002869DB364BB3F90030984264DA002A62DB9A4260DABDF90C30002BD0
:4011C0005CDB314AB2F90020934257DABDF90830002B53DB9A421ADC50E0BDF90C30002B4CDB2849B1F900108B4247DABDF90830002B43DB994241DD00283FDB224BB3F93B
:40120000003098423ADA002A38DB9A4236DA03A90DF10E00FFF77CFF02A90DF10A00FFF777FFBDF90E30BDF90A20934205D1BDF90800BDF90C10884207DBBDF90C00BDF9EC
:40124000081088420DD193420BDDADF80E20ADF80A30BDF90C30BDF80820ADF80C20ADF80830BDF90830BDF90A20BDF90C10BDF90E00BDF818400094FFF7B0FE04B010BD98
:40128000B4A1FF1FB6A1FF1FB2A1FF1FF8B507460E460021084B187801F0A4FE0024FF2504E0385D01F0FAFE05460134B442F8DB01F0D8FE2846F8BDDE8FFF1F10B5054C72
:4012C0004FF480620021601C06F073FF4023237010BD00BFA887FF1F00B583B00A4B186800909A889B79ADF804208DF8063007216846FFF7CBFF40F201410448FFF7C6FFDD
:4013000003B05DF804FB00BFE8900000A887FF1F0A4B18800A4B19800A4B58809980002209490A70DA801A8101229A724FF6FF719981D981054B1A70704700BFB2A1FF1F05
:40134000B6A1FF1FDE8FFF1FB4A1FF1FB8A1FF1F30B589B00C4B187040218020FFF7D8FF01AC0A4D55F8080F6968AA68EB680FC42869696903C42B8B23801A2101A8FFF7EA
:4013800085FF09B030BD00BFDE8FFF1FE8900000014BD88019817047DE8FFF1F08B90120FFE7014B98727047DE8FFF1F014B9881D8817047DE8FFF1F10B582B0ADF80600BF
:4013C000ADF80410002819DB0D4BB3F90230984214DA0BB2002B11DB0949B1F904108B420CDA144601A90DF10600FFF791FE2246BDF90410BDF90600FFF7ACFD02B010BDEA
:40140000DE8FFF1F2DE9F04F85B005460E461746BDF838200292B84201D0994207D1029A00923A4631462846FFF7A6FE52E0C1EB0308B8F1000FB8BFC8F10008C0EB0709BB
:40144000B9F1000FB8BFC9F10009C84504DD3A461F4613460D460646BD4205DD32461E4613462A463D461746C5EB070B1FFA8BFB0FFA8BF4C6EB030ABAF1000FB8BFCAF1B5
:40148000000A04EBD47464109E4202DA012303931EE04FF0FF3303931AE0C84505DD029A29463046FFF788FF04E0029A31462846FFF782FFCAEB0404A3B21CB2002C05DA4E
:4014C000039A164436B20BEB030424B201352DB2BD42E2DD05B0BDE8F08F00BF2DE9F04383B005460E4617469846BDF8289093420FDC0C461EE006EB0803013BCDF800906F
:401500001BB2224631462046FFF77CFF013424B200E00446EB199C42EDDB0FE0EA19013ACDF80090234612B221462846FFF76AFF013424B206EB08039C42EFDB03B0BDE85F
:40154000F08300BF2DE9F04F87B082460E4602921F46019395B2C5F1010424B2C5EBC53253001AB205921FFA81FB05EB0B013A4609B2FFF721FFC5EB0B013A4609B2504660
:40158000FFF71AFF1FFA8AFA05EB0A003A46314600B2FFF711FFC5EB0A003A46314600B2FFF70AFF4FF000090123039360E0002C0ADB029B013B1BB20293059B02339BB2C4
:4015C0001AB205921C4424B209F10105ADB20FFA85F9039B02339BB21AB203921C4424B20AEB05031BB2BDF808600BEB06080FFA88F8019A414604931846FFF7DDFEC5EBA9
:401600000A073FB2019A41463846FFF7D5FEC6EB0B080FFA88F8019A41460498FFF7CCFE019A41463846FFF7C7FE0AEB06073FB20BEB05080FFA88F8019A41463846FFF704
:40164000BBFEC6EB0A0636B2019A41463046FFF7B3FEC5EB0B052DB2DDF80480424629463846FFF7A9FE424629463046FFF7A4FE029B99459BDB07B0BDE8F08F2DE9F04F99
:4016800085B0BDF838B09DF83C60364CB4F90240844263DD334CB4F904408C425EDD06EB46056C000444012C58D401EBC604012C54D4984603928A46814600274CE0052F52
:4016C00008D0039B03EB83033B44274A134493F8245000E0002500243AE015F0010F19D0012E09D104EB0A0107EB0900424609B200B2FFF761FE28E0B0B232B204FB00A143
:4017000007FB0090CDF80080134609B200B2FFF7E5FE1AE0D84518D0012E09D104EB0A0107EB09005A4609B200B2FFF745FE0CE0B0B232B204FB00A107FB0090CDF800B017
:40174000134609B200B2FFF7C9FE6D08013464B2072CC2DD01377FB2052FB0DD05B0BDE8F08F00BFDE8FFF1FE89000000A2808D11A4B997A1A8902EBC1021A810022DA80A2
:4017800070470D28FCD030B583B00246134CE389B4F90810B4F90600A57A0195A5890095FFF76CFFA27A91B201EB41035800E38803441BB2E3800A48007868B1A2EB820238
:4017C0005000B4F902201044834205DD228902EBC10121810022E28003B030BDDE8FFF1FB8A1FF1F70B5064606F031FD0546002403E0305DFFF7BAFF0134AC42F9D370BD6E
:4018000008B5FFF7EFFF0A20FFF7B0FF08BD00BF08B51E220021034806F0CBFC0022024B1A6008BDF08FFF1FAC8BFF1F10B5044601F0C6FF0028FBD0204601F065FF10BDAE
:4018400010B582B0044601F0AFFFD0B91DE001A801F0C2FF02AB1844002300F8043C9DF804300D2B06D10A49204606F0E8FCFFF7CFFF06E001A8FFF7D9FF01A9044806F0CB
:40188000C5FC01F091FF0028E1D102B010BD00BFF08FFF1F08B501F093FF003018BF012008BD00BF00B583B002AB03E90300042001F05CFE0028FAD00F49009B81F82230A2
:4018C0009DF804305B0001F8203F0822042001F0C5FD042001F04AFE0028FAD00649002381F8223001F8203F0822042001F0B6FD03B05DF804FB00BFF08FFF1F174B93F845
:40190000283053BB10B5FFF7D9FC14210846FFF73FFD1348FFF774FF1248FFF771FFFFF7DBFC62B60221002001F030FD012000F0C9FD01F06FFD0028FBD0002000F0C2FD3C
:40194000064C082204F12001042001F087FD01F08FFE012384F8283010BD7047F08FFF1F089600001C96000070B505460E46FFF7C5FF204B93F8283063B356B1FFF79EFCDC
:4019800028211420FFF704FD1B48FFF739FFFFF7A3FC00240AE02B5D203B184A02EBC303043393E80300FFF77DFF0134284606F04EFC8442EFD3E6B130211420FFF7E8FCFF
:4019C0000F48FFF71DFFFFF787FC4FF4C87000F089FC70BDFFF772FC28211420FFF7D8FC0848FFF70DFFFFF777FC4FF4167000F079FC70BDF08FFF1F40960000AC8BFF1F5F
:401A00004C9600005496000070B483B000220EE0930011F8224000F822405C1C0D5D05559C1C0D5D05550333CC5CC4540132032AEED9042246E002F18043013B10F823104D
:401A40008DF8041000EB83035E788DF805609D788DF80650DC788DF8074012F0030F11D11B4B9E5D5D5D8DF805501C5D8DF80640595C8DF8071003EB920393F8003173401A
:401A80008DF80430910002F18043043B10F823509DF804406C4000F822404D1C00EB83035E789DF80540744044558D1C9E789DF80640744044550331DC789DF807306340D8
:401AC000435401322B2AB6D903B070BC704700BF6C960000F0B4002511E005EB800403EB8404175D01EB8506F45C7C40F4540133DBB200E00023032BEFD90135EDB2032D3F
:401B0000F8D9F0BC704700BF30B400220DE000EB83018C5C074D2C5D8C540133DBB200E00023032BF3D90132D2B2032AF8D930BC704700BF6C960000437842794270427AF0
:401B40004271427B427243738378827A827083728379827B82718373C378C27BC270C27AC273C279C272C371704700BFC3095A00134403EBC30383EA4000C0B2704700BFD1
:401B80002DE9F0470746002631E017F8269007EB8605687889EA0000AB78EC7843405C40FFF7E4FF604089EA000007F8260095F8018095F802A088EA0A00FFF7D7FF6040E3
:401BC00088EA0000687095F803808AEA0800FFF7CDFF60408AEA0000A87089EA0800FFF7C5FF604088EA0000E8700136F6B2032ECBD9BDE8F08700BF2DE9F04F8BB00090D3
:401C00000025AEE0009A12F825B002EB850898F801100E4698F802100F4698F803405846FFF7A4FF0290FFF7A1FF0390FFF79EFF824601963046FFF799FF0646FFF796FF80
:401C40000490FFF793FF814609973846FFF78EFF0590FFF78BFF0690FFF788FF07462046FFF784FF0790FFF781FF0890FFF77EFF029B039983EA0102D2B28AEA0202D2B24B
:401C8000019981EA0603DBB289EA0303DBB25A400999069B9C464B40DBB27B40DBB2534084EA0002D2B25340009A02F825308BEA0A03DBB2049A5640F6B289EA0606F6B24F
:401CC00073400E46059986EA0102D2B27A40D2B25340089984EA0102D2B24240D2B2534088F80130039A8BEA0202D2B28AEA0202D2B2019981EA0903DBB25340059A964655
:401D00008EEA0C02D2B27A40D2B25340079A5440E4B24440E4B2634088F80230029B8BEA030B5FFA8BFB8AEA0B0A5FFA8AFA0B46049A5340DBB289EA03095FFA89F98AEA4C
:401D400009097740FFB289EA0709079A089982EA0103DBB25840C0B289EA000088F803000135032D7FF74EAF0BB0BDE8F08F00BF30B400210FE000EB8304625C084D2A44C9
:401D800092F80C2162540133DBB200E00023032BF1D90131C9B20329F8D930BC704700BF6C960000437B427A4273427942724278427143708378827A827083728379827B57
:401DC00082718373C378C279C270C27AC271C27BC272C373704700BF70B505460E460A4601460020FFF776FE01242846FFF78CFE2846FFF7A1FE0A2C0AD02846FFF7C0FE99
:401E0000324629462046FFF765FE0134E4B2ECE7324629460A20FFF75DFE70BD70B505460E460A4601460A20FFF754FE09242846FFF7B8FF2846FFF79BFF3246294620466F
:401E4000FFF748FE2CB12846FFF7D6FE013CE4B2EDE770BD08B5FFF7D7FD08BD08B50B4601461846FFF7B8FF08BD00BF08B50B4601461846FFF7D2FF08BD00BFFEE700BF6B
:401E8000F0B40022174611E050F82760F3B226F0FF0608E001EB420511F812406D78A5550132013BDBB2002BF4D10137272FEBD9F0BC7047064B1B78DBB203F00701054ACE
:401EC00011701B09013213704422034B1A707047CF0100496E5800407658004008B50A46002106F066F908BD38B500242A4B1C80582202331A70012202331A801823274A24
:401F000013700E210232118002321370192502321580023213700622214B1A705222A3F580731A701F4B1B78DBB21F4A13704FF4E1621E4B1A8041F25122023B1A800CE0A6
:401F40001B4B1B7803F0010343EA440404F003044FF4F07002F048FD013D0DB1032CEFD115B90320FFF78AFF124A4FF48073138007231370002310490B70482002310870F0
:401F800013700532137002220C4B1A700C4A137843F00F03137038BD8040004086400040004300400F010049A1460040224200402542004004400040064000400140004062
:401FC000A243004008B506F0E9F808BD38B572B63B4A137843F00403137000240CE0394D630019194A0011462A44084691882858FFF774FF0134E4B2082CF0D900240CE01F
:402000003048A20011194B000344B3F84020D96B986BFFF7D7FF0134E4B2032CF0D92A494FF09040FFF72CFF284A294B1A60294A137843F0020313701032137843F0020328
:402040001370254C237843F040032370A2F58632513A137843F0100313700A221F492048FFF7B0FF0A221F491F48FFF7ABFF0A221E491F48FFF7A6FF08221E491E48FFF7DC
:40208000A1FF0A221D491E48FFF79CFF0A221D491D48FFF797FF1D4A137843F0080313701B4D61232B70FFF71FFF81232B70FFF701FF0E2221461748FFF784FF38BD00BFCE
:4020C000E846004078980000A0000048040400C4580C014003500140A04300402C1000480051004038100048C051004044100048F051004050100048125100405810004844
:402100002051004064100048305100402243004000480040B043004008B506F013F803680C2B00D1FEE7FEE708B5094B1A681044084BC31A802B02DC054B186005E006F0D3
:4021400001F80C2303604FF0FF32104608BD00BFB08EFF1F70A3FF1F08B5104E104D16E029686B68AC68002204E051F8040B43F8040B0432A242F8D1E868002203E0002116
:4021800043F8041B04328242F9D11035013E002EE6D105F0DDFFFDF789FFFEE701000000B49F000008B5104A104B1A60104A136843F40073136000230AE0032B03D80D4AC7
:4021C00052F8231000E00C490C4A42F8231001332F2BF2D90A4B1A780A4B1A70074A0A4B1A60FFF7F3FE08BD0004FA050CED00E014ED00E000000000192100000080FF1FEA
:40220000BC760040C080FF1F08ED00E07222084B1A702022013B1A700622A3F25F131A70472210331A70002254331A70704700BF8965004010B502F0DFFB04460A4A137800
:4022400043F020031370013A137843F010031370FB3A137843F01003137000F033F8204602F0CEFB10BD00BF9965004008B5054B1B7823B9FFF7CAFF0122024B1A70FFF73C
:40228000D9FF08BD1990FF1F034B1B7813F0040FFAD1024B187070476D6400404E64004038B5074B1B782BB938BDFFF7EDFF0134A4B201E005460024285D0028F5D138BD99
:4022C0001990FF1F054A137843F0080313701032137843F008031370704700BFA243004001BE704710B5044605E0084B186802F07BFBA4F50044B4F5004FF6D8034B5868FD
:4023000000FB04F002F070FB10BD00BFB48EFF1F08B5034B1B7A00FB03F002F065FB08BDB48EFF1F70B504460E46074B1D681F2802D90020FFF7D4FF04F01F04103455F813
:40234000240045F8246070BD08ED00E038B504460D46072902D90020FFF7C2FF1F2C02D90020FFF7BDFF04F01F0000F1604000F564406D01EDB2057038BD00BF134B1B78AE
:40238000DBB20360124A127843EA02230360114A127843EA024303600F4A127843EA026303600E4B1B78DBB243600D4A127843EA022343600B4A127843EA024343600A4AC6
:4023C000127843EA02634360704700BF0301004904010049EC4600400201004901010049000100490501004906010049014B1B689865704708ED00E04001C0B2014B18703C
:40240000704700BF06E400E04022014B1A60704700E100E04022014B1A60704780E100E010B50446FFF7F6FF2046FFF7DFFF0720FFF7E2FFFFF7E8FF10BD00BF08B500F054
:40244000B3FB803840B208BD08B5002803DBC0B280F0800001E08038C0B200F09FFB08BD024B187800F00F00704700BF6E640040014B1870704700BF8E64004008B50F20F4
:40248000FFF7F6FFFFF7ECFF02F0B6FA034A137843F01003137002F0B3FA08BD9E64004008B500F0CFFB802000F078FB044B1B7813B90122024B1A70FFF7E0FF08BD00BFEC
:4024C0001B90FF1F044A137803F0FD03400000F0020018431070704720510040024A137843F001031370704774650040044B1A7842F002021A701A7802F0FD021A7070470C
:4025000074650040014B188880B2704706650040014B1880704700BF06650040014B1880704700BF2665004008B54FF43440FFF7F5FF4FF6FF70FFF7EBFFFFF7CFFF08BD5D
:4025400008B5054B1B7823B9FFF7EEFF0122024B1A70FFF7C3FF08BD1C90FF1F38B50024144B1C70012503F217131D7002F044FA114A137843F01003137002F041FA0F22B0
:402580000E4B1A70082210331A700D4B1D6007212046FFF7DBFE0B492046FFF7C3FE1022094B1A70094B1C70094B1C70094B1C7038BD00BF746400409B650040226400401C
:4025C00080E100E011260000B9A1FF1FCCA1FF1FCAA1FF1FC0A1FF1F024A137843F00203137070477464004008B5074B1B7823B9FFF7B4FF0122044B1A70FFF7EDFF0122CF
:40260000024B1A6008BD00BF1D90FF1F00E100E038B5AC4B1C78AC4B1B7813F0400F00F07B81E4B214F0010F00F04281A64B1B78453B052B00F23981DFE813F006009200E4
:40264000370137010600F90004F0DF0504F00A04082C50D19C4B1B78DBB2452B3DD19B4B1B7813F0FF0F16D0994B1B681B78DBB2984A13700622984B1A70FF225C3B1A7004
:40268000002240331A700122944B1A7046228E4B1A702C460CE1924B1B7813F0020F0CD0904A137843F00A0313706022864B1A7001228D4B1A602C46FAE08C4A137843F08B
:4026C000200313705222844B1A70FF225C3B1A70002240331A702C46EAE002227E4B1A70FF225C3B1A70002240331A704A22764B1A702C46DCE00A2C2DD17A4A137843F057
:40270000A0031370764B1B7813F0020F13D06E4B1B7813F0080F01D0092300E00A23714A11780B4313706022674B1A7001226E4B1A602C46BCE06D4A137843F02003137066
:402740005222654B1A70FF225C3B1A70002240331A702C46ACE00020FFF7C2FD2C46A7E014F0020F3ED15D4B1A78D2B2574B1B78DBB29A4216D2594A1378DBB2544909684D
:40278000CB5CDBB253490B700621534B1970FF215C3B197000214033197013780133DBB2137085E04E4B1B7813F0020F0BD04D4A137843F00A0313706022434B1A700122B2
:4027C000494B1A6074E0494A137843F0200313705222414B1A70FF225C3B1A70002240331A7065E03E4B1B7813F0020F0BD03D4A137843F09A0313706022334B1A70012233
:40280000394B1A6054E0394A137843F0200313705222314B1A70FF225C3B1A70002240331A70304A137843F09003137040E0304A1378DBB22F49086826490978C9B2C1543C
:4028400013780133DBB213701278D2B22A4B1B78DBB29A4209D202221F4B1A70FF225C3B1A70002240331A7022E01D4B1B7813F0020F0BD01B4A137843F009031370602296
:40288000114B1A700122184B1A6011E0174A137843F02003137012220F4B1A70FF225C3B1A70002240331A7002E00020FFF718FD14F0200F38D0044B1B7813F0080F1DD0D2
:4028C00001231CE06B650040B9A1FF1FC8A1FF1FBCA1FF1F0864004074640040C0A1FF1FCBA1FF1FCCA1FF1F80E100E08B650040CAA1FF1FC4A1FF1FC9A1FF1F02230B4A57
:4029000011780B4313700A4A137803F0DF0313701022084B1A7038BD064B1B7813F0100F02D11022034B1A7038BD00BFCCA1FF1F8B650040B9A1FF1F00294ED070B40C467B
:4029400029490978C9B2102906D12849097811F0100F10D1002111E023490978C9B260290BD1012522490D60224D297801F0F7012970002102E0012100E0022181BB4526A8
:40298000194D2E7000261C4D2E701C4D2A701C4A14601C4A1370174C227802F0FD0222704200D2B21848027013F0010F08D03222164B1A70FF225C3B1A7040331E7008E0B3
:4029C0008222124B1A70FF225C3B1A70002240331A7001220E4B1A6002E0022108467047084670BC704700BFB9A1FF1F6B65004080E200E0CCA1FF1FC0A1FF1FC8A1FF1FA0
:402A0000BCA1FF1FCBA1FF1F086400407464004000E100E0002951D070B40C462A490978C9B2102906D12949097811F0100F10D1002111E024490978C9B260290BD10125D3
:402A400023490D60234D297801F0F7012970002102E0012100E00221002932D149261A4D2E7000261C4D2E701C4D2A701C4A14601C4A1370174C227802F0FE02227042006C
:402A8000D2B242F001021848027013F0010F08D03222164B1A70FF225C3B1A7040331E7008E08222114B1A70FF225C3B1A70002240331A7001220E4B1A6002E00221084602
:402AC0007047084670BC7047B9A1FF1F6B65004080E200E0CCA1FF1FCAA1FF1FC9A1FF1FC4A1FF1FCBA1FF1F086400407464004000E100E00122084B1A60084B1878C0B2B1
:402B0000074B1B7813F0400F01D040F004000122044B1A60704700BF80E100E0CCA1FF1FB9A1FF1F00E100E00123044A1360044A107800211170034A1360704780E100E0DD
:402B4000CCA1FF1F00E100E00122064B1A600021054B197005490B7803F0FE030B70044B1A60704780E100E0CAA1FF1FCCA1FF1F00E100E0024A137843F080031370704784
:402B800073640040014B1870704700BF8C640040014B1878704700BF6C640040014B1870704700BF0B640040024B1B78024B1878704700BF0B6400404B640040014B18787C
:402BC000704700BF4B640040014B1870704700BF2B640040014B1870704700BF3B64004008B501E0FFF7EAFFFFF7D2FF10F0400FF8D108BD08B5114B1A7802F0F8021A70EC
:402C00001A7802F0FC021A70FFF7EAFF8020FFF7DBFF8020FFF7C2FF0020FFF7B3FFFFF7B7FF8020FFF7D6FF01F0E6FE044A137843F01003137001F0E3FE08BD73640040DE
:402C40009C64004008B5054B1B7823B9FFF7D2FF0122024B1A70FFF78DFF08BD1E90FF1F10B50222114B1A7081220E3B1A70082202331A70042211331A70002401331C70BE
:402C80004FF400420A4B1A6007210F20FFF75EFB08490F20FFF746FB1022074B1A70074B1C70074B1C70074B1C7010BDD649004080E100E0152D0000CDA1FF1FD0A1FF1FF1
:402CC000D2A1FF1FD3A1FF1F08B501F095FE064A137843F0040313701032137843F00403137001F08DFE08BDA543004008B5074B1B7823B9FFF7B4FF0122044B1A70FFF7CC
:402D0000E3FF4FF40042024B1A6008BD1F90FF1F00E100E038B5A54B1C78A54B1B7813F0400F00F03A81E4B214F0010F00F01D819F4B1B78453B052B00F21481DFE813F06B
:402D400006008200120112010600DF0004F0DF0504F00A04082C42D1954B1B78DBB2452B35D1944B1B7813F0FF0F10D0924B1B681B78DBB2914A137004228C4B1A7001223E
:402D80008F4B1A7046228A4B1A702C46EDE08D4B1B7813F0020F0DD08B4A137843F00A0313706022824B1A704FF40042874B1A602C46DAE0864A137843F0100313701022FE
:402DC000844B1A700422023B1A702C46CDE00022764B1A704A22764B1A702C46C5E00A2C2BD1794A137843F0A0031370754B1B7813F0020F14D06E4B1B7813F0080F01D0D8
:402E0000092300E00A23704A11780B4313706022674B1A704FF400426C4B1A602C46A4E06B4A137843F0100313701022694B1A700422023B1A702C4697E00020FFF750FA2C
:402E40002C4692E014F0020F36D15D4B1A78D2B2584B1B78DBB29A4210D2594A1378DBB255490968CB5CDBB254490B7004214F4B197013780133DBB2137076E0514B1B78E1
:402E800013F0020F0CD0504A137843F00A0313706022474B1A704FF400424C4B1A6064E04B4A137843F0100313701022494B1A700422023B1A7058E0424B1B7813F0020F30
:402EC0000CD0414A137843F09A0313706022384B1A704FF400423D4B1A6046E03C4A137843F01003137010223A4B1A700422023B1A70354A137843F09003137035E0364A61
:402F00001378DBB2354908682C490978C9B2C15413780133DBB213701278D2B2304B1B78DBB29A4203D21022204B1A701DE0254B1B7813F0020F0CD0234A137843F009038E
:402F4000137060221A4B1A704FF400421F4B1A600BE01F4A137843F0100313700022134B1A7002E00020FFF7BBF914F0200F1CD00F4B1B7813F0080F01D0012300E0022376
:402F8000114A11780B431370114A137803F0EF0313701022064B1A7038BD054B1B7813F0100F02D11022024B1A7038BDD7490040CDA1FF1FD8A1FF1FDCA1FF1FD8490040B7
:402FC000D3A1FF1FD1A1FF1FD0A1FF1F80E100E0D6490040D9490040D2A1FF1FD4A1FF1FE0A1FF1F1A4B1B78DBB2102B29D1194B1B7813F0080F26D14FF40042164B1A6039
:403000004000C0B229B140F001004922104B1A7002E045220E4B1A70104B1870012201331A700F4B1B7813F0010FFAD00C4B1B7803F00A030A2B08D11022054B1A700320A2
:40304000704702207047012070470020704700BFCDA1FF1FD949004080E100E0D8490040D74900400A4B1B7813F0040F0ED01023074A13700421023A1170064A1370064B79
:403080001B7813F0210FFAD00020704702207047D9490040CDA1FF1FD7490040114B1B7813F0040F1BD0104B18700422013B1A7046220E4B1A700E4B1B7813F0010FFAD0AF
:4030C0000B4B1B7813F0020F04D16022074B1A70002070476022054B1A70032070470220704700BFD9490040D8490040CDA1FF1FD7490040014B1B681866704708ED00E073
:403100004001C0B2014B1870704700BF08E400E04FF48072014B1A60704700BF00E100E04FF48072014B1A60704700BF80E100E010B50446FFF7F4FF2046FFF7DBFF07208D
:40314000FFF7DEFFFFF7E4FF10BD00BFF8B501F053FC0746484A137843F0010313701032137843F0010313700126444B1E700225943B1D7002F5E2521B32137803F07F0340
:4031800013700020FFF7C4F83D4C237803F0F90323703C4A137803F0DF0313702378334323703046FFF7B4F82820FFF7B1F8364B1A7802F07F021A701A7802F0BF021A7029
:4031C00023782B4323702846FFF7A2F8237843F00403237000232D4A137001321370384601F00EFC07211720FFF7B0F828491720FFF798F807211820FFF7A8F825491820BA
:40320000FFF790F807211520FFF7A0F822491520FFF788F807213046FFF798F81F493046FFF780F807212846FFF790F81C492846FFF778F807210320FFF788F8194903200C
:40324000FFF770F807210420FFF780F816490420FFF768F807210520FFF778F813490520FFF760F807210C20FFF770F810490C20FFF758F8F8BD00BFA54300409D60004085
:403280009443004012600040F851004084600040E93D0000593B0000E53D0000CD3C0000FD3C0000313D00006D3D0000A93D00008540000010B5002304E00124264AD4542E
:4032C0002344DBB2022BF8D9244B18700023244A1370244A1370244A1370244A1370244A1370244A1370244A1370244B4FF400021A604FF080721A604FF400121A6002225F
:403300001A6004221A6008221A6010221A6020221A6011B1012906D00BE0194A137803F0FE0313700AE0164A137843F00103137004E0134A137843F0010313700322114BBF
:403340001A708022203B1A70012001F04DFB04220D4B1A7010BD00BFA0A2FF1F10A2FF1F16A2FF1F14A2FF1F15A2FF1F11A2FF1FFCA1FF1F13A2FF1F8CA2FF1F00E100E033
:4033800009600040286000401260004038B504460D46064B1B7823B9FFF7D8FE0122034B1A7029462046FFF785FF38BD2090FF1F002304E001210E4AD1540B44DBB2022B18
:4033C000F8D900230B4A13700B4A13700B4A13700B4A13700B4A13700B4A13700B4A137003220B4B1A708022203B1A70704700BFA0A2FF1F16A2FF1F14A2FF1F15A2FF1F10
:4034000011A2FF1FFCA1FF1F13A2FF1F8CA2FF1F28600040014B1878704700BF15A2FF1F00EB40008300024A13445878704700BF20A2FF1F431EDBB2072B0BD8064B000126
:403440001A18185C00F00F00537843EA0020023880B2704700207047FC5F0040431EDBB2072B3CD8F0B4074600EB4004A3001C4C2344DB889BB2C3F500739A4208D900EBB1
:40348000400293002344DA8892B2C2F5007292B200EB4004A300124C2344DB7843EA1223104D04012E192B55D3B2737039B909E0CE5C3D010C4C665501339BB200E0002306
:4034C0009A42F5D8420002449300054A134400225A705A79D2B20001044B1A54F0BC704720A2FF1FFC5F004078600040FE5F0040431EDBB2072B0BD8420002449300054A61
:40350000134400225A705A79D2B20001024B1A54704700BF20A2FF1FFE5F004070B5D9B1054614460E46C8B1082819D8FFF782FFA04203D22846FFF77DFF0446002305E0A0
:403540002901094A525CF25401339BB2A342F7D32846FFF7CDFF04E0002402E0002400E00024204670BD00BF78600040431EDBB2072B06D80001044B185C00F01000C0B2CA
:4035800070470020704700BFFE5F00400246002001E0013080B2135C002BFAD1704700BF10B4FF2400230EE0094AD25C02EB42029100084A11448A7AD2B2824201D11C4638
:4035C00002230133DBB2012BEED9204610BC7047F4A1FF1F20A2FF1F10B5204C2079FFF7DFFF237813F0800F0ED06378DBB2212B2FD11B4B07221A80C0EBC000194A1044CE
:40360000586000F017FB10BD144B5B78DBB2202B02D0222B10D01EE0114A07231380C0EBC00310490B4453600F4A135C43F00103135400F027FB10BD084B9B780B4A22F801
:403640001030094A135C43F00203135400F0B0F910BD002010BD002010BD00BF0060004004A2FF1FC48EFF1FECA1FF1FE4A1FF1F10B500241F4B1C701F4B1C705C700AE0FD
:403680001E4B185DC0B2431EDBB2072B01D8FFF72FFF0134E4B2012CF2D9194B1B7813F0FF0F1AD0154B1B7813F0FF0F17D0154B1B7813F0FF0F14D0114B1B78DBB2082B66
:4036C00011D80E4B1B78DBB2082B0ED80D4B1B78DBB2082B0BD8002010BD012010BD012010BD012010BD012010BD012010BD012010BD00BF2190FF1FECA1FF1FF0A1FF1F58
:40370000F8A1FF1FF4A1FF1F2DE9F8438046234B1B78234AD65CF6B2FFF738FF05460027344606EB460293001E4A13441B899BB29D4209D906EB460293001A4A1344B3F838
:4037400008901FFA89F900E0A9464A4608EB07013046FFF783FEC9EB0505ADB245B906EB460293000F4A13441B899BB2994510D14F44BFB204EB440293000A4A13445B783E
:4037800013F0FF0FF6D025B9002211463046FFF765FE002DC4D1BDE8F88300BF2190FF1FF8A1FF1F20A2FF1F08B5034B1B78034AD05CFFF735FE08BD2190FF1FF0A1FF1F82
:4037C00008B5034B1B78034AD05CFFF729FE08BD2190FF1FF8A1FF1F08B5084B1B78084AD35CDBB203EB43018A0006490A44128992B201461846FFF791FE08BD2190FF1FA3
:40380000F0A1FF1F20A2FF1FC37803F0030390F9020000280FDA032B06D002F001030B48C15442F001020EE0C2F380030848C15442F0040207E0032B05D0C2F340030548A0
:40384000C15442F002021046704700BFF8A1FF1FF4A1FF1FF0A1FF1F1D4B19781D4A13889BB20B449BB2138000220FE01A494B681B78DBB2194883544B6801334B6001325D
:40388000D2B20B889BB2013B9BB20B80124B1B889BB20BB1072AE9D90D4B1B78DBB2082B00D05AB10E490B7883F080030B700F210C4B197002210C4B197004E00223094955
:4038C0000B7009490B70094B1A70014B1A7070478CA2FF1F94A2FF1F04A2FF1F0060004012A2FF1FFDA1FF1F16A2FF1F8DA2FF1F0222074B1A708022064B1A700F22064B61
:403900001A700023054A1370054A13700120704716A2FF1F12A2FF1FFDA1FF1F8CA2FF1F8DA2FF1F08B5FFF797FF08BD10B4194B197801F00F010239C9B2174A13889BB29A
:403940000B449BB21380002011E0144A5468144B1B5CDBB223705368013353600130C0B20139C9B213889BB2013B9BB213800B4B1B889BB20BB10029E7D10A4B19700A4AE4
:40398000137883F0800313700B22084B1A7010BC704700BF2960004094A2FF1F04A2FF1F006000408DA2FF1F12A2FF1FFDA1FF1F0623064A1370064A13708022054B1A7010
:4039C0000022054B1A700120704700BF16A2FF1FFDA1FF1F12A2FF1F8DA2FF1F064B9B6843B1054B9A6810709A6804490988518000229A60704700BF04A2FF1F94A2FF1F0E
:403A000008B5134B1A78D2B21A701B78DBB213F0800F02D00F4A137008BD0220FFF7DEFF0D4B1B7803F06003202B05D0402B06D043B900F019FE06E000F0E6FF03E000F07E
:403A4000BDFF00E0002010B90322024B1A7008BD28600040FDA1FF1F0060004008B5094B1978094A13889BB20B449BB213800022064B1A700120FFF7B1FF0322044B1A700E
:403A800008BD00BF8CA2FF1F94A2FF1F16A2FF1FFDA1FF1F08B50B4B1B78DBB2042B06D0062B07D0022B0BD1FFF7D8FF08BDFFF73DFF08BD0320FFF791FF0322024B1A70D9
:403AC00008BD00BF16A2FF1FFDA1FF1F08B50022044B1A700120FFF781FF0322024B1A7008BD00BF16A2FF1FFDA1FF1F08B50B4B1B7813F0FF0F07D0084A137843F080032E
:403B000007490B70002313700022064B1A700120FFF764FF0322044B1A7008BDFCA1FF1F0860004016A2FF1FFDA1FF1F08B5094B1B78DBB2042B06D0062B07D0022B07D1A2
:403B4000FFF7F0FE08BDFFF7C1FF08BDFFF7CEFF08BD00BF16A2FF1F08B5284B1B78DBB213F0100F48D013F0800F0CD003F00F03012B16D1FFF744FF214B1B7813F0800F2A
:403B800011D1012312E013F0400F03D0FFF7CEFF01230BE013F0200F07D0FFF77BFF012304E0002302E0002300E0002323B3134B1B7813F0800F1FD1124B1B78124A12784B
:403BC0001343124A13701278D2B2934214D10C4B1B78DBB2094A127812F0800F07D1084B1B78DBB2054A1370137803F00F03044A1278D2B29342EAD108BD00BF28600040FE
:403C0000FDA1FF1F12A2FF1F8DA2FF1F296000400022064B1A80064B9B682BB1044A916800230B7092685380704700BF94A2FF1F04A2FF1F08B50F4B1B889BB213B9FFF79A
:403C400057FE15E002220C4B1A7000220B4B1A70FFF7DEFF0A4AD179937943EA0123054A128892B2934201D2024A1380FFF7F4FD012008BD04A2FF1F16A2FF1F12A2FF1F38
:403C80000060004008B504220B4B1A7080220B4B1A70FFF7BDFF0A4AD179937943EA0123084A128892B2934201D2064A13800B22054B1A70012008BD16A2FF1F12A2FF1F22
:403CC0000060004004A2FF1FFDA1FF1F0122094B1A700F3B9B7C084B1B7B03F00303934204D0054AD37B83F08003D3730122024B5A7370470B60004020A2FF1F02220A4BE6
:403D00001A700F3B93F82230084B1B7E03F00303012B04D0054AD37E83F08003D3760122024B5A76704700BF0B60004020A2FF1F04220C4B1A700F3B93F832300A4B93F8AF
:403D4000243003F00303012B06D0074A92F8273083F0800382F827300122034B83F82520704700BF0B60004020A2FF1F08220C4B1A700F3B93F842300A4B93F8303003F044
:403D80000303012B06D0074A92F8333083F0800382F833300122034B83F83120704700BF0B60004020A2FF1F10220C4B1A700F3B93F852300A4B93F83C3003F00303012BD1
:403DC00006D0074A92F83F3083F0800382F83F300122034B83F83D20704700BF0B60004020A2FF1F704700BF08B5FFF7E1FA08BD08B50C4B18780138C0B200F0CFF90A4B55
:403E00001B79DBB29A1C00EBC20042680749CB5C02EBC3035B68596A0B78054A1380516008BD00BF15A2FF1F0060004000A2FF1F04A2FF1F08B50E4B18780138C0B200F0D0
:403E4000ADF90C4B1B79DBB29A1C00EBC20042680949CB5C02EBC3035B68DB69597813F8022B42EA012205490A804B6008BD00BF15A2FF1F0060004000A2FF1F04A2FF1F8C
:403E800010B500221A4B1A801A4B18780138C0B200F084F9184AD3781279D2B2911C00EBC1004168022A21D8DBB21448825C01EBC20149685A1ED2B2022A17D803F10053A7
:403EC000013B01EBC3000C4A9278D2B211F833309A420BD8406802EB4202910042185468034B5C60415A198092689A6010BD00BF04A2FF1F15A2FF1F0060004000A2FF1F91
:403F000008B55B4B1A79D2B21B7813F0800F4DD0574B5B78013B052B00F28E80DFE803F0212B3B8C8C03524BDB78DBB2212B09D1FFF75EFF4F4B1B889BB2002B7ED0FFF799
:403F400079FE08BD4A4BDB78DBB2222B78D1FFF771FF484B1B889BB2002B73D0FFF76AFE08BDFFF78DFF434B1B889BB2002B6BD0FFF760FE08BD022A68D83D4B9B7813F0F7
:403F8000FF0F65D13B4901230B803B4B1A444A60FFF750FE08BD022A5CD8364901230B80364B1A444A60FFF745FE08BD304B5B78DBB20A2B0DD00B2B2FD0092B4CD1FFF775
:403FC0005FFF2C4B1B889BB2002B47D0FFF75AFE08BD022A44D8264B9B7813F0FF0F41D1234BDB78DBB224498B54895CC9B2244B9B5CDBB2994203D20021214B995409E0B8
:404000001F4B9B5CDBB2012B04D91B4B9B5CDBB21B498B54FFF7CCFC08BD022A24D8144B9B78DBB2012B21D8114B9B78DBB213498B54FFF7BDFC08BD002008BD002008BD18
:40404000002008BD002008BD002008BD002008BD002008BD002008BD002008BD002008BD002008BD002008BD002008BD002008BD0060004004A2FF1F98A2FF1FA0A2FF1F68
:404080009CA2FF1F08B500F0A5FC08BD70B588B0054603AC174E0FCE0FC43368237035B322232B7003236B7001A8FEF767F9002402231AE008AA224412F81C2C08A901EBE6
:4040C000121111F8141CE954581C00212954981C02F00F0208AE324412F8142C2A54DA1CA9540134E4B20433DBB2212BE2D908B070BD00BFD898000010B401233EE0194668
:404100001A010C242148845403EB4300820020480244527912F0FF0F13D003EB430082001B480244127912F0800F04D01801194A024494700AE01801164A024408209070F1
:4041400004E01801134A0244802090704800084482000F480244D488E4B208010B4901448C71D088C0F30720C871D088C0B20871D288C2F307224A710133DBB2082BBED98F
:40418000FF22054B1A7010BC704700BF7060004020A2FF1FFC5F00400A600040074B1A78074B03EBC2035B681A7C824204D9C00010301844406870470020704710A2FF1F48
:4041C000EC980000F8B5404B1B7813F0FF0F79D03D4B18780138C0B2FFF7E0FF047AC2683A4B1878C0B200236AE01178884264D13749095CC9B25578A9425ED1917801F019
:404200007F01D67806F00306DFF8C8E04D000D44AF000EEB07054FF0000C85F803C092F802C085F804C092F803C00EF807C097882F8192F90250002D0DDA012E01D10727BF
:4042400000E00D274E000E44B500224E35446F7101266E700CE0012E01D1052700E009274E000E44B5001B4E35446F7100266E70DFF868E00F010EEB07060125B57001FA48
:4042800005F529448D00134929440D89C5F307250EF807500D89EDB27570CE88F6B20E4D3D44AE71CE88C6F30726EE71CE88F6B22E71C988C1F30721697108320133DBB21D
:4042C000A34292D3F8BD00BF15A2FF1F11A2FF1F00A2FF1F20A2FF1F70600040FC5F0040034B1A78034B03EBC2035868704700BF10A2FF1FEC98000008B5084B18780138CB
:40430000C0B2FFF74BFF30B142681279023200EBC203586808BD002008BD00BF15A2FF1F2DE9F047002310E0724D5900CA189600AC190022AA55A270E2702281A272627010
:4043400034462C4462710133DBB2082BECD940B90AE000226849CA546849CA540133DBB200E00023022BF4D9654B1B7813F0FF0F00F0BD80624B18780138C0B2FFF70EFFFA
:4043800080464368DB7913F0400F05D05D4A137843F00103137004E05A4A137803F0FE03137098F808704FF0000A01266FE0D8F80C50002467E0AB7803F07F039E425FD195
:4043C000314606EB460083004A4803441B899BB2A888834206D206EB460E4FEA8E03454A134418812B784448C35CDBB26878834246D195F802C0DFF8FCE04B000B4498009C
:404400000EEB000383F804C0EB780EF80030EB7803F0030395F90200002813DA012B02D14FF0070901E04FF00D09DFF8C8E04B0003EB010C4FEA8C00704480F805900121B6
:40444000417012E0012B02D14FF0050901E04FF00909DFF8A0E04B0003EB010C4FEA8C00704480F8059000214170AB790A2B01D0022B05D1524631462846FFF7C5F9824600
:4044800008350134E4B2BC4295D30136F6B2082E8DD9D8F80C0000220CE0837803F07F0310F8084B03EB43039900124B19448C720132D2B2BA42F0D3FFF71EFF124B18607B
:4044C000002301210FE00B4D4A00501884002C44E380228992B213449BB203F0010213449BB20131C9B20829EDD9FFF705FEBDE8F08700BF20A2FF1F00A2FF1F90A2FF1F92
:4045000015A2FF1F13A2FF1F1CA2FF1F08B5154B1B7903F07F035A1ED2B2072A20D8590019448A0010490A44917841F0010191700021D170517841F002015170127912F0DB
:40454000800F05D01B01094A1A448D23937004E01B01064A1A4489239370FFF729FA08BD002008BD0060004020A2FF1FFC5F0040274B1B7903F07F035A1ED2B2072A44D858
:4045800010B5590019448A0022490A44917801F0FE0191700021D1701F4C1801215C01F07F012154517801F0FD015170127912F0800F13D003EB43018A0016490A4452784F
:4045C000D2B2012A04D1224602440C23937019E01B01114A1A440D23937013E003EB43018A000C490A445278D2B2012A05D11B01094A1A440823937004E01B01064A1A440C
:4046000009239370FFF7D4F910BD0020704700BF0060004020A2FF1FFC5F004010B50E4B1C79E4B20D4B18780138C0B2FFF7B6FD43681B799C4201D9032C0AD8084A135DBB
:40464000DBB208490B55044B9B78DBB21355012010BD002010BD00BF0060004015A2FF1F00A2FF1F90A2FF1F10B59C4B1B78DBB200219B4A118013F0800F00F0AD80974A93
:404680005278D2B20A2A00F27481DFE812F06900720172017201720172010B007201920072019A008D4BDB78DBB2012B09D1FFF717FE42688A4B5A6012221A80FFF7BAFA89
:4046C00010BD864BDB78DBB2022B13D1834B9878FFF764FD002800F04E814268804B5A605A68D1785A68927842EA01221A80FFF7A1FA10BD794BDB78DBB2032B05D02CE00F
:404700000A7811440133DBB201E000237549734A9278D2B2934203D20A7812F0FF0FEFD16E4B9B7813F0FF0F0BD06C4B9B78DBB26D4A127C934204D16C4C2046FFF7A6FC24
:4047400021460B7813F0FF0F00F017810B78644A13805160FFF76EFA10BD00F055F910BD13F0030317D0022B40F009815C490B805A4B1B7903F07F0303EB43039A005C4BE1
:404780001A449278D2B25B4B1A7000225A704B60FFF750FA10BD524902230B80564B1A78D2B2544B1A7000225A704B60FFF742FA10BD4B4B01221A80504A5A60FFF73AFAA7
:4047C00010BD474A01231380444B1B794C490B445360FFF72FFA10BD404A5278013A0A2A00F2CF80DFE812F04C00CD009800CD000B00CD00CD00CD001300CD003000374BAF
:404800009B78DBB23F4A1370FFF7D2F810BD334B9B7803F0FF041BB1601EC0B2FFF7BEFC04B110B9002C40F0AE80344B1B78DBB29C4206D0314B1C700120334B1870FFF7CC
:404840006FFDFFF7B5F810BDFFF7E8FE002800F09C80224A1379DBB21279D2B22B490A702B4AD25CD2B22649CB5CDBB29A4204D00122254B1A70FFF7A5FCFFF799F810BDC8
:4048800003F00303012B17D04BB1022B7FD1134B9B7813F0FF0F7CD1FFF76AFE10BD0F4B9B78DBB2012B76D1134A137803F0FD031370FFF77DF810BD084B1B79DBB2022BD5
:4048C0006BD8064B98781B79DBB21249CA5C22EA0002CA54FFF76CF810BD00BF0060004004A2FF1FFC990000D49B0000BCA2FF1F20A2FF1F2490FF1F13A2FF1F15A2FF1F22
:4049000000A2FF1FFCA1FF1F14A2FF1F11A2FF1F90A2FF1F18A2FF1F03F00303012B17D04BB1022B3BD1224B9B7813F0FF0F38D1FFF7ECFD10BD1E4B9B78DBB2012B32D170
:404940001C4A137843F002031370FFF731F810BD174B1B79DBB2022B27D8154B98781B79DBB21549CA5C22EA0002CA54FFF720F810BD002010BD002010BD002010BD0020ED
:4049800010BD002010BD002010BD002010BD002010BD002010BD002010BD002010BD002010BD002010BD002010BD002010BD00BF0060004013A2FF1F18A2FF1F044B1B780F
:4049C00013F0800F01D0024B5B780020704700BF00600040024B1878C0F38010704700BF8F450040000000000230800803D000BF01380046FCD17047EFF3108072B67047B4
:404A000080F31088704700BF08B5164B1B7803F00303012B02D0022B04D00FE0114B1B79DBB20CE00F4B1B7903F07F0303EB43039A000D4B1A44937ADBB200E00023032B42
:404A40000CD80A4A1268D35C022B04D0032B07D1FFF756FA08BDFEF7BFFD08BD002008BD002008BD0060004020A2FF1F1CA2FF1FF0B505468DB0002800F0248100210C226E
:404A8000684601F093FB00210C2203A801F08EFB0021142206A801F089FB002328460B9301F0B1FC00286C46C0F20C81284601F0BDFC2846694601F07FFD0028C0F20281F6
:404AC000824B019903F1480218681E46884202D80C339342F8D1B388019F0B96B7FBF3F7384600F039F9BDF808100446C900784301F0D8FB202C4FEA4000B3680CD0213088
:404B00001A461446D218D11A8142FAD9241A5A1E22421DD0E4181BE01C4601301A460127D118824202D801370A46F9E70198B188C31A9A1AB2FBF1F0BDF808104001C90080
:404B400001F0B0FBB36840005F433F1AADF81070019B47F6A7721B1B934201D801220EE0B3F5803F01D2042209E0B3F5800F01D2062204E0564A934294BF0B220C228DF830
:404B80002020544A019E0693079402F1500017681146B74202D808328242F8D1621E0879D2184B79ADF8000000FB03F1B4FBF1FC01FB1C4EADF824C0B2FBF1FC01FB1C21F0
:404BC000BEFBF3FEB1FBF3F18DF821E08DF82610B4FBF3FEB2FBF3F103FB1E4403FB1122013401328DF822408DF82720ADF828C0ADF8023001F084FD0446002862D0364B62
:404C000000271A8A002101F0D1FA84F8BE719DF8212004F5DE7384F8BF21BDF824009DF8221000F4407001F03F01033341EA90015970BDF824105A1C5170531C9DF8202011
:404C40005E1C5A709DF82620731C7270BDF828109DF8272001F4407102F03F0242EA91025A70581CBDF8283043700799023001F03FFB06F10800069901F03AFB04F5FF701C
:404C80004AF6552101F03EFB2846394622463B4601F05CFCB84214BF4FF0FF363E46204601F044FD76B94FF40073ADF80E300B9B0CA99B88284621F8243DCDF814D002F0CF
:404CC0003BFA01E04FF0FF300DB0F0BDE89B0000FF03FB00309C0000E0A2FF1F10B5002101F03AFFBDE81040FFF7C2BE0C2802D0102805D102E001EB510070474800704776
:404D000088007047036840689B685B6AB0FBF3F0704710B5046D836CE4B199421AD3E318994217D2013B99420CBF4FF0FF31013172B190F836300C2B02D0102B05D102E043
:404D40000905090D03E089B201E021F070411160012010BD002010BD40F6F473984201D80C2070474FF6F473984294BF102020207047027F8368023902FB01307047431EE2
:404D8000DBB21F2B13D92F2811D007D826280ED002D8222809D10AE02A3804E03A2804D33F2804D95B38022801D90120704700207047034638B30B2A01DD0B2200E0013A6D
:404DC00000201CE0082809D191F808C0BCF1200F0DD04FF02E0C03F801CB08E038B991F800C0BCF1050F02D1ACF1200C04E011F800C0BCF1200F01D003F801CB01309042A0
:404E0000E0DB00221A7070472DE9F04788B005AE04460D463046114600229A469DF84490BDF84C80BDF8507000F01EFD08B1002413E020462946524600F00FFE044660B1B1
:404E4000129B31460093109A4B46CDF80480029700F0C6FF284601F07DFC204608B0BDE8F08710B59DF80C400394BDE8104000F0D9BD00002DE9F04F144E87B0109DDDF86F
:404E800048809DF84440376800950194CDF8088005937F68934682468946B84732680C4BDDF814C09A420DD060B9504649465A46634610951194CDF8488007B0BDE8F04FC1
:404EC000FFF7CFBF07B0BDE8F08F00BFE08EFF1F809C000070B5C37A04460B7010300D4601F014FA064604F10E0001F00FFA40EA0640686004F1120001F008FA0004A860AC
:404F000004F1180001F002FA064604F1160001F0FDF940EA0640E86004F11C0001F0DDF9286170BD2DE9F845038A04460E46924687692BB907F118002146626900F064FC37
:404F400038465146224600F0E7FC0546204600F065FCD5B12B78C3B1E52BF1D095F80B80B8F10F0FECD018F00808E9D170692946B269FFF71EFF28463146FFF7ABFF238A5C
:404F8000404601332382BDE8F8854FF0FF30BDE8F885022201F05ABD2DE9F04790F8366005460C46304611469146FFF79FFEB5F81E80AB6A20FA08F89845824602D3002061
:404FC000BDE8F0876B8E05F118079844204641463A46FFF7DEFF204601F057FD18B14FF0FF30BDE8F087AA8BA168013A0AEA020A1FFA8AFA92450AEB01031AF8015001D053
:40500000013309E0204608F101013A46FFF7C1FF204601F03AFDA36818780C2E45EA002009D0202E0FD15D7840EA05409D7840EA0560BDE8F08719F0010F02D00009BDE866
:40504000F0870005000DBDE8F08700002DE9F34190F83630144603FB02F7828B8846D200511E0F40D71B0546B7FBF3F7002618E00E4B93F88030022B05D12846214601AA89
:40508000FFF747FE28B9284641462246FFF784FF0190019B0134A34205D10136B6B2013F1C46002FE4DC3046BDE8FC81E0A2FF1F2DE9F34105460E46144698461F681CE0D5
:4050C000114B93F88030022B05D12846214601AAFFF71FFE28B9284631462246FFF75CFF0190737B0BB100240BE0AA6B019B0132934204D81BB1013F1C46002FE0D1C8F817
:4051000000702046BDE8FC81E0A2FF1F73B504680E4623681BB9FFF7F5FD013039E0FFF7F1FD236998423CBF4FF0FF3323612369B3F1FF3F04D12268013323616261E38376
:405140002169E28B451A954234BF2B4613463BB16069C918C018D21A60612161E283ED1A0DB9284615E002AB43F8045D31466269A068FFF79DFF6061019B21690246C91ADC
:405180004D19256123B9A0683146FFF75FFFE08301987CBD13B502AC44F8043D2346FFF787FF019B002B18BF00201CBD2DE9F0410746884615461E460024384641462A46F6
:4051C0000123FFF7E7FF30B1BA6B0134944201D80546F2E7002406B134602846BDE8F0812DE9F74F04460D461E461746002A00F0B98090F836001146FFF778FDB4F81EA0B7
:40520000A36A20FA0AFA9A45814680F0AB80638E04F118089A44284651464246FFF7B9FE284601F032FC6B7B002B40F09B80A38BAA68013B09EA03091FFA89F303EB0209F2
:4052400026B9216C8F4203D2276401E0791C216494F8361010290AD0202911D1484601F03CF831460746484601F042F84EE0484601F04CF8B1B20746484601F043F845E0D6
:4052800028460092019301F065FA009A019B17F0010F13F802B01BD00BF00F0141EA06119954A28B013A934202D009F1010309E028460AF101014246FFF76BFE284601F034
:4052C000E4FBAB681F7832093F0147EA1B171CE09E54A28B013A934202D009F1010309E028460AF101014246FFF753FE284601F0CCFBAB681A78310A02F00F0701F00F011A
:4053000022F00F024BEA07270A431A70284601F021FA94F83630202B18D1B4F84620AAB9B4F84410284601F091FB284601F0ADFBA8684FF0FF3100F5F47000F0D9FF2846FB
:4053400001F008FA4FF00103A4F84630E36BB3F1FF3F09D00FB10133E3632EB1E36B013BE36301E0012000E00020BDE8FE8F6FF07043FFF735BF70B5036D04460E4693B14C
:40538000002506E0AA1820463146531CFFF728FF0135236DA26C013B9D42F3D320463146AA18FFF7E4FF0023A3642365E364636570BD70B506460D461C460AB1FFF710FFB6
:4053C000304629462246BDE87040FFF7D0BF00002DE9F84504460E4615461F46002B36D01C4B93F88030022B31D190F8368011464046FFF77BFCB4F81CA00AF1FF3A2AEA9B
:40540000000A4FEACA0ABAFBF8FAAA44A8460EE0204631464246FFF7BFFD50B9A36C0BB9C4F84880E36C08F101080133E364D045EED9E36C5BB167653B685A6922B12046FF
:4054400031462B46FFF7CCFE236D01332365BDE8F88500BFE0A2FF1F2DE9F8459846274B054693F880300F46022B1646846B19D1436D984503D0C36C0BB1FFF77CFFB8F172
:40548000000F0FD06B6D43450CD12B6DEA6C9A4204D9AC6C1C1901332B652CE028463946FFF769FF012E04F1010A01D9564505D92E6C012E01D9564500D902263446284609
:4054C00039462246FFF768FD50B101345445F6D902240DE0284639462246FFF75DFD30B92846394622464346FFF772FF03E00134B442EFD300242046BDE8F885E0A2FF1FCA
:40550000F8B507460E461546FFF7A6FF044628B1384631462A462346FFF74BFF2046F8BDB2F1FF3F73B504460D4614D0561A013611D001F09BFA084B00211A8AA06800F033
:4055400035FE022300936068A3682946324600F0F3FF0023E3737CBDE0A2FF1F2DE9F84F984690F8363004460C2B0D4616465AD04FF0FF3AD1463CE094F836003146FFF7F5
:40558000B5FBB4F81CB0678E0BF1FF3B10EA0B0BE38B1DD1D840013F3F1802222846394601F054FAA38BAA689B0852F80B1079B9013B0BF1040BF8D13BE0494628465246F3
:4055C000FFF7AEFFB946BB46284601F0C6F8DA462946324601232046FFF7DCFD29460746324620460023FFF7FBFD2FB108F1FF383E46B8F1000FBFD1284649465246FFF779
:405600008FFF13E02946324601232046FFF7C2FD29460746324620460023FFF7E1FD2FB108F1FF383E46B8F1000FEBD14046BDE8F88F0AF1010B5F45BFD1C5E72DE9F8453E
:40564000054601F05DF8044608B90546D0E0284600F09EFF684E338A834208D338B10021284622460B4600F000FF002804DA204601F05CF80025BBE004F5FF7000F046FE58
:405680004AF65523984240F0AD8004F10B0000F03DFE10F47E4F074600F0A480338A8342C0F0A080237C022B40F09C8094F80D80B8F1000F00F096800021402205F11800CC
:4056C00000F074FD04F1130000F020FE064620B904F1200000F001FE064604F1160000F015FE824680B904F1280000F00FFE10F08F0F77D104F1240000F0EFFD824604F1FD
:405700002C0000F0EAFDE862022385F83530C5F828A0AE6185F8348004F10E0000F0F6FD688604F1110000F0F1FD95F835206B8E288602FB0A3A7A0992B2B0FBF2F25244E2
:40574000AF832A62092301219940B94201D1EB8302E00133102BF6D108FB07F7B61AB6FBF8F6AE636F623046FFF7F6FA202818BFC5F82CA04FF0FF33202885F83600EB63E1
:4057800032D104F1300000F0C1FD00230146A5F844002246284600F068FE002822DB204600F09BFD804604F5F27000F096FD074604F5FE7000F091FD104B984514D1104B3B
:4057C0009F4211D10F4B98420ED104F5F67000F084FD286404F5F47000F07FFDB04203D8E86301E0002500E00125204600F09EFF2846BDE8F88500BFE0A2FF1F5252614162
:4058000072724161000055AA00238B60837F202B01D102B942694A600A60704783680133836070472DE9F0410C46202105461F469DF818604FF0000800F0B8FC10E014F84E
:40584000080036B9E52804D1B8F1000F01D1E03802E000F020FDC0B205F8080008F10108B845ECDBBDE8F0812DE9F74506460D4608462849002A14BF92464FF0FF3A00F07E
:40588000CBFC804650B930462946022200F0A7FEB01C2021092200F089FC37E04FF0FF34002715F80780B8F1000F01D0574505D1B4F1FF3F08BF3C4664B925E04046FFF7FE
:4058C0005EFA08B3B8F12E0F08BF3C4601370D2FE7D119E0082C17DC3F1B042F14DC30462946082223464FF00008CDF80080FFF799FF0123611C009306F108006918032232
:405900007B1EFFF78FFF01E04FF001084046BDE8FE8500BF909C00002DE9F74FD2F808B0436A4FEA4B18B8FBF3F8D368054698450E461446D2F8009001D20023D360B5F882
:405940001EA0E368AAF1050A0BB9D4F804902BFA0AF7B9F1000F17D095F83420B8EB0303019206D04A4628463146FFF713FC814640B3494605F11800FFF7FBF9019B591EC9
:4059800001EA0707C11906E02B8E43FA0AF39F4218D2E96A79183046C4F80090C4F80C80012201F053F8304601F06FF850B9013000FA0AFAB3680AF1FF3A0AEA0B0B03EBD6
:4059C0004B1000E00020BDE8FE8F2DE9FF4107460E4601A811461A460A9D9DF82C40FFF743FFC8B9384631462A46FFF795FF8046A0B1037883B101A90B2200F0C7FB38B933
:405A000098F80B3004EA0302A24201D1082B05D12846FFF703FFE5E74FF00008404604B0BDE8F0812DE9F04587B002AF04460E46154698469DF83CA039460E9A1830FFF740
:405A4000E3FE204631462A4643460097CDF804A0FFF7BBFF07B0BDE8F0852DE9F04500F1180785B005460C46384669469246FFF7CBFE284621466A46FFF74EFF064668463B
:405A8000E846FFF7CBFE002E37D1BAF1000F02D12B8E002B35D12146009A00232846FFF785FB2146024600232846FFF729FD8046204600F0E6FFB8F1000F22D0AA8B0021E7
:405AC000A06800F073FB38464146FFF752F995F8347000257E1E361808E031462046012200F0B4FF204600F08DFF013E01357B1BB3F1FF3FF1D1A66803E033780BB1E52B36
:405B0000B7D1304605B0BDE8F08538B504461A3000F0FCFB054604F1140000F0F7FB45EA004038BD2DE9F0451D4685B007460E462A6010465C21904600F0B9FB4FF0000AF2
:405B40000446A04508D108F10108C5F8008040465C2100F0ACFB044694B1C8EB0403002B0EDD10220192103A0292384631464246CDF800A0FFF77EF970B1FFF7C6FF82464F
:405B800028685C2100F093FBA04604460028D8D10C9B0130C3F800A005B0BDE8F085F8B505460C461E461746DAB16FF01A031370084600F0CFFD16B94FF47A7608E007F1D6
:405BC0001C0000F08AFB6B6A5E1E3618B6FBF3F63846FFF79AFF2146024633462846FFF7BDFC607BF8BD00002DE9F04FD1F8008093B0D8F808700BAD044608930E464FF0A0
:405C0000FF333946284609920F939DF870A000F001FE10AB009338462946224611ABFFF781FFD0B1F27A109B07920FAA00930292002338462946119A0193FFF71BF90446EB
:405C400080B1C37A13F0100F07D10D9BDDF82CB0C3EB00094FEA691906E0284600F008FF0125A3E083468146099B002B3CD0002C33D0524B5D6912E02B687BB1AA7A6AB110
:405C80009A8B4A450AD19A695A4507D19B68BB4204D14FF6F772328100257EE0ED68002DEAD10DF12C0C6146384622460123CDF818C0FFF774FFDDF818C018B14FF0FF3311
:405CC00033816AE03E4B1B68DC6824B138466146109A0F9BA0472C4606E0BAF1000F03D1089A002A44D065E0089BEBB1CCB1E37A13F0010F0BD0079A12F0150F07D04FF62C
:405D0000FA733381BAF1000F01D1012500E000252046FFF7FAFE074604F11C0000F0DDFA29E0BAF1000F45D0BAF1010F01D000251BE0ECB901F09EFB214B20221B6801929B
:405D400082B2000C03920490009402949D6838460BA9119A109BA84750B10D9ADDF82CB0C2EB00094FEA6919254628462F4602E00125002007464FF0FF33C8F81030C8F856
:405D800018B0A8F81C90079AC8F8040012F0010308BF1846C8F800707060B6F908300BA835EA230528BF012500F062FE284613B0BDE8F08F01255046DCE700BFE0A2FF1FCE
:405DC000E08EFF1F70B505460C461A3089B200F099FA05F11400210CBDE8704000F092BA2DE9F0470446BDF824700D469146002120229A46BDF82860DDF8208000F0D6F9C7
:405E00000B222046294600F0EAFB04F10E00394684F80BA000F076FA04F11000314600F071FA04F11600394600F06CFA04F11800314600F067FA20464946FFF7C3FF04F154
:405E40001C004146BDE8F04700F052BA07B5426803460AB910460AE081680020009048681968DB6800F046FB003818BF01200EBD2DE9F047046805460F46A668FFF746F920
:405E800081468246002841D0D4F80080B8F1000F1BD14246304639462B46FFF7DDFA0246D8B11C4B6061C4F8108093F880302060022B07D030463946FFF759FA10B101204B
:405EC000BDE8F087B9F1010A20D03046394662692B46FFF7C1FA804628B94FF6FE732B810130BDE8F0870B4B93F88030022B05D03046394662694346FFF75BFA2369C4F83A
:405F0000148001332361BAF1010ADDE70020BDE8F08700BFE0A2FF1F2DE9F041836804460D4608460122A1699E8B00F08FFD2846B4F81C80AF6800F0A8FDF8B9013E06EACF
:405F40004816B6B2BE1906F11C00616800F0D0F921683046FFF736FF01F08CFA0446A1B206F1160000F0CEF906F11800210C00F0C9F92846BDE8F04100F083BDBDE8F08175
:405F80007FB50668B0F90830B568C3B9C37A13F0110F14D02946684600F03CFC30466946FFF7BAFF064B6C4693F88030022B03D128466946FFF7DFF9684600F059FD7FBD0E
:405FC000E0A2FF1F03682DE9F04F9F68038995B001339BB2012B04460E46059201D90025CEE0394610AD0CA800F014FC3946284600F010FC039626680023D6F808909A4671
:4060000009F118010791D9F82420059906924FF0FF32099308920A950291049320460CA9FFF726FF38B108A8FFF710FF5546002818BF00258FE03269069901324A43B9F84E
:406040001CB063680BF1FF3BD21A0BEA030B029B0798934228BF134601937169FEF789FE99F83430B9F81C206768013BB7FBF2F703EA0707C719B9F81C300199CBEB030571
:406080008D4228BF0D469D4228D0BBF1000F03D1626873689A420FD00DF1400840463946002200F0D3FC404600F0EFFC20B14FF6F9725546228154E01298039958442A463F
:4060C0000DF1400800F08BFA40463946002200F0BDFC404600F096FC90B141E0099B089A9A1897420AD008A8FFF7B0FE002837D101230993039B08970B9301E00133099330
:40610000029B03995B1B019A029363684919521BAA44ED186560736803919D42019207D91BB1194B93F880300BB9012104917560019A1AB101374FF0000B9CE7029B002B7F
:406140007FF46CAF08A8FFF781FE04995546002818BF002529B1304610A9FFF7DDFE00E05546059A954205D0B4F9083013B94FF6F87323810CA800F07BFC10A800F078FC34
:40618000284615B0BDE8F08FE0A2FF1F10B5002308E0C45C11F803C0013A0133644501D0012010BD002AF4D1104610BD70B5034602E003F8011C013A1C4622B103F0030570
:4061C0000133002DF5D193081ED04FF001354D4308E044F8105C44F80C5C44F8085C44F8045C043B032BA44604F11004F1DC1C46002603E04CF80650013B0436002BF9D1DD
:4062000002F003020CEB8404002302E0E154013A0133002AFAD170BD002310F803C0CA5C624501D0012070470133002AF5D110467047002300E00133C25C002AFBD11846DF
:40624000704710B500230BE0C45C11F803C0644501D0012010BDC4186478013314B1013A002AF1DC002010BD10B5002302E0C454013A013303EB000C0AB9002308E0CC5C2F
:40628000002CF4D1F9E700210CF80310013A0133002AF8D110BDA0F16103192B98BF00F0DF00704701384018B0FBF1F07047C9B203E00BB918467047013003788B42F8D143
:4062C000704742780178431C42EA01205A789B7842EA002043EA002070478378C27803EB0222437803EB0222037803EB0220704703460A0A03F8011B42700A0C090E5A7060
:40630000997070470170090A417070474278037843EA022070470000094A0A4BC11C10B5146821F0030118680919814201D9002010BD11609A685868013220189A6010BD0A
:4063400064A3FF1F2890FF1F08B5FFF7E5FF00B9FEE708BDFFF7E0BF30B1044A9368013B93600BB9024A1360704700BF2890FF1F64A3FF1F014B5860196070472890FF1F3C
:4063800038B50546FFF7E0FF002104462A46FFF70DFF204638BD000010B5084CA37C0BB1002010BD4FF40073238201F055F8A37C012043F00103A37410BD00BFE0A2FF1F64
:4063C00008B901387047036858687047FFF7F8BF08B583680BB10020984708BD08B583680BB10120984708BD10B504680079A468A04710BD37B59DF818500468007900953F
:40640000E468A0473EBD08B5036800799B69984708BD036810B55B69044623B10079984708B1002000E00120607110BD10B5437904460BB9FFF7EDFF607910BDF7B50446F6
:406440001F460E461546FFF7F1FF2046FFF7C6FF2A463146012320460097FFF7C5FF05462046FFF7B5FF2846FEBD10B504690919BDE81040FFF7E2BF2DE9F34104461546EC
:406480001F460E469DF82080FFF7D0FF2046FFF7A5FF2B4631463A462046CDF80080FFF7A3FF05462046FFF793FF2846BDE8FC8130B504699DF80C5009190395BDE83040A3
:4064C000FFF7DABFF7B5044615461F460E46FFF7ADFF2046FFF782FF0023009331462B463A462046FFF786FF05462046FFF770FF2846FEBD30B504699DF80C500919039549
:40650000BDE83040FFF7DEBFF7B5044615461F460E46FFF78BFF2046FFF760FF0123009331462B463A462046FFF764FF05462046FFF74EFF2846FEBD30B504699DF80C5030
:4065400009190395BDE83040FFF7DEBF73B504460E461546FFF76AFF2046FFF73FFF00232A460093314601332046FFF743FF05462046FFF72DFF002D14BF4FF0FF300020CF
:406580007CBD10B504690919BDE81040FFF7DEBF30B5054685B0FFF749FF2B6828791C694FF47B71002201ABA04708B1002001E0BDF80C0005B030BD70B506460D46FFF7AF
:4065C00035FF336830791C694FF47B7100222B46A047002814BF4FF0FF30002070BD11F0030F70B584460B4632D110F0030F2FD195100446AC4611E053F8106CACF1040C91
:4066000044F8106C53F80C6C44F80C6C53F8086C44F8086C53F8046C44F8046C10341033BCF1030FE8D8AB081B0100EB030CCB1815F003050AD0284600215C584CF80140F4
:4066400004310138F9D1AD00AC445B1902F0030213F0010F19462FD11CF0010F60462BD15410254610E031F8086C043D20F8086C31F8066C20F8066C31F8046C20F8046C3B
:4066800031F8026C20F8026C08300831032DEAD8A108C9005B1814F003048C440AD0204600215D5A2CF8015002310138F9D16400A4441B1902F00102614610E013F8040CB0
:4066C000043A01F8040C13F8030C01F8030C13F8020C01F8020C13F8010C01F8010C18460433032A8C4601F10401E7DC32B10023C15C0CF8031001339342F9D170BD00006B
:40670000094B10B5D8689A68002308E0114652F8084B1CB901230B60486810BD01338342F4D3002010BD00BFE0A2FF1F084B30B50022DC689B6808E05D6819460833854263
:4067400002D100230B6030BD0132A242F4D330BDE0A2FF1F01230373704700230373704710B1002282720260704718B1027B0AB1013A02737047034608B901387047012A42
:4067800003D0022A03D062B105E0426801E002685268891805E04FF6FD7202814FF0FF3070475A688A4201D1002070474FF0000259601A8100207047FFF7DDBF38B5FFF766
:4067C000EBFD20B3124C4200E2600001FFF7D8FD238AA060E0685843FFF7D2FDA568E168228A002304E005EBC3046060013380188B42F8D31020FFF7C3FD054C60612820B7
:40680000FFF7BEFDA37CA06143F00203A37438BDE0A2FF1F38B510220D4600210446FFF7C5FCFFF76DFF08B9013038BDA0604FF0FF33002065602360A07338BD38B5837AFB
:40684000044643B10568FFF79BFB2846FFF78DFF2046FFF785FF002038BD08B50368827A03B19B6822B11BB1FFF7E8FF002008BD012008BD08B901307047FFF7EEBF00008E
:4068800038B5104B9C69217B59B921606160A16004F110001422FFF789FC237B013323730DE0656A45B92820FFF754FD606218B129462822FFF77AFC646A002CE3D120466F
:4068C00038BD00BFE0A2FF1F38B50E4B5C69A17AE56839B920461022FFF768FC0123A372E5600CE045B91020FFF734FDE06018B129461022FFF75AFCE468002CE7D12046A2
:4069000038BD00BFE0A2FF1F2DE9F74F06460020884691469B469DF830A09DF83470FFF7AFFF054608B9044610E0FFF7CDFF044660B180F80B900560AE6040462146524605
:406940003B46CDF800B0FFF74FF930B12046FFF707FF2846FFF709FF00242046BDE8FE8F2DE9FF410C461F4604A9002341F8043D15469DF8286000F0EFF88046B8B1039B05
:406980000BB11B789BB1404600F06FF900280EDD14F0150F01D0032809D1039939B1404622462B4600970196FFF7AEFF00E0002004B0BDE8F08100002DE9F3410646884669
:4069C00000240E4D404655F83410E700FFF724FC10B9002C04DA0DE001340F2CF1D109E07D19A87929790090EA796B793046FFF7B7FF00E00020BDE8FC8100BF949C0000C6
:406A0000FFF7DABF10B5437B04460BB1012010BD40682168A268A37BFFF7B3FD10B10120607310BD207310BD10B5437B044663B9037B53B140682168A268A37BFFF7A1FD17
:406A400008B1012363730023237310BD036870B5994204460D46164607D0037B0BB1FFF7E3FF00232560A673E37370BDFFF7DCBF10B50446FFF7D8FFA068BDE81040FFF7EC
:406A800055BE01230373FFF7CFBF10B50446407B08B1012010BDE37B5BB960682168A268A37BFFF7E2FC10B10120607310BD0122E27310BD30B592B188B1857A046875B1BC
:406AC0006CB190F80BC01CF0080C04D14FF6FB720281604630BDBDE8304000F079BB002030BDFFF7E7BF08B5436813B94FF0FF3008BD984708BD0000F8B50C4617460023FD
:406B0000144D01E0ED6D01338342FBDB2B6828791B68984706460CB92046F8BDFFF789FB0530B84214DC22460020335C013223540130315C0029F8D113464FF03A0C03F845
:406B400001CB2C7903303034547083F801C09970F8BD00BFFCA2FF1F2DE9F0470F463A210646FFF7A4FB044610B93446174D27E00378C6EB000A5BB114F8013F43B16278A2
:406B80003A2A05D1A3F130085FFA88F8023401E04FF000080D4D2B6828791B6898478146FFF747FB504508D1484631465246FFF748FB10B92B79434502D0ED6D002DEAD15C
:406BC00007B13C602846BDE8F08700BFFCA2FF1FF8B5174C064694F85B10E56D69B9602201272046FFF7E2FA84F85B70E5653046FFF779FF00280EDA18E045B96020FFF7A2
:406C0000A9FBE06518B129466022FFF7CFFAE46D002CE0D10AE0074B2660DA6F0132DA670323207184F85B7084F85A302046F8BDFCA2FF1FE0A2FF1FFFF7CABF38B5044614
:406C40000D46FFF7E0FB08B9013838BD2046FFF7EDFB204600F0DEFB2046FEF7EFFC08B184F8595094F8590038BD90F8593023B990F85A1009B1FFF7E1BF1846704730B567
:406C80001346BAB1B0B10268857A0AB1946804B900247DB172B16CB1C27A12F0100204D14FF6FA730381104630BD1A46BDE83040FFF788B9002030BDFFF7E1BF2DE9F04FFE
:406CC0008FB08B469DF86010069207930991BDF86420BDF86C309DF8701005460B92BDF868800C930D91FFF78EFB0028C0F2DF81002385F85930FFF703FD0446002800F018
:406D0000D481AC4B1B8A4345C0F0CF81B8F1000F00F0CB81079A06994FEAC803002A08BFFF220A93A44B0792002908BF3F2102220C9F144606912A4684461D460C996B6945
:406D40008F422E7C00D13FB9202E03D0DDF82CA0012708E0374604E0202E02D0DDF82CA001E04FF0000A41464FEA4A1003920593CDF810C0FFF796FAC7EB0B090999C0EB3C
:406D8000090999FBF1F070430A99FFF78BFA09994000C0EB090999FBF1F906FB09F00A99FFF780FA039A0890059BDDF810C02CB940F6F471894508DD894601E0994504DA38
:406DC000013C083DB4F1FF3FB8D164466046002115464246FFF7EAF96FF01603204600F8033B08227549FFF73FFA04F10B004146FFF788FA099A04F10E0062733946FFF75E
:406E000081FA0223237404F111005146FFF77AFABBF5803F06D204F113001FFA8BF1FFF771FA04E004F120005946FFF761FA6FF00703637504F118000699FFF763FA04F1B1
:406E40001A000799FFF75EFA04F11C002969FFF74FFA202E6FF07F031DD084F82430A93384F8263004F127005549FFF741FA089B04F1160099B2FFF745FA524904F12B00BA
:406E80000B22FFF7F1F9504B504904F136000C2E18BF194624E084F84030A93384F8423004F124000899FFF723FA04F12C000221FFF71EFA04F130000121FFF723FA06239A
:406EC00084F8323004F143003D49FFF711FA3D4904F147000B22FFF7C7F93D4904F152000822FFF7C1F904F5FF71084607914AF65521FFF707FA0021284622460B46FFF76F
:406F000040FB0028C0F29F80202E08D10621002328462246FFF735FB0028C0F29480002142462046FFF742F9089A0223520000932846394623460692FFF7FEFA0028C0F220
:406F400082806FF00703237007330C2E6370A3700DD0202EE3700AD1201D6FF07041FFF7C7F904F108006FF07041FFF7C1F90223284639462246FFF704FB002863DB089B28
:406F80002846D91922460223FFF7FBFA00285ADB002142462046FFF709F9069AD119BAF1000F17D04FEA4A12012300932846B2FBF8F213E0E0A2FF1F3C9D0000C89D000048
:406FC00067452301549D0000D19D0000DA9D0000E39D00000123099A009328462346FFF7ABFA00282FDB202E31D1424600212046FFF7DCF820462F49FFF77AF904F5F270A2
:407000002D49FFF775F904F5F47009F1FF31FFF76FF9032104F5F670FFF76AF907984AF65521FFF76FF90121002328462246FFF7A8FA002807DB0721002328462246FFF72E
:40704000A0FA002803DA2046FFF770FB2DE02B6933B30D9B23B30021284622460B46FFF7EDF9E8B90C2E94F8C23102D0102E06D002E04FF0010B09E04FF00B0B06E0BBF540
:40708000803F34BF4FF0040B4FF0060B5B4507D0002184F8C2B1284622460B46FFF756FA2046FFF743FB002001E04FF0FF300FB0BDE8F08F5252614172724161F0B58BB0F4
:4070C00007AD044600210C222846FFF76FF8204600F0A0F920462946FFF76EFA23690BB163690893089911B94FF0FF3020E0BDF81E20BDF81C30BDF82460002000E0013070
:407100000C4D4FEAC00C05F1240757F83070B942F5D80CEB050090F82850408D00950190002003900130049020460296FFF7C6FD0BB0F0BD3C9D000030B504468BB00D46FD
:4071400000292FD0FFF75FF9002802DA4FF0FF302AE0204600F05EF9AA6807AB22B920461946FFF729FA02E007CA83E80700236923B16369089A9A4288BF08932978BDF8EC
:407180001E2000916988BDF81C300191BDF8241020460291A9880391A97904910899FFF78DFD01E0FFF78AFF0BB030BD07B5426803460AB910460AE08168002000904868FA
:4071C0001968DB68FFF774F9003818BF01200EBD2DE9F04F0368B0F9085095B0044689469F68002D40F0B78041685868814203D34FF0FF312181AFE0411A8A4228BF0A46B3
:40720000029222B94FF0FF322281029DA4E01B68002B00F0A080394610AE0CA8FFF7FAFA39463046FFF7F6FAD4F800B0029ADBF80870AA4607F118030693796A4FF0FF33E2
