:400000000080002011000000490300004903000008B5044B1A6803F53F5302331A6000F09BF900BFFA46004010B5054C237833B9044B13B10448AFF300800123237010BD4B
:400040006081FF1F00000000CC1E0000084B10B51BB108490848AFF300800848036803B910BD074B002BFBD0BDE81040184700BF000000006481FF1FCC1E0000C880FF1FFE
:400080000000000010B5044600F07CFD0028FBD0204600F01BFD10BD10B596B062B60221002000F065FB012000F0B0F900F0A4FB0028FBD0002000F0A9F900F0BBFC082225
:4000C0002649042000F0BCFB002411941294139414941594204600F099F9642000F0A4F9012000F093F9642000F09EF9204600F08DF9642000F098F9012000F087F96420C8
:4001000000F092F900F032FD0028FBD017E001A800F044FD16AB1844002300F8543C01A800F0D4FC01A911A801F0C1FE0C48FFF7A9FF11A8FFF7A6FF0A48FFF7A3FF00F0FD
:4001400015FD0028E3D1012000F060F9642000F06BF9002000F05AF9D4E700BF7C81FF1FD01E0000D41E0000FEE700BFF0B40022174611E050F82760F3B226F0FF0608E048
:4001800001EB420511F812406D78A5550132013BDBB2002BF4D101370F2FEBD9F0BC7047064B1B78DBB203F00701054A11701B09013213704422034B1A707047CF01004925
:4001C0006E5800407658004008B50A46002101F066FE08BD38B506221E4B1A705222A3F580731A701C4B1B78DBB21C4A13704FF4E1621B4B1A8041F25122023B1A8000247B
:4002000019250CE0174B1B7803F0010343EA440404F003044FF4F07001F0C6FD013D0DB1032CEFD115B90320FFF79EFF0E4A4FF4807313800723137000230C490B70482049
:40024000023108701370053213700222084B1A7038BD00BF004300400F010049A1460040224200402542004004400040064000400140004008B501F007FE08BD38B572B67B
:40028000234A137843F00403137000240CE0214D630019194A0011462A44084691882858FFF792FF0134E4B2072CF0D91A494FF09040FFF75BFF194A137843F002031370C7
:4002C0001032137843F0020313700A2214491548FFF7D0FF082214491448FFF7CBFF082213491448FFF7C6FF134A137843F008031370124C61232370FFF76CFF81232370D5
:40030000FFF74EFF0E220E490E48FFF7B3FF38BDE8460040E41E00004000004803500140A0000048F0510040AC00004812510040B400004822510040224300400048004098
:40034000A0430040B043004008B501F071FD03680C2B00D1FEE7FEE708B5104E104D16E029686B68AC68002204E051F8040B43F8040B0432A242F8D1E868002203E00021E7
:4003800043F8041B04328242F9D11035013E002EE6D101F053FDFFF77FFEFEE7010000004822000008B5104A104B1A60104A136843F40073136000230AE0032B03D80D4A67
:4003C00052F8231000E00C490C4A42F8231001332F2BF2D90A4B1A780A4B1A70074A0A4B1A60FFF74BFF08BD0004FA050CED00E014ED00E000000000490300000080FF1F9D
:40040000BC760040C080FF1F08ED00E0044A137803F0FD03400000F002001843107070472051004001BE704710B5044605E0084B186801F0B9FCA4F50044B4F5004FF6D850
:40044000034B586800FB04F001F0AEFC10BD00BFCC80FF1F08B5034B1B7A00FB03F001F0A3FC08BDCC80FF1F70B504460E46074B1D681F2802D90020FFF7D4FF04F01F04E5
:40048000103455F8240045F8246070BD08ED00E038B504460D46072902D90020FFF7C2FF1F2C02D90020FFF7BDFF04F01F0000F1604000F564406D01EDB2057038BD00BFED
:4004C000134B1B78DBB20360124A127843EA02230360114A127843EA024303600F4A127843EA026303600E4B1B78DBB243600D4A127843EA022343600B4A127843EA0243AB
:4005000043600A4A127843EA02634360704700BF0301004904010049EC4600400201004901010049000100490501004906010049F8B501F041FC0746484A137843F0010386
:4005400013701032137843F0010313700126444B1E700225943B1D7002F5E2521B32137803F07F0313700020FFF774FF3D4C237803F0F90323703C4A137803F0DF03137017
:400580002378334323703046FFF764FF2820FFF761FF364B1A7802F07F021A701A7802F0BF021A7023782B4323702846FFF752FF237843F00403237000242D4B1C70013336
:4005C0001C70384601F0FCFB07211720FFF760FF28491720FFF748FF07211820FFF758FF25491820FFF740FF07211520FFF750FF22491520FFF738FF07212046FFF748FFAE
:400600001F492046FFF730FF07213046FFF740FF1C493046FFF728FF07212846FFF738FF19492846FFF720FF07210320FFF730FF16490320FFF718FF07210420FFF728FFEC
:4006400013490420FFF710FF07210C20FFF720FF10490C20FFF708FFF8BD00BFA54300409D6000409443004012600040F851004084600040AD1100001D0F0000A911000017
:4006800091100000C1100000F5100000311100006D1100004914000010B5002304E00124264AD4542344DBB2022BF8D9244B18700023244A1370244A1370244A1370244AD0
:4006C0001370244A1370244A1370244A1370244B4FF400021A604FF080721A604FF400121A6001221A6002221A6004221A6008221A6010221A6011B1012906D00BE0194AC1
:40070000137803F0FE0313700AE0164A137843F00103137004E0134A137843F0010313700322114B1A708022203B1A70012001F03BFB04220D4B1A7010BD00BF4882FF1F4C
:40074000B881FF1FBE81FF1FBC81FF1FBD81FF1FB981FF1FA481FF1FBB81FF1F3482FF1F00E100E009600040286000401260004038B504460D46064B1B7823B9FFF7D8FE4B
:400780000122034B1A7029462046FFF785FF38BD8481FF1F002304E001210E4AD1540B44DBB2022BF8D900230B4A13700B4A13700B4A13700B4A13700B4A13700B4A137024
:4007C0000B4A137003220B4B1A708022203B1A70704700BF4882FF1FBE81FF1FBC81FF1FBD81FF1FB981FF1FA481FF1FBB81FF1F3482FF1F28600040014B1878704700BF40
:40080000BD81FF1F00EB40008300024A13445878704700BFC881FF1F431EDBB2072B0BD8064B00011A18185C00F00F00537843EA0020023880B2704700207047FC5F0040B7
:40084000431EDBB2072B3CD8F0B4074600EB4004A3001C4C2344DB889BB2C3F500739A4208D900EB400293002344DA8892B2C2F5007292B200EB4004A300124C2344DB78F6
:4008800043EA1223104D04012E192B55D3B2737039B909E0CE5C3D010C4C665501339BB200E000239A42F5D8420002449300054A134400225A705A79D2B20001044B1A5400
:4008C000F0BC7047C881FF1FFC5F004078600040FE5F0040431EDBB2072B0BD8420002449300054A134400225A705A79D2B20001024B1A54704700BFC881FF1FFE5F0040A1
:4009000070B5D9B1054614460E46C8B1082819D8FFF782FFA04203D22846FFF77DFF0446002305E02901094A525CF25401339BB2A342F7D32846FFF7CDFF04E0002402E05A
:40094000002400E00024204670BD00BF786000400246002001E0013080B2135C002BFAD1704700BF10B4FF2400230EE0094AD25C02EB42029100084A11448A7AD2B2824230
:4009800001D11C4602230133DBB2012BEED9204610BC70479C81FF1FC881FF1F10B5204C2079FFF7DFFF237813F0800F0ED06378DBB2212B2FD11B4B07221A80C0EBC000AE
:4009C000194A1044586000F017FB10BD144B5B78DBB2202B02D0222B10D01EE0114A07231380C0EBC00310490B4453600F4A135C43F00103135400F027FB10BD084B9B7826
:400A00000B4A22F81030094A135C43F00203135400F0B0F910BD002010BD002010BD00BF00600040AC81FF1FDC80FF1F9481FF1F8C81FF1F10B500241F4B1C701F4B1C700F
:400A40005C700AE01E4B185DC0B2431EDBB2072B01D8FFF73FFF0134E4B2012CF2D9194B1B7813F0FF0F1AD0154B1B7813F0FF0F17D0154B1B7813F0FF0F14D0114B1B78CC
:400A8000DBB2082B11D80E4B1B78DBB2082B0ED80D4B1B78DBB2082B0BD8002010BD012010BD012010BD012010BD012010BD012010BD012010BD00BF8581FF1F9481FF1FD6
:400AC0009881FF1FA081FF1F9C81FF1F2DE9F8438046234B1B78234AD65CF6B2FFF738FF05460027344606EB460293001E4A13441B899BB29D4209D906EB460293001A4A60
:400B00001344B3F808901FFA89F900E0A9464A4608EB07013046FFF793FEC9EB0505ADB245B906EB460293000F4A13441B899BB2994510D14F44BFB204EB440293000A4AC2
:400B400013445B7813F0FF0FF6D025B9002211463046FFF775FE002DC4D1BDE8F88300BF8581FF1FA081FF1FC881FF1F08B5034B1B78034AD05CFFF745FE08BD8581FF1F9A
:400B80009881FF1F08B5034B1B78034AD05CFFF739FE08BD8581FF1FA081FF1F08B5084B1B78084AD35CDBB203EB43018A0006490A44128992B201461846FFF7A1FE08BDAA
:400BC0008581FF1F9881FF1FC881FF1FC37803F0030390F9020000280FDA032B06D002F001030B48C15442F001020EE0C2F380030848C15442F0040207E0032B05D0C2F36A
:400C000040030548C15442F002021046704700BFA081FF1F9C81FF1F9881FF1F1D4B19781D4A13889BB20B449BB2138000220FE01A494B681B78DBB2194883544B6801337F
:400C40004B600132D2B20B889BB2013B9BB20B80124B1B889BB20BB1072AE9D90D4B1B78DBB2082B00D05AB10E490B7883F080030B700F210C4B197002210C4B197004E05A
:400C8000022309490B7009490B70094B1A70014B1A7070473482FF1F3C82FF1FAC81FF1F00600040BA81FF1FA581FF1FBE81FF1F3582FF1F0222074B1A708022064B1A7023
:400CC0000F22064B1A700023054A1370054A137001207047BE81FF1FBA81FF1FA581FF1F3482FF1F3582FF1F08B5FFF797FF08BD10B4194B197801F00F010239C9B2174AC7
:400D000013889BB20B449BB21380002011E0144A5468144B1B5CDBB223705368013353600130C0B20139C9B213889BB2013B9BB213800B4B1B889BB20BB10029E7D10A4B45
:400D400019700A4A137883F0800313700B22084B1A7010BC704700BF296000403C82FF1FAC81FF1F006000403582FF1FBA81FF1FA581FF1F0623064A1370064A13708022D3
:400D8000054B1A700022054B1A700120704700BFBE81FF1FA581FF1FBA81FF1F3582FF1F064B9B6843B1054B9A6810709A6804490988518000229A60704700BFAC81FF1F4F
:400DC0003C82FF1F08B5134B1A78D2B21A701B78DBB213F0800F02D00F4A137008BD0220FFF7DEFF0D4B1B7803F06003202B05D0402B06D043B900F019FE06E000F0E4FFE4
:400E000003E000F0BDFF00E0002010B90322024B1A7008BD28600040A581FF1F0060004008B5094B1978094A13889BB20B449BB213800022064B1A700120FFF7B1FF0322F8
:400E4000044B1A7008BD00BF3482FF1F3C82FF1FBE81FF1FA581FF1F08B50B4B1B78DBB2042B06D0062B07D0022B0BD1FFF7D8FF08BDFFF73DFF08BD0320FFF791FF032224
:400E8000024B1A7008BD00BFBE81FF1FA581FF1F08B50022044B1A700120FFF781FF0322024B1A7008BD00BFBE81FF1FA581FF1F08B50B4B1B7813F0FF0F07D0084A13785B
:400EC00043F0800307490B70002313700022064B1A700120FFF764FF0322044B1A7008BDA481FF1F08600040BE81FF1FA581FF1F08B5094B1B78DBB2042B06D0062B07D0C7
:400F0000022B07D1FFF7F0FE08BDFFF7C1FF08BDFFF7CEFF08BD00BFBE81FF1F08B5284B1B78DBB213F0100F48D013F0800F0CD003F00F03012B16D1FFF744FF214B1B789C
:400F400013F0800F11D1012312E013F0400F03D0FFF7CEFF01230BE013F0200F07D0FFF77BFF012304E0002302E0002300E0002323B3134B1B7813F0800F1FD1124B1B780B
:400F8000124A12781343124A13701278D2B2934214D10C4B1B78DBB2094A127812F0800F07D1084B1B78DBB2054A1370137803F00F03044A1278D2B29342EAD108BD00BF4C
:400FC00028600040A581FF1FBA81FF1F3582FF1F296000400022064B1A80064B9B682BB1044A916800230B7092685380704700BF3C82FF1FAC81FF1F08B50F4B1B889BB25B
:4010000013B9FFF757FE15E002220C4B1A7000220B4B1A70FFF7DEFF0A4AD179937943EA0123054A128892B2934201D2024A1380FFF7F4FD012008BDAC81FF1FBE81FF1FA6
:40104000BA81FF1F0060004008B504220B4B1A7080220B4B1A70FFF7BDFF0A4AD179937943EA0123084A128892B2934201D2064A13800B22054B1A70012008BDBE81FF1F80
:40108000BA81FF1F00600040AC81FF1FA581FF1F0122094B1A700F3B9B7C084B1B7B03F00303934204D0054AD37B83F08003D3730122024B5A7370470B600040C881FF1FDC
:4010C00002220A4B1A700F3B93F82230084B1B7E03F00303012B04D0054AD37E83F08003D3760122024B5A76704700BF0B600040C881FF1F04220C4B1A700F3B93F83230FC
:401100000A4B93F8243003F00303012B06D0074A92F8273083F0800382F827300122034B83F82520704700BF0B600040C881FF1F08220C4B1A700F3B93F842300A4B93F89C
:40114000303003F00303012B06D0074A92F8333083F0800382F833300122034B83F83120704700BF0B600040C881FF1F10220C4B1A700F3B93F852300A4B93F83C3003F095
:401180000303012B06D0074A92F83F3083F0800382F83F300122034B83F83D20704700BF0B600040C881FF1F704700BF08B5FFF7F1FA08BD08B50C4B18780138C0B200F015
:4011C000CFF90A4B1B79DBB29A1C00EBC20042680749CB5C02EBC3035B68596A0B78054A1380516008BD00BFBD81FF1F00600040A881FF1FAC81FF1F08B50E4B18780138ED
:40120000C0B200F0ADF90C4B1B79DBB29A1C00EBC20042680949CB5C02EBC3035B68DB69597813F8022B42EA012205490A804B6008BD00BFBD81FF1F00600040A881FF1F4C
:40124000AC81FF1F10B500221A4B1A801A4B18780138C0B200F084F9184AD3781279D2B2911C00EBC1004168022A21D8DBB21448825C01EBC20149685A1ED2B2022A17D80F
:4012800003F10053013B01EBC3000C4A9278D2B211F833309A420BD8406802EB4202910042185468034B5C60415A198092689A6010BD00BFAC81FF1FBD81FF1F0060004068
:4012C000A881FF1F08B55B4B1A79D2B21B7813F0800F4DD0574B5B78013B052B00F28E80DFE803F0212B3B8C8C03524BDB78DBB2212B09D1FFF75EFF4F4B1B889BB2002B03
:401300007ED0FFF779FE08BD4A4BDB78DBB2222B78D1FFF771FF484B1B889BB2002B73D0FFF76AFE08BDFFF78DFF434B1B889BB2002B6BD0FFF760FE08BD022A68D83D4B35
:401340009B7813F0FF0F65D13B4901230B803B4B1A444A60FFF750FE08BD022A5CD8364901230B80364B1A444A60FFF745FE08BD304B5B78DBB20A2B0DD00B2B2FD0092BDE
:401380004CD1FFF75FFF2C4B1B889BB2002B47D0FFF75AFE08BD022A44D8264B9B7813F0FF0F41D1234BDB78DBB224498B54895CC9B2244B9B5CDBB2994203D20021214BE7
:4013C000995409E01F4B9B5CDBB2012B04D91B4B9B5CDBB21B498B54FFF7CCFC08BD022A24D8144B9B78DBB2012B21D8114B9B78DBB213498B54FFF7BDFC08BD002008BD94
:40140000002008BD002008BD002008BD002008BD002008BD002008BD002008BD002008BD002008BD002008BD002008BD002008BD002008BD00600040AC81FF1F4082FF1F40
:401440004882FF1F4482FF1F08B500F0A5FC08BD70B588B0054603AC174E0FCE0FC43368237035B322232B7003236B7001A8FFF727F8002402231AE008AA224412F81C2CBF
:4014800008A901EB121111F8141CE954581C00212954981C02F00F0208AE324412F8142C2A54DA1CA9540134E4B20433DBB2212BE2D908B070BD00BF141F000010B40123F1
:4014C0003EE019461A010C242148845403EB4300820020480244527912F0FF0F13D003EB430082001B480244127912F0800F04D01801194A024494700AE01801164A024409
:401500000820907004E01801134A0244802090704800084482000F480244D488E4B208010B4901448C71D088C0F30720C871D088C0B20871D288C2F307224A710133DBB29D
:40154000082BBED9FF22054B1A7010BC704700BF70600040C881FF1FFC5F00400A600040074B1A78074B03EBC2035B681A7C824204D9C00010301844406870470020704733
:40158000B881FF1F281F0000F8B5404B1B7813F0FF0F79D03D4B18780138C0B2FFF7E0FF047AC2683A4B1878C0B200236AE01178884264D13749095CC9B25578A9425ED165
:4015C000917801F07F01D67806F00306DFF8C8E04D000D44AF000EEB07054FF0000C85F803C092F802C085F804C092F803C00EF807C097882F8192F90250002D0DDA012E32
:4016000001D1072700E00D274E000E44B500224E35446F7101266E700CE0012E01D1052700E009274E000E44B5001B4E35446F7100266E70DFF868E00F010EEB07060125D4
:40164000B57001FA05F529448D00134929440D89C5F307250EF807500D89EDB27570CE88F6B20E4D3D44AE71CE88C6F30726EE71CE88F6B22E71C988C1F30721697108322A
:401680000133DBB2A34292D3F8BD00BFBD81FF1FB981FF1FA881FF1FC881FF1F70600040FC5F0040034B1A78034B03EBC2035868704700BFB881FF1F281F000008B5084BD9
:4016C00018780138C0B2FFF74BFF30B142681279023200EBC203586808BD002008BD00BFBD81FF1F2DE9F047002310E0724D5900CA189600AC190022AA55A270E270228113
:40170000A272627034462C4462710133DBB2082BECD940B90AE000226849CA546849CA540133DBB200E00023022BF4D9654B1B7813F0FF0F00F0BD80624B18780138C0B283
:40174000FFF70EFF80464368DB7913F0400F05D05D4A137843F00103137004E05A4A137803F0FE03137098F808704FF0000A01266FE0D8F80C50002467E0AB7803F07F030E
:401780009E425FD1314606EB460083004A4803441B899BB2A888834206D206EB460E4FEA8E03454A134418812B784448C35CDBB26878834246D195F802C0DFF8FCE04B00DF
:4017C0000B4498000EEB000383F804C0EB780EF80030EB7803F0030395F90200002813DA012B02D14FF0070901E04FF00D09DFF8C8E04B0003EB010C4FEA8C00704480F8F3
:4018000005900121417012E0012B02D14FF0050901E04FF00909DFF8A0E04B0003EB010C4FEA8C00704480F8059000214170AB790A2B01D0022B05D1524631462846FFF73B
:40184000C5F9824608350134E4B2BC4295D30136F6B2082E8DD9D8F80C0000220CE0837803F07F0310F8084B03EB43039900124B19448C720132D2B2BA42F0D3FFF71EFF36
:40188000124B1860002301210FE00B4D4A00501884002C44E380228992B213449BB203F0010213449BB20131C9B20829EDD9FFF705FEBDE8F08700BFC881FF1FA881FF1F6B
:4018C0003882FF1FBD81FF1FBB81FF1FC481FF1F08B5154B1B7903F07F035A1ED2B2072A20D8590019448A0010490A44917841F0010191700021D170517841F00201517068
:40190000127912F0800F05D01B01094A1A448D23937004E01B01064A1A4489239370FFF729FA08BD002008BD00600040C881FF1FFC5F0040274B1B7903F07F035A1ED2B2FD
:40194000072A44D810B5590019448A0022490A44917801F0FE0191700021D1701F4C1801215C01F07F012154517801F0FD015170127912F0800F13D003EB43018A00164986
:401980000A445278D2B2012A04D1224602440C23937019E01B01114A1A440D23937013E003EB43018A000C490A445278D2B2012A05D11B01094A1A440823937004E01B010E
:4019C000064A1A4409239370FFF7D4F910BD0020704700BF00600040C881FF1FFC5F004010B50E4B1C79E4B20D4B18780138C0B2FFF7B6FD43681B799C4201D9032C0AD8B5
:401A0000084A135DDBB208490B55044B9B78DBB21355012010BD002010BD00BF00600040BD81FF1FA881FF1F3882FF1F10B59C4B1B78DBB200219B4A118013F0800F00F0B5
:401A4000AD80974A5278D2B20A2A00F27481DFE812F06900720172017201720172010B007201920072019A008D4BDB78DBB2012B09D1FFF717FE42688A4B5A6012221A8091
:401A8000FFF7BAFA10BD864BDB78DBB2022B13D1834B9878FFF764FD002800F04E814268804B5A605A68D1785A68927842EA01221A80FFF7A1FA10BD794BDB78DBB2032BB2
:401AC00005D02CE00A7811440133DBB201E000237549734A9278D2B2934203D20A7812F0FF0FEFD16E4B9B7813F0FF0F0BD06C4B9B78DBB26D4A127C934204D16C4C204648
:401B0000FFF7A6FC21460B7813F0FF0F00F017810B78644A13805160FFF76EFA10BD00F053F910BD13F0030317D0022B40F009815C490B805A4B1B7903F07F0303EB4303F8
:401B40009A005C4B1A449278D2B25B4B1A7000225A704B60FFF750FA10BD524902230B80564B1A78D2B2544B1A7000225A704B60FFF742FA10BD4B4B01221A80504A5A60FC
:401B8000FFF73AFA10BD474A01231380444B1B794C490B445360FFF72FFA10BD404A5278013A0A2A00F2CF80DFE812F04C00CD009800CD000B00CD00CD00CD001300CD00A3
:401BC0003000374B9B78DBB23F4A1370FFF7D2F810BD334B9B7803F0FF041BB1601EC0B2FFF7BEFC04B110B9002C40F0AE80344B1B78DBB29C4206D0314B1C700120334B05
:401C00001870FFF76FFDFFF7B5F810BDFFF7E8FE002800F09C80224A1379DBB21279D2B22B490A702B4AD25CD2B22649CB5CDBB29A4204D00122254B1A70FFF7A5FCFFF714
:401C400099F810BD03F00303012B17D04BB1022B7FD1134B9B7813F0FF0F7CD1FFF76AFE10BD0F4B9B78DBB2012B76D1134A137803F0FD031370FFF77DF810BD084B1B799D
:401C8000DBB2022B6BD8064B98781B79DBB21249CA5C22EA0002CA54FFF76CF810BD00BF00600040AC81FF1F38200000102200006482FF1FC881FF1F8881FF1FBB81FF1FB1
:401CC000BD81FF1FA881FF1FA481FF1FBC81FF1FB981FF1F3882FF1FC081FF1F03F00303012B17D04BB1022B3BD1224B9B7813F0FF0F38D1FFF7ECFD10BD1E4B9B78DBB284
:401D0000012B32D11C4A137843F002031370FFF731F810BD174B1B79DBB2022B27D8154B98781B79DBB21549CA5C22EA0002CA54FFF720F810BD002010BD002010BD002017
:401D400010BD002010BD002010BD002010BD002010BD002010BD002010BD002010BD002010BD002010BD002010BD002010BD002010BD00BF00600040BB81FF1FC081FF1F62
:401D8000044B1B7813F0800F01D0024B5B780020704700BF00600040024B1878C0F38010704700BF8F4500400230800803D000BF01380046FCD17047EFF3108072B670473E
:401DC00080F31088704700BF08B5164B1B7803F00303012B02D0022B04D00FE0114B1B79DBB20CE00F4B1B7903F07F0303EB43039A000D4B1A44937ADBB200E00023032BAF
:401E00000CD80A4A1268D35C022B04D0032B07D1FFF758FA08BDFEF7C1FD08BD002008BD002008BD00600040C881FF1FC481FF1F014B1868704700BF5881FF1F0E4B70B54A
:401E40001E460E4C0025E41AA410A54204D056F8253098470135F8E700F0E4F9084B094C1E46E41AA4100025A54204D056F8253098470135F8E770BD3022000030220000A8
:401E8000302200003822000010B5431E0A44914204D011F8014B03F8014FF8E710BD03460244934202D003F8011BFAE77047024610B513461C780132002CFAD1013B11F8C1
:401EC000012B03F8012F002AF9D110BD000000000A0D00000A0D2D2D2D2D2D2D2D2D2D2D00000000005100401000305100404000C051004010000000014000100014014031
:401F0000000800400140000A004C01400002005001402000303132333435363738394142434445460000000001000000301F000001000000102200000000000000000000A9
:401F400001000000481F000001000000A4210000050000007C1F00000000000000000000000000000000000001000000A41F000000000000781F0000020A030000008103A5
:401F8000080002000100820240000A000100030240000A000200840308000300020005030800030001000000AC1F000000000000E01F000000000000D41F00000000000091
:401FC0000000000001000000EC1F000001000000F8210000020000006082FF1F4C82FF1F090000005082FF1F5C82FF1F410005010906A10105071AE0002AE700150025018E
:4020000075019508810295017508810395057501050819012905910295017503910395067508150025650507190029658100C0000000000002030000040309042C034300A3
:402040007900700072006500730073002000530065006D00690063006F006E0064007500630074006F007200100355005300420055004100520054003803430044004300FD
:40208000200043006F006D006D0075006E00690063006100740069006F006E00200049006E00740065007200660061006300650026034300440043002000440061007400CD
:4020C0006100200049006E0074006500720066006100630065002803540079007000650053007400610072002000340020004B006500790062006F006100720064002A0395
:4021000043006F0077006C00610072006B00200054006500630068006E006F006C006F0067006900650073001E0354007900700065005300740061007200200034002000F7
:402140004C00430044001603420065006E0020004B006500740074006C0065002003500061007300730077006F007200640020004B0065006500700065007200240350006C
:402180004B002000500061007300730077006F0072006400200045006E007400720079000000000009026B00030109800A080B0002020201000904000001020201030524C9
:4021C00000100104240202052406000105240100010705810308000A09040100020A000004070582024000000705030240000009040200020301010A0921110100012241A6
:40220000000705840308000A0705050308000A0012010002EF020108000000000000080980014300F8B500BFF8BC08BC9E4670474D000000A5030000F8B500BFF8BC08BC97
:402240009E4670472900000058220000C880FF1F9800000028010000000000000000E02EC05D00001800000000366E0100C2010000000800C201000000080000A1200000BA
:4022800000000200000000000000000000000000000000000000000000000000000000000000000000000000222200000000000000000000000000000000000000000000D8
:4022C00000000000000000000000000000000000000000000000000000000000000000000000000000000000F880FF1F000000000000000000000000000000000000000048
:40230000000000000000000000000000000000000000000000000000000000000000000000000000000000000000000000000000000000000000000000000000000000009D
:40234000000000000000000000000000000000000000000000000000000000000000000000000000000000000000000000000000000000000000000000000000000000005D
:40238000000000000000000000000000000000000000000000000000000000000000000000000000000000000000000000000000000000000000000000000000000000001D
:4023C00000000000000000000000000000000000000000000000000000000000000000000000000000000000000000000000000000000000000000000000000000000000DD
:020000040003F7
:0200000480007A
:40000000014500400152004001030140010D014002170140021901400640014006410140034201400343014002450140024601400947014004480140034C014002510140EE
:400040007E027C40E209E209EA08EE0AEA08EE0A3202338036483B80CCF0CE10820286089780A64AA780E2909780A640A7809780A640A780830186019601970108080B0190
:400080000E010F40124096019701C20FC408AE40AFC0EA10EE50AC08AE40AF4000AA01024000000000000000C0000000000B0B0000000000000202000000000000000000D7
:4000C0000000000000000000000000000000000000000000000000000000000000000000000000000000000000000000000000000000000000000000000000000000000000
:4001000000000000000000000000000000000000000000000000000000000000000000000000000000000000000000000000000000000000000000000000000000000000BF
:40014000000000000000000000000000000000000000000000000000000000000000000000000000000000000000000000000000000000000000000000000000000000007F
:40018000000000000000000000000000000000000000000000000000000000000000000000000000000000000000000000000000000000000000000000000000000000003F
:0200000490006A
:0400000000004005B7
:0200000490105A
:04000000BC90ACAF55
:0200000490303A
:020000007D433E
:0200000490402A
:4000000000000000000000000000000000000000000000000000000000000000000000000000000000000000000000000000000000000000000000000000000000000000C0
:400040000000000000000000000000000000000000000000000000000000000000000000000000000000000000000000000000000000000000000000000000000000000080
:400080000000000000000000000000000000000000000000000000000000000000000000000000000000000000000000000000000000000000000000000000000000000040
:4000C0000000000000000000000000000000000000000000000000000000000000000000000000000000000000000000000000000000000000000000000000000000000000
:0200000490501A
:0C00000000012E16106900012E228DACAC
:00000001FF