:400000000080002011000000410900004109000008B5044B1A6803F53F5302331A6000F0AFFC00BFFA46004010B5054C237833B9044B13B10448AFF300800123237010BD38
:400040000083FF1F00000000381E0000084B10B51BB108490848AFF300800848036803B910BD074B002BFBD0BDE81040184700BF000000000483FF1F381E0000C880FF1FE2
:400080000000000000B585B000F09AFD0246054901A801F015FA01A800F01CFD05B05DF804FB00BF3C1E000008B51E220021034801F0FDF90022024B1A6008BD7483FF1FA9
:4000C0007083FF1F10B500F0F3FC0D2806D10949094801F019FAFFF7E7FF10BD044600F0EDFC064A13680349CC5401330020C854136010BD7483FF1F9483FF1F7083FF1F8A
:4001000008B51E220021024801F0D1F908BD00BF9483FF1F84B010B502AC84E80F00144800F0D8FC03A800F0D5FC124800F0D2FC002413E004F13100C0B200F0BFFC0E486D
:4001400000F0C8FC04EB84039800183002AB184400F0C0FC064800F0BDFC0134029B9C42E8DB064800F0B6FCBDE8104004B07047441E0000481E00004C1E0000501E000066
:4001800084B010B502AC84E80F00164800F0A2FC002403E02A2000F091FC01341D2CF9DD114800F097FC02A800F094FC0F4800F091FC0DF1110000F08DFC0D4800F08AFCE2
:4001C0000DA800F087FC0B4800F084FC002403E02A2000F073FC01341D2CF9DDBDE8104004B07047701E0000781E0000881E00009C1E0000B01E000008B5024800F06AFC01
:4002000008BD00BFB81E000038B50546002411E001F0D6F8C0B204E001F0C6F801F0D0F8C0B2A0F12103DBB25D2BF5D8285501F0BBF801340F2CEBDD00232B7438BD00BFC2
:4002400070B5CCB062B6A64800F070FCA54800F07FFD00F01FFCA44800F03CFC0024A34B1C6000F0D3FCA24B1C6000F0CFFD0122A04B1A603AAC204600F0DAF901F0BEF853
:4002800094E8030000F0AEF980B201F09FF801F08BF8994B1878003018BF012000F066FD934B1B68012B11D0022B4DD0002BEED18F4CD02204F11401684601F0EDF8231DCE
:4002C0000FCBFFF727FF01232360E0E78A4B1B78002BDCD0884801F0AFF8044610B101280ED017E0FFF788FF814CD02204F11401684601F0D1F8231D0FCBFFF70BFF20E022
:4003000002227B4B1A6000227C4B1A607C4800F0E1FB16E07B4800F0DDFB774B22467A4935A801F0CDF835A800F0D4FB704CD02204F11401684601F0AFF8231D0FCBFFF7BB
:40034000E9FEFFF7DDFEA2E76C4B1B68052B9ED8DFE813F006001C0034005A00A200EC00664E3CAC351D0FCD0FC40FCD0FC40FCD0FC495E80F0007C424F8023B1B0C2370EF
:40038000624800F0A7FB0123336080E75A4B1B78002B3FF47CAF58493CA801F0B5F8FFF7AFFE5B4800F096FB3CA800F093FB594800F090FB0222514B1A6068E74E4B1B7805
:4003C000002B3FF464AF4C490DF1F90001F09CF8FFF796FE504800F07DFB0DF1F90000F079FB4C4800F076FB414CD02204F1F401684601F051F804F1E4030FCBFFF78AFE1C
:4004000003223E4B1A6042E73B4B1B78002B3FF43EAF394801F010F8012812D002281ED0002836D1FFF7E8FE314CD02204F1F401684601F031F804F1E4030FCBFFF76AFE2A
:4004400027E0364800F046FB0DF1F90000F042FB304800F03FFB0422284B1A6019E0304800F038FB35A8FFF7CFFE35A947A801F04BF82C4800F02EFB0DF1F90000F02AFB1F
:40048000244800F027FB47A800F024FB05221B4B1A60FFF735FEFAE6174B1B78002B3FF4F6AE3CAE144947A801F02EF8FFF728FE6C4640AD0FCD0FC40FCD0FC495E80F00C7
:4004C00007C424F8023B1B0C237096E80F00FFF757FE154800F0FEFA0522084B1A60D6E6C500000085000000FC1E00007083FF1FCC80FF1F00E100E09483FF1F1C83FF1FBF
:400500000C1F00001C1F00002C1F0000341F00004C1F0000841E0000641F00007C1F0000981F0000B01F0000D01F00000D4B1B78002B3FF4ACAE0B4947A800F0E5FFFFF767
:40054000DFFD094800F0C6FA084C2146012341F8143BD022684600F09FFF231D0FCBFFF7D9FD94E69483FF1F04200000CC80FF1F30B4B0F5FA6F02D3A0F5FA6080B292B2BA
:40058000012306E05C1E0E4D2C5D224492B20133DBB28B42F6D3022904D910F0030F01D1013292B2C31C00EBC00100EBC10000EB8000024402EBA300013880B230BC7047E9
:4005C0001420000010B400EB4000C4002144C1EB011188000244C2EB02129000184410BC704700BF00B583B002AB03E903009DF802209DF801109DF80000FFF7B9FF9DF87B
:4006000005309DF804209DF80310FFF7DBFF00F1615000F5351000F5607003B05DF804FB0309A3EB83035A001044C0B2704700BF2DE9F04782B00446002302A901F8043D25
:400640000122682000F08AFD00F066FE10F0020FFAD000F07BFE002307221A49682000F0EBFD00F059FE10F0010FFAD000F06EFE144D287800F07F00FFF7D2FF06466878D1
:40068000FFF7CEFF0746A878FFF7CAFF80462879FFF7C6FF81466879FFF7C2FF8246A879FFF7BEFF054600F061FE257084F801A084F8029084F8038027716671204602B04E
:4006C000BDE8F087B483FF1FFEE700BFF0B40022174611E050F82760F3B226F0FF0608E001EB420511F812406D78A5550132013BDBB2002BF4D10137222FEBD9F0BC704751
:40070000064B1B78DBB203F00701054A11701B09013213704422034B1A707047CF0100496E5800407658004008B50A46002100F0BEFE08BD38B50122284B1A801823284A18
:4007400013700E210232118002321370192502321580023213700222224B1A7008224FF040231A70032103F5007319701E4B1B78DBB21E490B701E4B1A8041F25122023BB3
:400780001A8000240CE01B4B1B7803F0010343EA440404F003044FF4F07000F03DFE013D0DB1032CEFD115B90320FFF78DFF124B4FF480721A8007221A7000220F490A7030
:4007C0004820023108701A700222033B1A700C4A137843F00703137038BD00BF80400040824000400043004008010049A146004022420040254200400440004006400040C8
:40080000A243004008B500F047FE08BD38B572B6384A137843F00403137000240CE0364D630019194A0011462A44084691882858FFF77AFF0134E4B2062CF0D900240BE09B
:400840002D49A3001819420088180622016BC06AFFF7D8FF0134E4B2002CF1D027494FF09040FFF733FF264A137843F0020313701032137843F002031370224C237843F0E8
:4008800040032370A2F58632513A137843F0100313700A221C491D48FFF7B4FF0A221C491C48FFF7AFFF08221B491C48FFF7AAFF0A221B491B48FFF7A5FF0A221A491B48EC
:4008C000FFF7A0FF1A4A137843F008031370194D61232B70FFF72EFF81232B700122164B1A70FFF70DFF0E2221461448FFF78AFF38BD00BFE8460040202000008C00004814
:4009000003500140A0430040840D004800510040900D0048C05100409C0D004812510040A40D004820510040B00D004830510040224300400048004004000840B0430040B0
:4009400008B500F07DFD03680C2B00D1FEE7FEE708B5094B1A681044084BC31A802B02DC054B186005E000F06BFD0C2303604FF0FF32104608BD00BF9082FF1FD883FF1FE9
:4009800008B5104E104D16E029686B68AC68002204E051F8040B43F8040B0432A242F8D1E868002203E0002143F8041B04328242F9D11035013E002EE6D100F047FDFFF79F
:4009C0003FFCFEE701000000B021000008B5104A104B1A60104A136843F40073136000230AE0032B03D80D4A52F8231000E00C490C4A42F8231001332F2BF2D90A4B1A7805
:400A00000A4B1A70074A0A4B1A60FFF7FFFE08BD0004FA050CED00E014ED00E000000000410900000080FF1FBC760040C080FF1F08ED00E07222084B1A702022A3F5807377
:400A40001A700622623B1A70472210331A70002251331A70704700BF8965004010B500F0E3FC04460A4A137843F020031370A2F58072137843F010031370013A137843F027
:400A80001003137000F060F8204600F0D1FC10BD9965004008B5054B1B7823B9FFF7CAFF0122024B1A70FFF7D9FF08BD5F83FF1F014B1878704700BF4A650040034B1B7840
:400AC00013F0040FFAD1024B18707047686400404A64004038B5074B1B782BB938BDFFF7EDFF0134A4B201E005460024285D0028F5D138BD5F83FF1F014B1B68986470473D
:400B000008ED00E04001C0B2014B1870704700BF02E400E00422014B1A60704700E100E00422014B1A60704780E100E010B50446FFF7F6FF2046FFF7DFFF0720FFF7E2FFA3
:400B4000FFF7E8FF10BD00BF054A137843F0040313701032137843F004031370704700BFA243004001BE704770B504460E46074B1D681F2802D90020FFF7F4FF04F01F04FE
:400B8000103455F8240045F8246070BD08ED00E038B504460D46072902D90020FFF7E2FF1F2C02D90020FFF7DDFF04F01F0000F1604000F564406D01EDB2057038BD00BFA6
:400BC00008B500F04FF8803840B208BD024B187800F00F00704700BF60640040014B1870704700BF8064004008B50F20FFF7F6FFFFF7ECFF00F018FC034A137843F01003F4
:400C0000137000F015FC08BD9064004008B500F077F8802000F020F8044B1B7813B90122024B1A70FFF7E0FF08BD00BF6183FF1F024A137843F08003137070477464004091
:400C4000014B1870704700BF84640040014B1878704700BF64640040014B1870704700BF0B640040024B1B78024B1878704700BF0B6400404B640040014B1878704700BF8C
:400C80004B640040014B1870704700BF2B640040014B1870704700BF3B64004008B501E0FFF7EAFFFFF7D2FF10F0400FF8D108BD08B5114B1A7802F0F8021A701A7802F03D
:400CC000FC021A70FFF7EAFF8020FFF7DBFF8020FFF7C2FF0020FFF7B3FFFFF7B7FF8020FFF7D6FF00F0A0FB044A137843F01003137000F09DFB08BD74640040946400401D
:400D000008B5054B1B7823B9FFF7D2FF0122024B1A70FFF78DFF08BD6283FF1F014B1B685864704708ED00E04001C0B2014B1870704700BF01E400E00222014B1A607047B2
:400D400000E100E00222014B1A60704780E100E010B50446FFF7F6FF2046FFF7DFFF0720FFF7E2FFFFF7E8FF10BD00BF044A137803F0FD03400000F00200184310707047A5
:400D80002051004038B50024134B1C70012510331D7000F049FB114A137843F01003137000F046FB0F220E4B1A70082210331A700C4B1D6007212046FFF7EAFE0A49204679
:400DC000FFF7D2FE1022094B1A70094B1C70094B1C70094B1C7038BD73640040936400402164004080E100E0350E0000BE83FF1FD083FF1FCE83FF1FC483FF1F024A137876
:400E000043F00203137070477364004008B5074B1B7823B9FFF7B6FF0122044B1A70FFF7EDFF0122024B1A6008BD00BF6383FF1F00E100E038B5AC4B1C78AC4B1B7813F0EA
:400E4000400F00F07B81E4B214F0010F00F04281A64B1B78453B052B00F23981DFE813F006009200370137010600F90004F0DF0504F00A04082C50D19C4B1B78DBB2452B83
:400E80003DD19B4B1B7813F0FF0F16D0994B1B681B78DBB2984A13700622984B1A70FF225E3B1A70002240331A700122944B1A7046228E4B1A702C460CE1924B1B7813F0A7
:400EC000020F0CD0904A137843F00A0313706022864B1A7001228D4B1A602C46FAE08C4A137843F0200313705222844B1A70FF225E3B1A70002240331A702C46EAE0022275
:400F00007E4B1A70FF225E3B1A70002240331A704A22764B1A702C46DCE00A2C2DD17A4A137843F0A0031370764B1B7813F0020F13D06E4B1B7813F0080F01D0092300E0AC
:400F40000A23714A11780B4313706022674B1A7001226E4B1A602C46BCE06D4A137843F0200313705222654B1A70FF225E3B1A70002240331A702C46ACE00020FFF7F2FDDE
:400F80002C46A7E014F0020F3ED15D4B1A78D2B2574B1B78DBB29A4216D2594A1378DBB254490968CB5CDBB253490B700621534B1970FF215E3B1970002140331970137804
:400FC0000133DBB2137085E04E4B1B7813F0020F0BD04D4A137843F00A0313706022434B1A700122494B1A6074E0494A137843F0200313705222414B1A70FF225E3B1A7064
:40100000002240331A7065E03E4B1B7813F0020F0BD03D4A137843F09A0313706022334B1A700122394B1A6054E0394A137843F0200313705222314B1A70FF225E3B1A7058
:40104000002240331A70304A137843F09003137040E0304A1378DBB22F49086826490978C9B2C15413780133DBB213701278D2B22A4B1B78DBB29A4209D202221F4B1A70A8
:40108000FF225E3B1A70002240331A7022E01D4B1B7813F0020F0BD01B4A137843F0090313706022114B1A700122184B1A6011E0174A137843F02003137012220F4B1A70F9
:4010C000FF225E3B1A70002240331A7002E00020FFF748FD14F0200F38D0044B1B7813F0080F1DD001231CE063640040BE83FF1FCC83FF1FC083FF1F056400407364004018
:40110000C483FF1FCF83FF1FD083FF1F80E100E083640040CE83FF1FC883FF1FCD83FF1F02230B4A11780B4313700A4A137803F0DF0313701022084B1A7038BD064B1B78C8
:4011400013F0100F02D11022034B1A7038BD00BFD083FF1F83640040BE83FF1F00294ED070B40C4629490978C9B2102906D12849097811F0100F10D1002111E02349097898
:40118000C9B260290BD1012522490D60224D297801F0F7012970002102E0012100E0022181BB4526194D2E7000261C4D2E701C4D2A701C4A14601C4A1370174C227802F00A
:4011C000FD0222704200D2B21848027013F0010F08D03222164B1A70FF225E3B1A7040331E7008E08222124B1A70FF225E3B1A70002240331A7001220E4B1A6002E0022186
:4012000008467047084670BC704700BFBE83FF1F6364004080E200E0D083FF1FC483FF1FCC83FF1FC083FF1FCF83FF1F056400407364004000E100E0002951D070B40C46BC
:401240002A490978C9B2102906D12949097811F0100F10D1002111E024490978C9B260290BD1012523490D60234D297801F0F7012970002102E0012100E00221002932D135
:4012800049261A4D2E7000261C4D2E701C4D2A701C4A14601C4A1370174C227802F0FE0222704200D2B242F001021848027013F0010F08D03222164B1A70FF225E3B1A700B
:4012C00040331E7008E08222114B1A70FF225E3B1A70002240331A7001220E4B1A6002E0022108467047084670BC7047BE83FF1F6364004080E200E0D083FF1FCE83FF1F5F
:40130000CD83FF1FC883FF1FCF83FF1F056400407364004000E100E00122084B1A60084B1878C0B2074B1B7813F0400F01D040F004000122044B1A60704700BF80E100E0C1
:40134000D083FF1FBE83FF1F00E100E00123044A1360044A107800211170034A1360704780E100E0D083FF1F00E100E00122064B1A600021054B197005490B7803F0FE03E8
:401380000B70044B1A60704780E100E0CE83FF1FD083FF1F00E100E0024A137843F001031370704775650040044B1A7842F002021A701A7802F0FD021A707047756500406F
:4013C000014B188880B2704704650040014B1880704700BF04650040014B1880704700BF2465004008B54FF43440FFF7F5FF4FF6FF70FFF7EBFFFFF7CFFF08BD08B5054BC1
:401400001B7823B9FFF7EEFF0122024B1A70FFF7C3FF08BD6483FF1F0230800803D000BF01380046FCD17047EFF3108072B6704780F31088704700BF0A22002100F0F2B8D6
:40144000014B1868704700BFF482FF1F0E4B70B51E460E4C0025E41AA410A54204D056F8253098470135F8E700F090FE084B094C1E46E41AA4100025A54204D056F8253072
:4014800098470135F8E770BD982100009821000098210000A021000010B5431E0A44914204D011F8014B03F8014FF8E710BD03460244934202D003F8011BFAE770470000D3
:4014C0000EB400B54FF402719CB0ADF814106FF00041049107914FF6FF711DAB02900690084853F8042BADF81610006802A9019300F0FCF8029B00221A701CB05DF804EBBF
:4015000003B07047F482FF1F034611F8012B03F8012B002AF9D170472DE9F0470F4680463F48D0F800903D4615F8014B09EB0400407800F0080000F0FF0608B12F46F2E796
:401540002D2C03D1BD1C7C78012603E02B2C04BF7C78BD1C13B1102B0AD15BE0302C57D1287800F0DF0058284DD16C7810230235002E14BF4FF0004C6FF0004CBCFBF3FAB1
:401580000027384603FB1ACC09EB040E9EF801E01EF0040F01D0303C0BE01EF0030E1BD0BEF1010F0CBF4FF0370E4FF0570ECEEB0404A34210DDB7F1FF3F0AD0504506D85A
:4015C00001D1644503DC03FB0040012701E04FF0FF3715F8014BD7E77B1C0CD1002E4FF0220314BF4FF000406FF00040C8F800302AB9BDE8F08706B1404272B107B1691E3D
:401600001160BDE8F0873024002BB1D10823AFE70A23ADE7302CA3D0AAE7BDE8F08700BFF882FF1F13460A46014602480068FFF773BF00BFF482FF1F2DE9F0478E6882469F
:401640009E420C46914698463ED88A8912F4906F3AD02568096902236F1A656905EB450595FBF3F57B1C43449D4238BF1D4653050FD5294600F040FB064698B13A46216952
:40168000FFF70AFFA38923F4906343F08003A38113E02A4600F08EFB064670B92169504600F0DEFA0C23CAF80030A3894FF0FF3043F04003A381BDE8F08726613E442660E2
:4016C00046466561ED1BA560464528BF464649463246206800F0A8FAA36800209B1BA36023681E442660BDE8F08700002DE9F04F9DB003938B8980461C060D4616460DD534
:401700000B695BB9402100F0F7FA2860286118B90C23C8F80030CDE040236B610023099320238DF82930DFF89CB130238DF82A3037463C4614F8013B1BB9B7EB060910D020
:4017400003E0252BF9D02746F3E74B46324629464046FFF771FF013000F0A780099B4B4409933B78002B00F0A08000234FF0FF3204930793059206938DF853301A930126ED
:40178000052221784E4800F041FA671C049B38B14B4A3C46801A06FA00F018430490EFE7D90644BF20228DF853201A0744BF2B228DF8532022782A2A03D0079A00210A2005
:4017C0000BE0039A111D12680391002A10DA524243F00200079204900BE027463B780134303B092B03D800FB02320121F5E701B107923B782E2B1ED17B782A2B0AD1039B2D
:4018000002371A1D1B680392002BB8BF4FF0FF33059310E0002319460593781C0A2407463A780130303A092A03D804FB01210123F5E703B1059103223978224800F0E6F987
:4018400040B14023CBEB000003FA00F0049B013718430490397806221B487E1C8DF8281000F0D4F988B1194B33B9039B073323F007030833039314E003AB00932A46144B08
:4018800004A94046AFF3008007E003AB00932A460F4B04A9404600F093F8B0F1FF3F824603D0099B5344099342E7AB895B0601D4099801E04FF0FF301DB0BDE8F08F00BFAF
:4018C000592100005F2100006321000000000000391600002DE9F04791461F460A698B6806469342B8BF1346C9F8003091F843200C46DDF8208012B10133C9F80030236824
:40190000990642BFD9F800300233C9F80030256815F0060510D104F1190A07E00123524639463046C04701301AD00135E368D9F800209B1A9D42F1DB94F843302268003302
:4019400018BF012392060FD5E118302081F843005A1C94F845102244023382F8431003E04FF0FF30BDE8F08704F1430239463046C0470130F4D02268D9F80050E36802F0AC
:401980000602042A08BF5D1B2269A3680CBF25EAE57500259342C4BF9B1AED184FF000091A344D4509D00123224639463046C0470130D5D009F10109F3E70020BDE8F08738
:4019C0002DE9F04317460A7E85B06E2A984606460C460C9B01F1430E00F0AE8011D8632A22D009D8002A00F0BB80582A40F0CA8081F84520834955E0642A1ED0692A1CD0F4
:401A0000C0E0732A00F0B08009D86F2A2ED0702A40F0B8800A6842F020020A603EE0752A24D0782A3AD0ADE01A6801F14205111D1960136884F84230A8E021681A6811F056
:401A4000800F02D0111D196008E011F0400F02F10401196002D0B2F9003000E01368002B3CDA2D225B4284F8432037E021681A6811F0800F02D0111D196007E011F0400F3F
:401A800002F10401196001D0138800E01368227E5C496F2A14BF0A2208221BE078225A4984F845202268186812F0800F00F104051D6003D1550601D5038800E00368D0070A
:401AC00044BF42F0200222601BB9226822F0200222601022002084F8430001E049490A226568002DA56008DB206820F0040020602BB9002D7DD175460CE0002B79D0754616
:401B0000B3FBF2F002FB1033CB5C05F8013D03460028F5D1082A0BD12368DA0708D5236962689A42DEBF302305F8013C05F1FF35C5EB0E0323612EE008681A6810F0800F8B
:401B4000496903D0101D1860136808E010F0400F02F104001860136801D0198000E0196000232361754616E01A68111D1960156800216268284600F049F808B1401B606080
:401B8000636804E004F1420584F8422001232361002384F84330CDF800803B4603AA21463046FFF797FE013002D14FF0FF3026E023692A4639463046C0470130F5D02368D6
:401BC0009B0710D5002504F1190907E001234A4639463046C0470130E7D00135E368039A9B1A9D42F2DBE068039B9842B8BF184605E00B7804F1420584F842308AE705B0D7
:401C0000BDE8F0836A2100007B21000010B5C9B202449042034605D01C7801308C42F8D1184610BD002010BD884210B501EB020301D8421E0BE09842FBD28118D21AD34296
:401C400004D013F8014D01F8014DF8E710BD994204D011F8014B02F8014FF8E710BD000038B50546002944D051F8043C0C1F002BB8BFE41800F0D4F81E4A1368114613B9C1
:401C80006360146030E0A3420DD92268A018834201BF18685B681218226063600C6023E0A24203D813465A68002AF9D118681918A1420BD12168014458188242196013D18D
:401CC00010685268014419605A600DE002D90C232B6009E021686018824201BF106852680918216062605C602846BDE8384000F098B838BD6C83FF1F70B5CD1C25F0030500
:401D000008350C2D38BF0C25002D064601DBA94202D90C23336046E000F082F8234B1C681A462146A1B10B685B1B0ED40B2B03D90B60CC18CD501EE08C420BBF63684B6830
:401D40001360636018BF0C4615E00C464968E9E7174C23681BB9304600F052F820602946304600F04DF8431C18D0C41C24F00304A0420DD12560304600F053F804F10B00F8
:401D8000231D20F00700C31A0ED05A42E25070BD211A304600F034F80130EBD10C233360304600F03EF8002070BD00BF6C83FF1F6883FF1FF8B5074615460E4621B9114602
:401DC000BDE8F840FFF798BF1AB9FFF749FF2846F8BD00F027F885420ED929463846FFF78BFF044650B131462A46FFF755FB31463846FFF735FF01E03046F8BD2046F8BD9D
:401E000038B5064C0023054608462360FEF7A0FD431C02D1236803B12B6038BDD483FF1F7047704751F8040C0028BEBF091851F8043CC018043870470000000025640A0DAB
:401E4000000000000A0D00003A0A0D002E2000000A0D456E746572207468652063686F69636520796F752077616E743A200000000A0D0A0D202020000A0D2020202A205457
:401E800069746C653A2000000A0D2020202A20557365726E616D653A200000000A0D2020202A2050617373776F72643A200000000A0D2020200000000A0D496E76616C6960
:401EC0006420436F6D6D616E642100000A0D6461746574696D653A200000000025642D25642D25642025643A25643A25322E306420756E69783A202564000000434F4D2046
:401F0000506F7274204F70656E0000000A0D416464207265636F72642E2E2E000A0D476F7420436F6D6D616E643A200025642025730000000A0D456E746572205265636F88
:401F40007264205469746C653A2000000A0D456E74657220757365726E616D6520666F72200000000A0D50617373776F726420666F72207573657220000000000A0D456E59
:401F80007465722050617373776F726420666F7220757365722000000A0D47656E65726174696E672070617373776F72642120000A0D47656E6572617465642050617373B1
:401FC000776F726420666F7220757365722000000A0D0A0D456E7465722027792720746F20636F6E6669726D2C20616E797468696E6720656C736520746F2063616E636507
:402000006C2E00000A0D43616E63656C6C696E67210000001F1C1F1E1F1E1F1F1E1F1E00405100403000F0510040100000000140001000140140000800400140000A004C79
:40204000014000020050014020000000605200407C0D0048060043000020202020202020202028282828282020202020202020202020202020202020208810101010101050
:402080001010101010101010100404040404040404040410101010101010414141414141010101010101010101010101010101010101010110101010101042424242424272
:4020C0000202020202020202020202020202020202020202101010102000000000000000000000000000000000000000000000000000000000000000000000000000000058
:40210000000000000000000000000000000000000000000000000000000000000000000000000000000000000000000000000000000000000000000000000000000000009F
:4021400000000000000000000000000000000000000000000000000000232D302B2000686C4C006566674546470030313233343536373839414243444546003031323334D4
:40218000353637383961626364656600F8B500BFF8BC08BC9E4670474D000000CD090000F8B500BFF8BC08BC9E46704729000000C0210000C880FF1F38020000D800000014
:4021C0000000000001000000030000004D61696E204D656E750000000000000000000000416464206E6577207265636F72640000000000005669657720616C6C2072656341
:402200006F7264730000000047656E65726174652050617373776F726400000000000000000000000000000000000000000000000000000000000000000000000000000048
:40224000000000000000000000000000000000000000000000000000000000000000000000000000000000000000000000000000000000000000000000000000000000005E
:40228000000000000000000000000000000000000000000000000000000000000000000000000000000000000200000050617373776F7264204D656E750000000000000014
:4022C000456E7465722050617373776F726400000000000047656E65726174652050617373776F7264000000000000000000000000000000000000000000000000000000CF
:40230000000000000000000000000000000000000000000000000000000000000000000000000000000000000000000000000000000000000000000000000000000000009D
:40234000000000000000000000000000000000000000000000000000000000000000000000000000000000000000000000000000000000000000000000000000000000005D
:402380000000000000000000D883FF1F000000000000000000000000000000000000000000000000000000000000000056200000000000000000000000000000000000002E
:4023C00000000000000000000000000000000000000000000000000000000000000000000000000000000000000000009482FF1F5820000000000000000000000000000031
:40240000000000000000000000000000000000000000000000000000000000000000000000000000000000000000000000000000000000000000000000000000000000009C
:40244000000000000000000000000000000000000000000000000000000000000000000000000000000000000000000000000000000000000000000000000000000000005C
:40248000000000000000000000000000000000000000000000000000000000000000000000000000000000000000000000000000000000000000000000000000000000001C
:4024C00000000000000000000000000000000000000000000000000000000000000000000000000000000000000000000000000000000000000000000000000000000000DC
:020000040003F7
:0200000480007A
:400000000352004007640040016500405E0001403401014043020140500301404A0401405D050140580601405207014046080140580901405E0A0140390B0140050D01408E
:400040005F140140521501404E1601404C1701404A180140421901405A1A0140501B0140044001400B410140054201400243014002450140014601400F490140034C0140E2
:40008000074D0140095001400151014018C019401CC0210F25043108800F846F880F893889720140031D05010610080109920A0E0B600C250DE2104013FF1425150417E09B
:4000C000183119011A021E401F022005210D22202404262127082804293D2A012BC22C312D5D2E082FA2320F33FF343036403A083E403F04540F580459045B045C015F01AF
:40010000840E8630882A8A548CFF8D029301988099029A569C339E0CA040A213A446A6A9AE01B302B4FFB701B908BF04C023C505C602C805C9FFCAFFCBFFCC42CDA0CE70A6
:40014000D008D110D804D904DA04DC01DD01DF01E148E240E348E480E548E680E7480004030A044006200704080409800A080B400E040F02114112181501161118041A026C
:400180001B081F1021042540272028042A212B21308031103208330536023710384839413A103B203E80450447204D045680580159205A805B08C0E7C2CFC4BFCA0FCCAF25
:4001C000CE1FD060D60F01CF0330053007C909730D9E0F60159417601DFD1F022B0F37FF3F4059045F01804082148301844286098702880389CC8B138C1F8D4D8F92904F9D
:4002000091A99354944095A5960B974A98909A0B9BB59C019F04A048A104A202A502A601A801A91AAB60AC03ADFFAE20B01FB4E0B5FFB640B8A0BE50BF10D2F6D420D604B9
:40024000D804D904DB04DC01DD10DF010040010802840440058008100A040BA210281101124119401A081B132210270129822A242B202C043090320833023748380A3A4053
:400280003B203C283D8244014740580259045A405B2060806140622068206910708D71108480862087408A828B01910C9242932094489501968C97409A809C019D309E21CB
:4002C0009F10A308A490A584A60AA723AC10AE04AF09B140B404B640C00FC20FC40FCA2FCC5FCEFFD60FD80DE420E640050806010C010D031604180119081D0521062404BA
:400300002506280230023108330734013604390A3E405280540F580459045B045C015F05810189018F049101920195019C089E10A004A102A408A501A610A804AE02AF017E
:40034000B01CB202B303B401B704B802B908BE01BF04C064C405C60BC7D0C824C9FFCA7FCBFFCC42CDA0CE70D00CD804D904DA04DC10DD01DF01E109E240E309E430E509EE
:4003800000400320088809400A080E800F021110130416A21710184019821B201D221E20202022022504270228822A482C022F903010334034023508360839803B883D4072
:4003C0003E203F0245024D404E044F2054425601581059805A025B046110631072407980800884108580870488108A428B44911C922293229440968497409A809C049D2C14
:400400009E619F78A0A8A313A414A5C5A609A720A912AA21AB01AC02AF08B301C005C296C4F6CAD3CCCCCEBAD080D230D60FD806DE08E020E202E606EE080001011803064D
:40044000050A07140B200C010D140F0A1506171819011D1E210E220228012B012F20311E332034013501360238203F14580459045C015F01800181018208830284018505C3
:40048000860E870A89068C078F029003920493209407972098069A019B109D019F02A010A10FA410A520A802A908AA05AB05AD01AE10AF04B20FB31FB410B720BA08BE10A3
:4004C000BF40C004C704C9FFCA07CBFFCC40CD20CEF0CF05D008D804D904DA04DC11DD02DF01E040E1A8E240E320010A030204400680082009080B4010101101120A1304D4
:400500001712192C1D101E052248250426042744281029122B022E402F44300431403212361037483A653B403C083DA240805044620C6420672080408420854089408C041A
:400540008D208F409040910C922093AE9540968499029A819B029C049D249E609F7CA0EAA121A212A322A404A540A609A780A901AA08B350B510B640B740C09DC20EC45F5A
:40058000CABFCC7FCEFFD001E001E680EE01000E040206040808090B0B040E0E110C1301140E170F19081A201B011E082002220426102801290C2B022D073020321E3401FE
:4005C000370F3E1054015604580459045B045D205F0181188204830684028601870188088B018E048F189502971C9B069C019E02A403A803AB10AD02AF0CB004B11EB2035A
:40060000B408B501BB02BE11BF10D418D604D804D904DB04DC22DD20DF010090010803800580064007180A010E060F20111415201618170119081A081B011C201E4821217D
:4006400022012402270128022B082C082F02302033043601371839423B243DC03F2059025C205E885F0261206201630264206604678080208108820288088B418E208F1072
:4006800090109120920494029580960298029A549D809E019F1CA201A302A540A622AA01AB08B010B310B404B508B628C0FFC2E1C476CA3CCCE6CE2FD6F1D88DE010E44057
:4006C000E6A0E810EA60EC40EE8004100A031010120C180C1A111C1C1E0224142C092E10321F40154103450B46E0470C481949FF4AFF4BFF4EF04F44500C58045A045C02B3
:400700005D025F0166C06A406B0280608108820884588508862088408A088B108D058E028F02931195029604970499069C609E10A038A110A506A701A907AA78AD0BAE0145
:40074000B001B278B310B404B508B602B707B920BF14C032C105C53CC6E0C742C83BC9FFCAFFCBFFCDA0CF01D018D804D904DA04DF01E040E280E440E540E680E840EA801F
:40078000EC40ED20EE8000100220040A0680070908220A020C080E02102011801642171018101D021F58252427012E082F4A37193C083EA03F024022414043044524482096
:4007C0004A024D884F0251105204541C56028202840485028A408B0392049A109E01B210C0F6C2ABC4D5CAF0CCE0CEF0D06AD218E280E480EC20EE088E019204B204E640AF
:40080000EC2005040601071209060D061102130C17061E021F012102230827062B062F063002310E3301360137103B02400449FF4AFF4BFF4C024D0C4EF8580459045A0969
:400840005C105D095F01624863A168F06AF06CF06EF080018204831E851E86038A038B018C018E028F089301960397109801991E9A069B019C029E019F1FA010A101A2201C
:40088000A410A628A710AB02AF04B101B208B31EB407B630BA20BF05C004C9FFCAFFCBFFCC03CD0CCEF4D804D904DA0ADB04DC01DD09DF01E248E3A1E8F0EAF0ECF0EEF061
:4008C00000040418050207020A020D200E211501170818821A021D201E201F8020102142231026012710282029022A202B022E212F12310232483480361837023A083B60F8
:400900003C023D013E043F50424047016D206E406F0179C07A047D0880C5824086188708890190049205936095409640982099029A209B029F10A001A104A20CA302A51289
:40094000A601A780A902AB20AC04AE10C0F4C2E1C430CAFFCCFBCEFED081DE44E001E40CE681EE02003F010A031004100520060109120B080C100D040E02113F12141502EE
:4009800016181718180419011A081D011F1E21022208240F2506291C2A202B022D182F063120351F363F38803922580459045C115F01807F84038710880589018A788C3A97
:4009C0008D018E048F0C9008920794109501960798409A079B049C019D01A022A101A205A308A401A702A801AB05AC03AF04B11CB27FB303BB02BE04D804D904DC10DF016A
:400A0000002001020323050206200701083009010A040B720E040F50102A11011505171019081C0220202108234026102740290A2A202B022C802E202F223090320835029F
:400A40003618374039083B603C803D023E043F10410842208501860888808F089004910C9205932295409640974099029B029C809E209F38A0EAA104A20CA322A404A518FC
:400A8000A601A780AC04AD01B404C0BFC27FC47FCAFFCCFECEFEEA080504070809010B020D040F1810021101130215021601170119081B041C031D041F08240325012702FB
:400AC0003203330C3503371038083B283E04580459045F01811086128763881389FF8A0C8D24900D91089212941F95189B049C1D9D7C9E029F81A008A11CA3E2A404A540A6
:400B0000A80CA960ADE7AF18B00EB378B401B580B61CB71FB920BA02BB88BE10D602D711D804D904DB04DC22DD20DF01002408400A800B110D4910A8170419101A801B80B0
:400B40001F082020230526A02718284029A82F20300932503682371838043A023B903E64591069146B0170A8720288218B088F1091029244959496019724990C9A249D0213
:400B80009F1CA108A440A540A640A780AA08AB02AC10AD80B204B504B620B708C006C2BDC42ECA4FCCFFCE7FD604E220E640E8100084023005100606082609100AC80C064B
:400BC0000F08111012061406170519031B0421032206230C24E02503270428E02C422D0A2E312F043006320134E035103618370F3B883E40405241064203440145C046E0FE
:400C0000480A49FF4AFF4BFF4C624DA04EF04F41500C580459045A045C225D025F016640670269106A306B106D106E106F128108830588028F0692029602970299089B0321
:400C40009E01A910AA02AB01AC02AD06AF09B002B201B507B718B980BB20BE01D804D904DC21DF01000401A0038007040A800B100C090D090E400F02100211141301158010
:400C80001607180119221A201E801F0820042140231025402620270428012A052C082E403108322033013504362039543DC03E024025484049804B105310820283288701F9
:400CC000880289088A018BC091169280930194049580962197B09820998C9A049B019D229F04A108A440A540A642A720AE20B030B180B380C04FC2BCC4CFCA3BCC67CE9E9B
:400D0000D00ED20C301236103708CCF00A020D10841089108C029C109F08A402A610C2C0E6408A0192029F08AE10EE108B089F080320C008AF200A020C805E01640884805C
:400D400086018A019808AC08C2C0D680D880E010E440EE10A001B001E801108074018880A001C408DE04E601000708030A070C05100711011A031B011C0700FF8080000095
:400D800040000000C00000C00000000000000000800040808000800000000000000B0B0000000000010000030200000000000000C00000C00000C0000000000000000000D7
:400DC00000000000000000000000000000000000000000000000000000000000000000000000000000000000000000000000000000000000000000000000000000000000F3
:400E000000000000000000000000000000000000000000000000000000000000000000000000000000000000000000000000000000000000000000000000000000000000B2
:400E40000000000000000000000000000000000000000000000000000000000000000000000000000000000000000000000000000000000000000000000000000000000072
:400E80000000000000000000000000000000000000000000000000000000000000000000000000000000000000000000000000000000000000000000000000000000000032
:0200000490006A
:0400000000004005B7
:0200000490105A
:04000000BC90ACAF55
:0200000490303A
:020000006CC6CC
:0200000490402A
:4000000000000000000000000000000000000000000000000000000000000000000000000000000000000000000000000000000000000000000000000000000000000000C0
:400040000000000000000000000000000000000000000000000000000000000000000000000000000000000000000000000000000000000000000000000000000000000080
:400080000000000000000000000000000000000000000000000000000000000000000000000000000000000000000000000000000000000000000000000000000000000040
:4000C0000000000000000000000000000000000000000000000000000000000000000000000000000000000000000000000000000000000000000000000000000000000000
:0200000490501A
:0C00000000012E16106900012E267D2F35
:00000001FF