:400000000080002011000000350400003504000080B500AF024A034B1B68136000F00EFABC760040FA46004010B5054C237833B9044B13B10448AFF300800123237010BD9D
:40004000E080FF1F00000000AC070000084B10B51BB108490848AFF300800848036803B910BD074B002BFBD0BDE81040184700BF00000000E480FF1FAC070000C880FF1F6E
:400080000000000080B500AF00F08EFA034800F007FB4FF4967000F065FAF7E7B007000080B582B000AF786039603A680021786800F073FB00BF0837BD4680BD80B584B04B
:4000C00000AFF860B9607A607A68B968F86800F059FB00BF1037BD4680BD00BF80B483B000AF0346FB71FEE780B487B000AF7860396000233B6100237B6127E07B699B00DB
:400100007A6813441B68BB60BB68FB73BB6823F0FF03BB6014E03B695B003A6813441B781A46BB68134419463B695B003A6813445B780B703B6901333B61FB7B013BFB7372
:40014000FB7B002BE7D17B6901337B617B690D2BD4D900BF1C37BD4680BC704780B582B000AF334B00221A80324B58221A70324B19221A80314B18221A70314B02221A70D4
:400180004FF0402308221A702E4B03221A702E4B2E4A1278D2B21A702D4B08221A802D4B41F251221A800023FB7019237B6014E0FB785B00DAB2284B1B78DBB203F00103C7
:4001C000DBB21343DBB203F00303FB704FF4F07000F0A2FA7B68013B7B607B68002B02D0FB78032BE4D17B68002B02D10320FFF775FF1A4B4FF480721A80184B07221A7014
:40020000174B00221A70174B48221A70134B00221A70154B02221A70144A144B1B78DBB243F00303DBB2137000BF0837BD4680BD80400040824000408440004086400040D2
:400240000043004000420040A14600400801004922420040204200402542004004400040064000400840004001400040A243004080B483B000AF0B4B1B78FB710A4AFB79A8
:4002800003F00703DBB21370084AFB791B09DBB21370074B44221A7000BF0C37BD4680BC704700BFCF0100496E5800406F5800407658004080B586B000AF72B64B4A4B4B9D
:4002C0001B78DBB243F00403DBB213700023FB7513E0FA7D13465B0013445B00444A13443B613B691A683B699B889BB219461046FFF7D6FEFB7D0133FB75FB7D082BE8D96F
:400300000023FB751CE0FA7D13469B0013445B00384A1344FB60FB681B68BB60FB685B687B60FB681A7A5B7A1B0213437B807B881A467968B868FFF7C1FEFB7D0133FB756C
:40034000FB7D012BDFD92C494FF09040FFF7CCFE2A4A2A4B1B78DBB243F00203DBB21370274A274B1B78DBB243F00203DBB21370244A244B1B78DBB243F04003DBB21370BE
:40038000214A214B1B78DBB243F01003DBB213700A221E491E48FFF791FE08221D491E48FFF78CFE08221D491D48FFF787FE1D4A1C4B1B78DBB243F00803DBB213701A4BEB
:4003C00061221A70FFF7CAFE174B81221A70174B01221A70FFF74CFF0E220A491448FFF76DFE00BF1837BD4680BD00BFE8460040C0070000F80700003800004803500140BE
:4004000013500140A0430040C2430040640500480051004070050048C25100407805004812510040224300400048004004000840B043004080B400AFFEE700BF80B586B058
:4004400000AF224B7B61224B3B61204B7B6135E03B691B68FB603B695B68BB603B699B683B6000237B600CE0FB681A68BB681A60BB680433BB60FB680433FB607B680433E9
:400480007B607A683B689A42EED13B69DB683B6000237B6008E0BB6800221A60BB680433BB607B6804337B607A683B689A42F2D13B6910333B617B69013B7B617B69002BFE
:4004C000C6D100F039F9FFF7DDFDFEE7010000003008000080B582B000AF184B184A1A60184A184B1B6843F40073136000237B600FE07B68032B04D8134A7B6852F82330E4
:4005000000E0124B12497A6841F822307B6801337B607B682F2BECD90E4B1B78DAB20E4B1A700E4B0A4A1A60FFF7C4FE0C4B00221A6000BF0837BD4680BD00BF0CED00E0BF
:400540000004FA0514ED00E000000000350400000080FF1FBC760040C480FF1F08ED00E0C080FF1F80B582B000AF786008E00C4B1B68184600F0D0F87B68A3F500437B605A
:400580007B68B3F5004FF2D8064B1B687A6802FB03F3184600F0C0F800BF0837BD4680BDD880FF1FD080FF1F80B500AF064B1B78002B04D100F00AF8034B01221A7000F021
:4005C00025F800BF80BD00BFFC80FF1F80B400AF094B72221A70094B20221A70084B06221A70084B47221A70074B00221A7000BFBD4680BC704700BF866400408564004004
:4006000022640040326400408164004080B582B000AF00F089F80346FB71114A104B1B78DBB243F02003DBB213700E4A0D4B1B78DBB243F01003DBB213700B4A0A4B1B781E
:40064000DBB243F01003DBB2137000F04BF8FB79184600F06DF800BF0837BD4680BD00BF96640040956400409164004080B483B000AF0346FB7100BF074B1B78DBB203F0A9
:400680000403002BF8D1054AFB79137000BF0C37BD4680BC704700BF616400404164004080B584B000AF78600023FB810C4B1B78002B10D009E0FB897A6813441B7818463D
:4006C000FFF7D4FFFB890133FB81FB897A6813441B78002BEFD100BF1037BD4680BD00BFFC80FF1F80B400AF094A094B1B78DBB243F00203DBB21370064A064B1B78DBB270
:4007000043F00203DBB2137000BFBD4680BC7047A2430040B24300400230800803D000BF01380046FCD17047EFF3108072B6704780F31088704700BF0E4B70B51E460E4C05
:400740000025E41AA410A54204D056F8253098470135F8E700F05AF8084B094C1E46E41AA4100025A54204D056F8253098470135F8E770BD1808000018080000180800004C
:400780002008000010B5431E0A44914204D011F8014B03F8014FF8E710BD03460244934202D003F8011BFAE7704700000000000048656C6C6F2121212121212121000000C9
:4007C000205100405000F0510040100000000140800200030140000380060140800900140140000800400140000A004C014000020050014020000000800201406404004872
:40080000800000060140E40400488000F8B500BFF8BC08BC9E4670474D000000D5040000F8B500BFF8BC08BC9E4670472900000040080000C880FF1F18000000200000000E
:400840000000000000366E01C05D0000180000000000E02E000000000000000000000000000000000000000000000000000000000000000000000000000000000000000090
:400880000000000000000000000000000000000000000000000000000000000000000000000000000000000000000000000000000000000000000000000000000000000038
:4008C00000000000000000000000000000000000000000000000000000000000000000000000000000000000000000000000000000000000000000000000000000000000F8
:4009000000000000000000000000000000000000000000000000000000000000000000000000000000000000000000000000000000000000000000000000000000000000B7
:400940000000000000000000000000000000000000000000000000000000000000000000000000000000000000000000000000000000000000000000000000000000000077
:020000040003F7
:0200000480007A
:40000000035200400464004062000140370101402E02014047030140580401404605014009060140450701400A410140054201400343014003500140001801086408810F19
:40004000840F85388672010D029F047F05120680072808C009020A080B0D0CC00D0D0E021260151116FF172218C019321A041B041CC01E012080250D281F290D2A202C90B1
:400080002D0D2E40312032FF350F37103B203E043F415409580459045B045F01800A8110825484208520864588538A048D1C8E088F02910993109453960C970398039910B7
:4000C0009A449B0CA50CA711AD14B20FB31FB440B520B630B880BA08BE10BF10C013C106C50CC6C0C7BEC839C9FFCAFFCBFFCEF0CF44D00CD401D804D904DA04DB04DC11C1
:40010000DD11DF01E6C0EA40EB02008401920571069808200A540B010E200F081140128818101C081D401E222190238026042708282429802C042D102E082F023218361553
:40014000380439603B013D083E803F0246124D204F085504571A581059045B815C825F1861806330C0FFC26FC40BCA5ECCE6CEDFD050D220D6FFD80800AC020304400702CF
:4001800008310A0E0E8C16401E0822402302261328402C312E862F01300F31013230348A3502364038883A223E043F104003474049FF4A074BFF4C404D204EF04F055008F4
:4001C000580459045A045C115D015F01604061A8624063200004010203080408055109020A180D040F021208130C140416921A0A1B081D191F402102228823102602270800
:40020000281129202A042C022F403102329839543B013C08404442104301450849864A085264530456105701840185809010940495509674970199409A029C109D179E1048
:400240009F01A204A440A688A701AC84AE12B002B308C0FEC2AEC4F2CA9ECC0FCE4FD047D20C008201410401054106AE081009070A860B180D010F401141146915401606AD
:40028000180419081A401B211C961D012096211024922504260428E729222A082B082C862E102F403010313F320F334034E0380839023A303E013F05560257245804590421
:4002C0005B045F01861089018A088B0E8E0894019636988099449B31A004A122A203A351A465A5E7A602A803A9E7AA54AD80B008B118B270B360B407B507B680B780BA2025
:40030000BE41BF01D418D804D904DB04DC10DD10DF0100040110028004200504060108080A120B080E080F1011441311140815021610184419201A301C021D141F11210A27
:4003400025512608271029222A502B102C082F62300132913304371039443B113D20451046045E0261106706684069546A066B0473019010931C944C955C96749701990253
:400380009A409C059D209E80A2A6A447AE01C0EEC267C47FCAFFCC2FCE2FD680D83488019001B001B401B822D440D804DB04DF01001005200606075009020C020E251510B6
:4003C000168017291A401B101E1524282514261127012C022D202E05361A37403D103E8A455547404E045404560158045A0C5E10610862606C086F22760A77288504860150
:4004000090109428950896409A449B109C049E81A002A14BA22AA40CA601A732AC02AD01AF50B504C0F2C2F8C470CAF0CCF0CEF0D0F0D220D620D80EEA100F1053105701D1
:400440005F028711C220D420D6A0E010E61006409F02AF10C020EE40AE40B702E810000308030A03001C1200881403080010010C000C0010E0C00000041143620021EC9ED0
:400480000024001000000000000800002170020F001C000000C1100F0F00E03000020080000040003206400005BEFD0C1FFFFFFF2200F008040000000000000004040400F7
:4004C000000000010000C00040011011C00100114001400100000000000000000000000000000000001023000208000003180000083C00C2010000043F80000033FF0C0025
:400500001F0020E31C1C23E104E700180CC000000044000000C010380F002C1F0000A0A00000040061020300040000CE30FFFFFF62A0F0410C0000000000021104040404DD
:400540001111000100000000000040020010301000101012000000000000000000000000000000000800201A1A001A00000000000804040000000000000B0B0000000000F8
:40058000000000000000000000000000000000000000000000000000000000000000000000000000000000000000000000000000000000000000000000000000000000003B
:4005C00000000000000000000000000000000000000000000000000000000000000000000000000000000000000000000000000000000000000000000000000000000000FB
:4006000000000000000000000000000000000000000000000000000000000000000000000000000000000000000000000000000000000000000000000000000000000000BA
:40064000000000000000000000000000000000000000000000000000000000000000000000000000000000000000000000000000000000000000000000000000000000007A
:0200000490006A
:0400000000004005B7
:0200000490105A
:04000000BC90ACAF55
:0200000490303A
:020000005CFFA3
:0200000490402A
:4000000000000000000000000000000000000000000000000000000000000000000000000000000000000000000000000000000000000000000000000000000000000000C0
:400040000000000000000000000000000000000000000000000000000000000000000000000000000000000000000000000000000000000000000000000000000000000080
:400080000000000000000000000000000000000000000000000000000000000000000000000000000000000000000000000000000000000000000000000000000000000040
:4000C0000000000000000000000000000000000000000000000000000000000000000000000000000000000000000000000000000000000000000000000000000000000000
:0200000490501A
:0C00000000012E16106900012E1A6D6818
:00000001FF