:400000000080002011000000850400008504000008B5044B1A6803F53F5302331A6000F039FA00BFFA46004010B5054C237833B9044B13B10448AFF300800123237010BD32
:400040009881FF1F00000000F8320000084B10B51BB108490848AFF300800848036803B910BD074B002BFBD0BDE81040184700BF000000009C81FF1FF8320000C880FF1F0E
:400080000000000084B010B502AC84E80F00174800F0A2FA002403E02A2000F091FA01341D2CF9DD124800F097FA02A800F094FA104800F091FA0DF1120000F08DFA0E4860
:4000C00000F08AFA0DF1350000F086FA0B4800F083FA002403E02A2000F072FA01341D2CF9DDBDE8104004B0704700BFFC3200000433000014330000283300003C33000093
:40010000F8B50D4616461F461749184801F0AEFF38B3044601F0B2FCAB19144AD16801FB03F3984203DA124800F056FA19E0012201FB05F1204601F075FE18B10D4800F048
:400140004BFA0EE0094BDA6802FB06F23946204601F0FDFF204601F0C3FE10B1064800F03BFA0020F8BD00BF20340000CC80FF1F243400004C3400006C340000F0B5B1B0D3
:4001800000F010FA01F050FE09222DA9002001F0E9FF30B1264800F01FFA2DA800F01CFA05E0244800F018FA234800F015FA4FF47A6000F031FA0DAE3346022200210F4616
:4001C0000846FFF79DFF6C4611AD0FCD0FC40FCD0FC495E80F0084E80F0096E80F00FFF751FF6C4621AD0FCD0FC40FCD0FC495E80F0084E80F001DAB0FCBFFF743FF0F4861
:4002000000F0EAF93346012211463846FFF778FF6C4611AD0FCD0FC40FCD0FC495E80F0084E80F0096E80F00FFF72CFFBFE700BF8C340000A0340000B4340000C4340000B1
:40024000FEE700BFF0B40022174611E050F82760F3B226F0FF0608E001EB420511F812406D78A5550132013BDBB2002BF4D10137102FEBD9F0BC7047064B1B78DBB203F0F4
:400280000701054A11701B09013213704422034B1A707047CF0100496E5800407658004008B50A46002103F01EF808BD38B50024264B1C80582202331A70192502331D8007
:4002C000182202331A70022203F27A231A7008224FF040231A70032103F5007319701C4B1B78DBB21B490B701B4B1A8041F25122023B1A800CE0194B1B7803F0010343EA6D
:40030000440404F003044FF4F07000F09DF9013D0DB1032CEFD115B90320FFF791FF104B4FF480721A8007221A7000220D490A704820023108701A700222033B1A700A4A43
:40034000137843F00303137038BD00BF8040004008010049A146004022420040254200400440004006400040A243004008B502F0AFFF08BD38B572B6334A137843F0040316
:40038000137000240CE0314D630019194A0011462A44084691882858FFF782FF0134E4B2092CF0D900240CE02848A20011194B000344B3F84420196CD86BFFF7D7FF0134AB
:4003C000E4B2022CF0D922494FF09040FFF73AFF204A137843F0020313701032137843F0020313701C4C237843F040032370A2F58632513A137843F0100313700A221749C9
:400400001748FFF7B3FF082216491748FFF7AEFF082216491648FFF7A9FF164A137843F008031370144D61232B70FFF73FFF81232B700122114B1A70FFF71EFF0E22214653
:400440000F48FFF793FF38BDE8460040CC3400004400004803500140A043004090050048C05100409C05004812510040A40500482251004022430040004800400400084020
:40048000B043004008B502F0F7FE03680C2B00D1FEE7FEE708B5104E104D16E029686B68AC68002204E051F8040B43F8040B0432A242F8D1E868002203E0002143F8041BE7
:4004C00004328242F9D11035013E002EE6D102F0D9FEFFF753FEFEE7010000007836000008B5104A104B1A60104A136843F40073136000230AE0032B03D80D4A52F8231063
:4005000000E00C490C4A42F8231001332F2BF2D90A4B1A780A4B1A70074A0A4B1A60FFF729FF08BD0004FA050CED00E014ED00E000000000850400000080FF1FBC7600404B
:40054000C080FF1F08ED00E07222074B1A702022013B1A700622613B1A70472210331A700022B03B1A7070478A65004010B500F073F804460A4A137843F020031370013A72
:40058000137843F010031370A2F20112137843F01003137000F032F8204600F061F810BD9A65004008B5054B1B7823B9FFF7CCFF0122024B1A70FFF7D9FF08BDB481FF1FFA
:4005C000034B1B7813F0040FFAD1024B18707047686400404B64004038B5074B1B782BB938BDFFF7EDFF0134A4B201E005460024285D0028F5D138BDB481FF1F054A1378B5
:4006000043F0020313701032137843F002031370704700BFA243004010B5044605E0084B186800F011F8A4F50044B4F5004FF6D8034B586800FB04F000F006F810BD00BF02
:400640001C81FF1F000000000230800803D000BF01380046FCD17047EFF3108072B6704780F31088704700BF0C2802D0102805D102E001EB51007047480070478800704776
:40068000036840689B685B6AB0FBF3F0704710B5046D836CE4B199421AD3E318994217D2013B99420CBF4FF0FF31013172B190F836300C2B02D0102B05D102E00905090D25
:4006C00003E089B201E021F070411160012010BD002010BD40F6F473984201D80C2070474FF6F473984294BF102020207047027F8368023902FB01307047431EDBB21F2BF6
:4007000013D92F2811D007D826280ED002D8222809D10AE02A3804E03A2804D33F2804D95B38022801D90120704700207047034638B30B2A01DD0B2200E0013A00201CE0EE
:40074000082809D191F808C0BCF1200F0DD04FF02E0C03F801CB08E038B991F800C0BCF1050F02D1ACF1200C04E011F800C0BCF1200F01D003F801CB01309042E0DB0022A5
:400780001A7070472DE9F04788B005AE04460D463046114600229A469DF84490BDF84C80BDF8507000F01EFD08B1002413E020462946524600F00FFE044660B1129B314631
:4007C0000093109A4B46CDF80480029700F0C6FF284601F0F5FA204608B0BDE8F08710B59DF80C400394BDE8104000F0D9BD00002DE9F04F144E87B0109DDDF848809DF887
:400800004440376800950194CDF8088005937F68934682468946B84732680C4BDDF814C09A420DD060B9504649465A46634610951194CDF8488007B0BDE8F04FFFF7CFBF60
:4008400007B0BDE8F08F00BF2C81FF1F2835000070B5C37A04460B7010300D4601F0AEF8064604F10E0001F0A9F840EA0640686004F1120001F0A2F80004A86004F11800A1
:4008800001F09CF8064604F1160001F097F840EA0640E86004F11C0001F077F8286170BD2DE9F845038A04460E46924687692BB907F118002146626900F064FC384651462C
:4008C000224600F0E7FC0546204600F065FCD5B12B78C3B1E52BF1D095F80B80B8F10F0FECD018F00808E9D170692946B269FFF71EFF28463146FFF7ABFF238A404601337E
:400900002382BDE8F8854FF0FF30BDE8F885022201F0D2BB2DE9F04790F8366005460C46304611469146FFF79FFEB5F81E80AB6A20FA08F89845824602D30020BDE8F0874F
:400940006B8E05F118079844204641463A46FFF7DEFF204601F0CFFB18B14FF0FF30BDE8F087AA8BA168013A0AEA020A1FFA8AFA92450AEB01031AF8015001D0013309E0A2
:40098000204608F101013A46FFF7C1FF204601F0B2FBA36818780C2E45EA002009D0202E0FD15D7840EA05409D7840EA0560BDE8F08719F0010F02D00009BDE8F087000558
:4009C000000DBDE8F08700002DE9F34190F83630144603FB02F7828B8846D200511E0F40D71B0546B7FBF3F7002618E00E4B93F88030022B05D12846214601AAFFF747FE91
:400A000028B9284641462246FFF784FF0190019B0134A34205D10136B6B2013F1C46002FE4DC3046BDE8FC81DC91FF1F2DE9F34105460E46144698461F681CE0114B93F804
:400A40008030022B05D12846214601AAFFF71FFE28B9284631462246FFF75CFF0190737B0BB100240BE0AA6B019B0132934204D81BB1013F1C46002FE0D1C8F800702046EE
:400A8000BDE8FC81DC91FF1F73B504680E4623681BB9FFF7F5FD013039E0FFF7F1FD236998423CBF4FF0FF3323612369B3F1FF3F04D12268013323616261E3832169E28B31
:400AC000451A954234BF2B4613463BB16069C918C018D21A60612161E283ED1A0DB9284615E002AB43F8045D31466269A068FFF79DFF6061019B21690246C91A4D192561AE
:400B000023B9A0683146FFF75FFFE08301987CBD13B502AC44F8043D2346FFF787FF019B002B18BF00201CBD2DE9F0410746884615461E460024384641462A460123FFF78E
:400B4000E7FF30B1BA6B0134944201D80546F2E7002406B134602846BDE8F0812DE9F74F04460D461E461746002A00F0B98090F836001146FFF778FDB4F81EA0A36A20FA70
:400B80000AFA9A45814680F0AB80638E04F118089A44284651464246FFF7B9FE284601F0AAFA6B7B002B40F09B80A38BAA68013B09EA03091FFA89F303EB020926B9216CFE
:400BC0008F4203D2276401E0791C216494F8361010290AD0202911D1484600F0D6FE31460746484600F0DCFE4EE0484600F0E6FEB1B20746484600F0DDFE45E0284600928D
:400C0000019301F0DDF8009A019B17F0010F13F802B01BD00BF00F0141EA06119954A28B013A934202D009F1010309E028460AF101014246FFF76BFE284601F05CFAAB681B
:400C40001F7832093F0147EA1B171CE09E54A28B013A934202D009F1010309E028460AF101014246FFF753FE284601F044FAAB681A78310A02F00F0701F00F0122F00F0238
:400C80004BEA07270A431A70284601F099F894F83630202B18D1B4F84620AAB9B4F84410284601F009FA284601F025FAA8684FF0FF3100F5F47000F073FE284601F080F87F
:400CC0004FF00103A4F84630E36BB3F1FF3F09D00FB10133E3632EB1E36B013BE36301E0012000E00020BDE8FE8F6FF07043FFF735BF70B5036D04460E4693B1002506E0FB
:400D0000AA1820463146531CFFF728FF0135236DA26C013B9D42F3D320463146AA18FFF7E4FF0023A3642365E364636570BD70B506460D461C460AB1FFF710FF30462946A2
:400D40002246BDE87040FFF7D0BF00002DE9F84504460E4615461F46002B36D01C4B93F88030022B31D190F8368011464046FFF77BFCB4F81CA00AF1FF3A2AEA000A4FEA03
:400D8000CA0ABAFBF8FAAA44A8460EE0204631464246FFF7BFFD50B9A36C0BB9C4F84880E36C08F101080133E364D045EED9E36C5BB167653B685A6922B1204631462B4621
:400DC000FFF7CCFE236D01332365BDE8F88500BFDC91FF1F2DE9F8459846274B054693F880300F46022B1646846B19D1436D984503D0C36C0BB1FFF77CFFB8F1000F0FD048
:400E00006B6D43450CD12B6DEA6C9A4204D9AC6C1C1901332B652CE028463946FFF769FF012E04F1010A01D9564505D92E6C012E01D9564500D902263446284639462246D6
:400E4000FFF768FD50B101345445F6D902240DE0284639462246FFF75DFD30B92846394622464346FFF772FF03E00134B442EFD300242046BDE8F885DC91FF1FF8B5074692
:400E80000E461546FFF7A6FF044628B1384631462A462346FFF74BFF2046F8BDB2F1FF3F73B504460D4614D0561A013611D001F013F9084B00211A8AA06800F0EBFC022371
:400EC00000936068A3682946324600F06BFE0023E3737CBDDC91FF1F2DE9F84F984690F8363004460C2B0D4616465AD04FF0FF3AD1463CE094F836003146FFF7B5FBB4F856
:400F00001CB0678E0BF1FF3B10EA0B0BE38B1DD1D840013F3F1802222846394601F0CCF8A38BAA689B0852F80B1079B9013B0BF1040BF8D13BE0494628465246FFF7AEFFFC
:400F4000B946BB46284600F03EFFDA462946324601232046FFF7DCFD29460746324620460023FFF7FBFD2FB108F1FF383E46B8F1000FBFD1284649465246FFF78FFF13E0E3
:400F80002946324601232046FFF7C2FD29460746324620460023FFF7E1FD2FB108F1FF383E46B8F1000FEBD14046BDE8F88F0AF1010B5F45BFD1C5E72DE9F845054600F04B
:400FC000D5FE044608B90546D0E0284600F016FE684E338A834208D338B10021284622460B4600F09AFD002804DA204600F0D4FE0025BBE004F5FF7000F0E0FC4AF6552301
:40100000984240F0AD8004F10B0000F0D7FC10F47E4F074600F0A480338A8342C0F0A080237C022B40F09C8094F80D80B8F1000F00F096800021402205F1180000F02AFC9C
:4010400004F1130000F0BAFC064620B904F1200000F09BFC064604F1160000F0AFFC824680B904F1280000F0A9FC10F08F0F77D104F1240000F089FC824604F12C0000F00F
:4010800084FCE862022385F83530C5F828A0AE6185F8348004F10E0000F090FC688604F1110000F08BFC95F835206B8E288602FB0A3A7A0992B2B0FBF2F25244AF832A623C
:4010C000092301219940B94201D1EB8302E00133102BF6D108FB07F7B61AB6FBF8F6AE636F623046FFF7F6FA202818BFC5F82CA04FF0FF33202885F83600EB6332D104F16E
:40110000300000F05BFC00230146A5F844002246284600F002FD002822DB204600F035FC804604F5F27000F030FC074604F5FE7000F02BFC104B984514D1104B9F4211D139
:401140000F4B98420ED104F5F67000F01EFC286404F5F47000F019FCB04203D8E86301E0002500E00125204600F016FE2846BDE8F88500BFDC91FF1F5252614172724161D1
:40118000000055AA00238B60837F202B01D102B942694A600A60704783680133836070472DE9F0410C46202105461F469DF818604FF0000800F06EFB10E014F8080036B9EF
:4011C000E52804D1B8F1000F01D1E03802E000F0BFFBC0B205F8080008F10108B845ECDBBDE8F0812DE9F74506460D4608462849002A14BF92464FF0FF3A00F081FB80465D
:4012000050B930462946022200F01FFDB01C2021092200F03FFB37E04FF0FF34002715F80780B8F1000F01D0574505D1B4F1FF3F08BF3C4664B925E04046FFF75EFA08B312
:40124000B8F12E0F08BF3C4601370D2FE7D119E0082C17DC3F1B042F14DC30462946082223464FF00008CDF80080FFF799FF0123611C009306F10800691803227B1EFFF77C
:401280008FFF01E04FF001084046BDE8FE8500BF383500002DE9F74FD2F808B0436A4FEA4B18B8FBF3F8D368054698450E461446D2F8009001D20023D360B5F81EA0E3688E
:4012C000AAF1050A0BB9D4F804902BFA0AF7B9F1000F17D095F83420B8EB0303019206D04A4628463146FFF713FC814640B3494605F11800FFF7FBF9019B591E01EA0707A0
:40130000C11906E02B8E43FA0AF39F4218D2E96A79183046C4F80090C4F80C80012200F0CBFE304600F0E7FE50B9013000FA0AFAB3680AF1FF3A0AEA0B0B03EB4B1000E060
:401340000020BDE8FE8F2DE9FF4107460E4601A811461A460A9D9DF82C40FFF743FFC8B9384631462A46FFF795FF8046A0B1037883B101A90B2200F07DFA38B998F80B30B4
:4013800004EA0302A24201D1082B05D12846FFF703FFE5E74FF00008404604B0BDE8F0812DE9F04587B002AF04460E46154698469DF83CA039460E9A1830FFF7E3FE20468B
:4013C00031462A4643460097CDF804A0FFF7BBFF07B0BDE8F0852DE9F04500F1180785B005460C46384669469246FFF7CBFE284621466A46FFF74EFF06466846E846FFF725
:40140000CBFE002E37D1BAF1000F02D12B8E002B35D12146009A00232846FFF785FB2146024600232846FFF729FD8046204600F05EFEB8F1000F22D0AA8B0021A06800F062
:4014400029FA38464146FFF752F995F8347000257E1E361808E031462046012200F02CFE204600F005FE013E01357B1BB3F1FF3FF1D1A66803E033780BB1E52BB7D1304653
:4014800005B0BDE8F08538B504461A3000F096FA054604F1140000F091FA45EA004038BD2DE9F0451D4685B007460E462A6010465C21904600F053FA4FF0000A0446A045BD
:4014C00008D108F10108C5F8008040465C2100F046FA044694B1C8EB0403002B0EDD10220192103A0292384631464246CDF800A0FFF77EF970B1FFF7C6FF824628685C219F
:4015000000F02DFAA04604460028D8D10C9B0130C3F800A005B0BDE8F085F8B505460C461E461746DAB16FF01A031370084600F047FC16B94FF47A7608E007F11C0000F08D
:4015400024FA6B6A5E1E3618B6FBF3F63846FFF79AFF2146024633462846FFF7BDFC607BF8BD00002DE9F04FD1F8008093B0D8F808700BAD044608930E464FF0FF33394628
:40158000284609920F939DF870A000F079FC10AB009338462946224611ABFFF781FFD0B1F27A109B07920FAA00930292002338462946119A0193FFF71BF9044680B1C37A7F
:4015C00013F0100F07D10D9BDDF82CB0C3EB00094FEA691906E0284600F080FD0125A3E083468146099B002B3CD0002C33D0524B5D6912E02B687BB1AA7A6AB19A8B4A451B
:401600000AD19A695A4507D19B68BB4204D14FF6F772328100257EE0ED68002DEAD10DF12C0C6146384622460123CDF818C0FFF774FFDDF818C018B14FF0FF3333816AE08D
:401640003E4B1B68DC6824B138466146109A0F9BA0472C4606E0BAF1000F03D1089A002A44D065E0089BEBB1CCB1E37A13F0010F0BD0079A12F0150F07D04FF6FA733381CF
:40168000BAF1000F01D1012500E000252046FFF7FAFE074604F11C0000F077F929E0BAF1000F45D0BAF1010F01D000251BE0ECB900F080FF214B20221B68019282B2000CC5
:4016C00003920490009402949D6838460BA9119A109BA84750B10D9ADDF82CB0C2EB00094FEA6919254628462F4602E00125002007464FF0FF33C8F81030C8F818B0A8F8F5
:401700001C90079AC8F8040012F0010308BF1846C8F800707060B6F908300BA835EA230528BF012500F0DAFC284613B0BDE8F08F01255046DCE700BFDC91FF1F2C81FF1FD0
:4017400070B505460C461A3089B200F033F905F11400210CBDE8704000F02CB92DE9F0470446BDF824700D469146002120229A46BDF82860DDF8208000F08CF80B2220469F
:40178000294600F062FA04F10E00394684F80BA000F010F904F11000314600F00BF904F11600394600F006F904F11800314600F001F920464946FFF7C3FF04F11C00414630
:4017C000BDE8F04700F0ECB82DE9F041836804460D4608460122A1699E8B00F06DFC2846B4F81C80AF6800F086FCF8B9013E06EA4816B6B2BE1906F11C00616800F0D0F85D
:4018000021683046FFF79CFF00F0D4FE0446A1B206F1160000F0CEF806F11800210C00F0C9F82846BDE8F04100F061BCBDE8F0817FB50668B0F90830B568C3B9C37A13F046
:40184000110F14D02946684600F01AFB30466946FFF7BAFF064B6C4693F88030022B03D128466946FFF745FA684600F037FC7FBDDC91FF1F10B5002308E0C45C11F803C089
:40188000013A0133644501D0012010BD002AF4D1104610BD70B5034602E003F8011C013A1C4622B103F003050133002DF5D193081ED04FF001354D4308E044F8105C44F8EB
:4018C0000C5C44F8085C44F8045C043B032BA44604F11004F1DC1C46002603E04CF80650013B0436002BF9D102F003020CEB8404002302E0E154013A0133002AFAD170BD66
:40190000002310F803C0CA5C624501D0012070470133002AF5D110467047002300E00133C25C002AFBD11846704710B500230BE0C45C11F803C0644501D0012010BDC418AF
:401940006478013314B1013A002AF1DC002010BDA0F16103192B98BF00F0DF007047C9B203E00BB918467047013003788B42F8D1704742780178431C42EA01205A789B7869
:4019800042EA002043EA002070478378C27803EB0222437803EB0222037803EB0220704703460A0A03F8011B42700A0C090E5A70997070470170090A417070474278037883
:4019C00043EA022070470000094A0A4BC11C10B5146821F0030118680919814201D9002010BD11609A685868013220189A6010BD6092FF1FB881FF1F08B5FFF7E5FF00B9BE
:401A0000FEE708BDFFF7E0BF30B1044A9368013B93600BB9024A1360704700BFB881FF1F6092FF1F014B586019607047B881FF1F38B50546FFF7E0FF002104462A46FFF745
:401A400029FF204638BD000010B5084CA37C0BB1002010BD4FF40073238200F09DFDA37C012043F00103A37410BD00BFDC91FF1F08B901387047036858687047FFF7F8BF38
:401A800008B583680BB10020984708BD08B583680BB10120984708BD10B504680079A468A04710BD37B59DF81850046800790095E468A0473EBD08B5036800799B69984756
:401AC00008BD036810B55B69044623B10079984708B1002000E00120607110BD10B5437904460BB9FFF7EDFF607910BDF7B504461F460E461546FFF7F1FF2046FFF7C6FF17
:401B00002A463146012320460097FFF7C5FF05462046FFF7B5FF2846FEBD10B504690919BDE81040FFF7E2BF2DE9F341044615461F460E469DF82080FFF7D0FF2046FFF781
:401B4000A5FF2B4631463A462046CDF80080FFF7A3FF05462046FFF793FF2846BDE8FC8130B504699DF80C5009190395BDE83040FFF7DABFF7B5044615461F460E46FFF7AC
:401B8000ADFF2046FFF782FF0123009331462B463A462046FFF786FF05462046FFF770FF2846FEBD30B504699DF80C5009190395BDE83040FFF7DEBF73B504460E46154697
:401BC000FFF78CFF2046FFF761FF00232A460093314601332046FFF765FF05462046FFF74FFF002D14BF4FF0FF3000207CBD10B504690919BDE81040FFF7DEBF30B505464F
:401C000085B0FFF76BFF2B6828791C694FF47B71002201ABA04708B1002001E0BDF80C0005B030BD70B506460D46FFF757FF336830791C694FF47B7100222B46A0470028AB
:401C400014BF4FF0FF30002070BD11F0030F70B584460B4632D110F0030F2FD195100446AC4611E053F8106CACF1040C44F8106C53F80C6C44F80C6C53F8086C44F8086C8A
:401C800053F8046C44F8046C10341033BCF1030FE8D8AB081B0100EB030CCB1815F003050AD0284600215C584CF8014004310138F9D1AD00AC445B1902F0030213F0010F09
:401CC00019462FD11CF0010F60462BD15410254610E031F8086C043D20F8086C31F8066C20F8066C31F8046C20F8046C31F8026C20F8026C08300831032DEAD8A108C90066
:401D00005B1814F003048C440AD0204600215D5A2CF8015002310138F9D16400A4441B1902F00102614610E013F8040C043A01F8040C13F8030C01F8030C13F8020C01F8F0
:401D4000020C13F8010C01F8010C18460433032A8C4601F10401E7DC32B10023C15C0CF8031001339342F9D170BD0000094B10B5D8689A68002308E0114652F8084B1CB980
:401D800001230B60486810BD01338342F4D3002010BD00BFDC91FF1F084B30B50022DC689B6808E05D6819460833854202D100230B6030BD0132A242F4D330BDDC91FF1FCD
:401DC00001230373704700230373704710B1002282720260704718B1027B0AB1013A02737047034608B901387047012A03D0022A03D062B105E0426801E0026852688918AB
:401E000005E04FF6FD7202814FF0FF3070475A688A4201D1002070474FF0000259601A8100207047FFF7DDBF38B5FFF70DFE20B3124C4200E2600001FFF7FAFD238AA060EE
:401E4000E0685843FFF7F4FDA568E168228A002304E005EBC3046060013380188B42F8D31020FFF7E5FD054C60612820FFF7E0FDA37CA06143F00203A37438BDDC91FF1F90
:401E800038B510220D4600210446FFF703FDFFF76DFF08B9013038BDA0604FF0FF33002065602360A07338BD38B5837A044643B10568FFF7BDFC2846FFF78DFF2046FFF795
:401EC00085FF002038BD08B50368827A03B19B6822B11BB1FFF7E8FF002008BD012008BD08B901307047FFF7EEBF000038B5104B9C69217B59B921606160A16004F1100098
:401F00001422FFF7C7FC237B013323730DE0656A45B92820FFF776FD606218B129462822FFF7B8FC646A002CE3D1204638BD00BFDC91FF1F38B50E4B5C69A17AE56839B939
:401F400020461022FFF7A6FC0123A372E5600CE045B91020FFF756FDE06018B129461022FFF798FCE468002CE7D1204638BD00BFDC91FF1F2DE9F74F0646002088469146DA
:401F80009B469DF830A09DF83470FFF7AFFF054608B9044610E0FFF7CDFF044660B180F80B900560AE604046214652463B46CDF800B0FFF7D7FA30B12046FFF707FF284622
:401FC000FFF709FF00242046BDE8FE8F2DE9FF410C461F4604A9002341F8043D15469DF8286000F0EFF88046B8B1039B0BB11B789BB1404600F06FF900280EDD14F0150F00
:4020000001D0032809D1039939B1404622462B4600970196FFF7AEFF00E0002004B0BDE8F08100002DE9F3410646884600240E4D404655F83410E700FFF762FC10B9002C20
:4020400004DA0DE001340F2CF1D109E07D19A87929790090EA796B793046FFF7B7FF00E00020BDE8FC8100BF3C350000FFF7DABF10B5437B04460BB1012010BD406821689F
:40208000A268A37BFFF7B3FD10B10120607310BD207310BD10B5437B044663B9037B53B140682168A268A37BFFF7A1FD08B1012363730023237310BD036870B5994204462A
:4020C0000D46164607D0037B0BB1FFF7E3FF00232560A673E37370BDFFF7DCBF10B50446FFF7D8FFA068BDE81040FFF755BE01230373FFF7CFBF10B50446407B08B10120CF
:4021000010BDE37B5BB960682168A268A37BFFF704FD10B10120607310BD0122E27310BD30B592B188B1857A046875B16CB190F80BC01CF0080C04D14FF6FB7202816046F7
:4021400030BDBDE8304000F0E2B8002030BDFFF7E7BF08B5436813B94FF0FF3008BD984708BD0000F8B50C4617460023144D01E0ED6D01338342FBDB2B6828791B6898479F
:4021800006460CB92046F8BDFFF7C7FB0530B84214DC22460020335C013223540130315C0029F8D113464FF03A0C03F801CB2C7903303034547083F801C09970F8BD00BF4D
:4021C000F891FF1F2DE9F0470F463A210646FFF7C6FB044610B93446174D27E00378C6EB000A5BB114F8013F43B162783A2A05D1A3F130085FFA88F8023401E04FF00008A7
:402200000D4D2B6828791B6898478146FFF785FB504508D1484631465246FFF786FB10B92B79434502D0ED6D002DEAD107B13C602846BDE8F08700BFF891FF1FF8B5174C92
:40224000064694F85B10E56D69B9602201272046FFF720FB84F85B70E5653046FFF779FF00280EDA18E045B96020FFF7CBFBE06518B129466022FFF70DFBE46D002CE0D1A4
:402280000AE0074B2660DA6F0132DA670323207184F85B7084F85A302046F8BDF891FF1FDC91FF1FFFF7CABF38B504460D46FFF702FC08B9013838BD2046FFF70FFC204695
:4022C00000F048F92046FEF777FE08B184F8595094F8590038BD90F8593023B990F85A1009B1FFF7E1BF1846704707B5426803460AB910460AE08168002000904868196865
:40230000DB68FFF72DFC003818BF01200EBD2DE9F04F0368B0F9085095B0044689469F68002D40F0B78041685868814203D34FF0FF312181AFE0411A8A4228BF0A460292F2
:4023400022B94FF0FF322281029DA4E01B68002B00F0A080394610AE0CA8FFF791FD39463046FFF78DFDD4F800B0029ADBF80870AA4607F118030693796A4FF0FF330591BB
:40238000099508930A96049220460CA9FEF77CFB00286ED1DBF81030059901334B43626804999B1A994228BF19460391BB8BDBF81410013B134006980193FEF798F9F98B74
:4023C000656897F8342035FA01F1013A019B02EA0101CDF81CB000EB01081E46BB46BBF81C30039A9D1B954228BF15469D4211D010AF384641460022FFF75EFE3846FFF784
:402400007AFE002835D11299484671182A46FFF71CFC12E0099B089A9A1890450BD008A8FFF763FF00283AD10123CDF820800993CDF82C9001E001330993049B03995B1BD9
:4024400004936368A9445B19491BAA446360039103D008F101080026C1E7049A5F46DDF81CB0002A90D108A85546FFF73EFFB0B900E05546029B9D4205D0B4F9083013B97A
:402480004FF6F97121810CA8FFF728FE10A8FFF725FE00E00025284615B0BDE8F08F0025EBE70378E92B01D101207047EB2B01D0002070478078902814BF00200120704765
:4024C00008B500F5FF70FFF779FA4AF65523984214BF0020012008BD01EB001000F5E370FFF753BAF0B50D4685B01446064658B352B300210B46FFF7F9FA002824DB2046D5
:40250000FFF7DEFF00B32046FFF7CBFF10B10024274616E02146FFF7DFFF074604F5E570FFF733FA01A904463046FFF77BFB5CB157B1E219FF23120AB2FBF3F2029B9A427F
:4025400002D81DB12C6001E04FF0FF37384605B0F0BD000073B50446FFF750FB0646FFF705FC0C4B05461B8AB3420DD366B1204601A92A46FFF7B6FFB0F1FF3F04D0206169
:40258000019B6361002400E0FF242846FFF704FC60B27CBDDC91FF1F08B54FF480510348FFF740FA0248FFF77DFE08BDC481FF1F2C3600004FF40410704700BF4FF6FF7048
:4025C00070470000014B1868704700BFC491FF1F004870474C36000000F016BD37B501220DF10701054600F015FD9DF80740FF2C14BF0A240724284601220DF1070100F00F
:4026000009FD9DF80700FF2803D1013CE4B2002CF1D13EBD37B50469857828460DF10701012200F0F7FC9DF807300BB1002003E0013CF2D14FF0FF303EBD37B54FF0FF3320
:4026400005460C468DF8073006E028460DF10701012200F0EDFC013C002CF6DC3EBD000038B5094C2368032B02DD4FF0FF3509E0DDB2013323601420FFF7DAF904EB850484
:4026800060608570284638BDC491FF1F08B5034B4FF400711B68984708BD00BF3081FF1F4FEAD20CACEBD103CCF10F0C10B501336044002410F801CB013B4CEA0424F9D1C8
:4026C00001F00703511A02228A40DC40013A04EA020010BD7FB5130E85788DF80530130C01F03F018DF80630130A41F040018DF8073000238DF808208DF804101A4601A99D
:4027000011F802C000215B00DBB283EA0C0E1EF0800F18BF83F009030131082904D04FEA4C0C5FFA8CFCEEE70132052AE7D15B0043F001038DF809308678C46801223046A0
:4027400003A900F067FC9DF80C30FF2B04D00CB9FF2009E0013CF1E7284601A9062200F067FC2846FFF73AFF04B070BDF7B5847806460F4620460121FFF75FFF204600F01D
:40278000E5FB304609210022FFF7A4FF8DF8070028BBF6680546012220460DF1060100F039FC9DF80630FE2B06D0FC2B04D00135ADB2B542EFD112E00DF107052046394621
:4027C000102200F027FC29462046012200F022FC29462046012200F01DFC002500E0FF25204600F0BDFB20460121FFF726FF2846FEBD00002DE9F04F9B46494B89B003EB99
:40280000800305925C684A02029103924FF00309029AA578E678039B2846022E08BF13461E4600F09DFB01212846FFF706FFBBF1010F0CBF4FF0110A4FF0120A284600F077
:4028400085FB204651463246FFF744FF002851D1059F5E46A378E268B44604924FF000081E460FE0012230460DF11F01CDF804C000F0D0FB9DF81F20DDF804C0FE2A05D0A4
:4028800008F10108049B9845ECD333E0284639464FF40072664600F0BDFB0222284607A900F0B8FB9DF81C30384601939DF81D80FFF7ECFE4FF6FF729042019B0CD048EAB6
:4028C0000328404508D0BAF1120F13D120460C210022FFF7FFFE0DE0013E02D007F50077B8E7BAF1120F07D120460C213246FFF7F1FE01E04FF0FF36284600F031FB284607
:402900000121FFF79AFE3EB1B9F1000F02D009F1FF397DE74FF0FF36304609B0BDE8F08FC491FF1F2DE9F04F99464C4B87B0029203EB80039DF840205D68009103926B78D3
:40294000002B40F085804B0201930327009BAC78EE78019A2046022E08BF1A46164600F0FFFA01212046FFF768FEB9F1010F0CBF4FF0180A4FF0190A204600F0E7FA284659
:4029800051463246FFF7A6FE8DF81700002850D120460121FFF751FE029ECB46B8463046FFF774FE0DF11707BAF1180F0CBFFE23FC2301228DF817308DF81500030A394621
:4029C00020468DF8143000F033FB204631464FF4007200F02DFB0222204605A900F028FB01222046394600F015FB9DF8173003F01F03052B1CD12846FFF70CFEC0B9039AFB
:402A00000AB906F50076BBF1010BC8D1BAF1190F474611D106A96FF00203204601F8013D012200F005FB2846FFF7F4FD20B100E047464FF0FF3600E00026204600F090FA1F
:402A400020460121FFF7F9FD26B10FB1013F7DE74FF0FF36304607B0BDE8F08FC491FF1F2DE9F04F877887B0044638460D4600F06DFA20463A210022FFF72CFE064638B13A
:402A8000384600F06DFA38460121FFF7D6FD58E00DF1140804224146384600F0BBFA4046FEF767FF8046384600F05AFA01213846FFF7C3FDB8F1000F28F07F02B8BF4FEAF6
:402AC000987BD2B240F272634FEA1828B8BF0BF0010B1FFA88F8002A14BF1A460022012111EA080F05D10136F6B24900102E89B2F6D140F27260824233460DD0642272435E
:402B000002F5FA6208E011EA080F07D049000133013689B2DBB2F6B20F2EF4D964214B434FF6FE7103F5FA6302EA01014FF6FC72384603EA020200F049FA10F0FF0F40F0A6
:402B400099804FF0FF3092E028467E217F22FFF7A7FD8246EB78DFF82C8103F0030203F0780308EBD30358F822101B7C3846594389B200F001FA0646002877D06B7803F04C
:402B80000702DB1003F00F0308EB82024344126A93F810800292B8F1000F67D0A978284603911C221A21FFF77BFD0190BAF1000F1FD1502153222846FFF772FD4FF00109BD
:402BC00009FA00F92F2131222846FFF769FD1FFA89F982463E21284649224FEA5929FFF75FFD0AF1020A09FA0AF9013000FB09F910E0BAF1010F01D0012038E02846302115
:402C00004522FFF74DFD4FEA8029BBF1000F01D00223E37008FB06F2029B0399B2FBF3F2642303FB01225A437343D208DB089A4294BFE260E360FA235E43019BF6089A40A3
:402C40000C21B24294BF2261266128460D22FFF727FD0546384600F08DF94FF4007128436070A180C4F80890002000E0FF2007B0BDE8F08FE378A778012B3FF465AF4FF056
:402C8000000A67E7E4350000F0B5857887B004464FF4C871284600F06FF9B0F5C87F00F2CC804CF25033E3600026284600F058F90A212846FFF7C1FC624B93E80300019033
:402CC0002846ADF8081000F041F9062201A9284600F0AEF92846FFF781FC0746284600F03FF901212846FFF7A8FC17F0010F03D10136052ED9D1A0E0284600F027F9082194
:402D000020464FF4D572FFF7E5FC10F0040F52D0284600F025F9A5784FF4FA66284600F015F9002237212046FFF7D4FC28460121FFF783FC292100222046FFF7CBFC074668
:402D4000284600F00DF928460121FFF776FC17B90123E3701EE017F0040F01D1013EDDD14FF4FA66284600F0F1F8012100222046FFF7B0FC0746284600F0F2F8284601217E
:402D8000FFF75BFC0FB9E77004E0012F55D1013EE8D152E001AD20462946FFF7E7FC00284BD120462946FFF75BFEC0B2002844D10123237043E00422A07805A900F02AF9F7
:402DC000284600F0CDF89DF81730AA2B35D19DF8163003F00F03012B2FD1A5784FF4FA66284600F0B3F8002237212046FFF772FC28460121FFF721FC29214FF0804220468C
:402E0000FFF768FC0746284600F0AAF828460121FFF713FC0FB1013EE2D101AE20463146FFF7A4FC48B90125E57020463146FFF717FEC0B208B9257001E04FF0FF3007B050
:402E4000F0BD00BF2436000010B5084B03EB80035C6823783BB9FFF7BFFB20B12046BDE81040FFF711BF4FF0FF3010BDC491FF1F38B51D46154BA1F57B7103EB80035C68F9
:402E8000072918D8DFE801F00A17171704041719204600211422FEF7FDFC0CE0237833B92046FFF7F1FE10B14FF0FF3038BDA3882B81A3686B60002038BD2046FEF7A4FD68
:402EC000024B00201A68013A1A6038BDC491FF1F10B580B9104B1B78EBB901240E4B1C7000F036F921463B2000F04EF900F022F900F012F910BD084B1B7863B90124064BC9
:402F00001C7000F025F921463B2000F03DF900F011F900F001F910BDD891FF1F08B550B9084600F0B5F800F0A7F810F0010FFAD000F0BAF808BD084600F0AAF800F09CF8F2
:402F400010F0010FFAD000F0AFF808BD08B510B900F086F908BD002000F082F908BD00BF08B518B9012000F07BF908BD012000F077F908BD0020704738B5B1F5C87F04D3AC
:402F80000D46B1F57A6F03D804E04FF4C87501E04FF47A656C00A4B245F6C053B3FBF4F448B900F0D5F8601E012180B200F0ECF800F0C0F808E000F0CBF8601E012180B2CE
:402FC00000F0E2F800F0B6F8284638BD032809D840F6E44399420FD840F6E3439A420DD80020704740F6E443994209D840F6E3439A4207D800207047002070470120704731
:40300000002070470120704708B5FFF761FF022008BD00BFF8B507460D4614466E1CFF213846FFF77BFF28703546013CF6D1F8BD70B5064614464D1C09783046FFF76EFF8F
:403040002946013CF7D170BD08B5FDF705FB094A137843F020031370013A137843F0100313700232137843F010031370FDF7F8FA08BD00BF9A640040014B1878704700BF36
:4030800069640040014B1878704700BF6B640040034B1B7813F0040FFAD0024B18707047696400404A640040014B1878704700BF5A64004008B501E00A4B1B780A4B1B789C
:4030C00013F0200FF8D1FDF7C7FA084B1A7842F001021A701A7802F0FE021A70FDF7C0FA08BD00BF5A6400406B6400409A64004008B50F22064B1A70FFF7DCFFFFF7BCFFA6
:40310000FFF7C0FF0023034A13700232137008BD8A6400408964004008B5054B1B7823B9FFF7E6FF0122024B1A70FFF78DFF08BDD991FF1F054A137843F00103137010321A
:40314000137843F001031370704700BFA2430040054A137803F0FE0313701032137803F0FE031370704700BFA2430040014B188880B2704780400040024B187800F0070096
:40318000704700BF8240004070B505460E46FFF7F3FF0446FFF7EAFFA84256D02B4B1B7803F0010294B900B185B938B9284B1D80284A137803F0BF03137070BD254A13781A
:4031C00043F040031370224B1D8070BD22B3002321490B7001240F310C7004310B700C390B7803F07F030B701A4B1B7813F0080F00D08DB9194B18800721013B1970164B07
:403200001B7813F0010FFAD110490B7803F0FE030B700021104B19700C4B1B7813F0010F0DD00E4B1D800EB1032200E001220A4B1A70094B1B7813F0010FFAD170BD044BF6
:403240001D8002490B7813430B7070BDA243004080400040824000400140004002400040044A137803F07F03C001C0B218431070704700BF20510040014B1868704700BFF6
:403280009481FF1F0E4B70B51E460E4C0025E41AA410A54204D056F8253098470135F8E700F0D8F9084B094C1E46E41AA4100025A54204D056F8253098470135F8E770BD53
:4032C0006036000060360000603600006836000010B5431E0A44914204D011F8014B03F8014FF8E710BD03460244934202D003F8011BFAE770470000000000000A0D0A0DF4
:40330000202020000A0D2020202A205469746C653A2000000A0D2020202A20557365726E616D653A200000000A0D2020202A2050617373776F72643A200000000A0D2020F0
:40334000200000000A0D205344206361726420666F726D6174000000205375636365656465640000204661696C656400770000000A0D2046696C6520000000002077617339
:40338000206F70656E6564000A0D2230313233343536373839220000207772697474656E20746F2066696C65000000000A0D204661696C656420746F207772697465000050
:4033C000206461746120746F2066696C650000000A0D2046696C652077617320636C6F73656400000A0D204661696C656420746F20636C6F736500000A0D204661696C65C7
:403400006420746F20637265617465000A0D20466F726D617420636F6D706C6574652000720000000A0D20212120526571756573746564207265636F726473206F7574739E
:403440006964652072616E67652100000A0D202121204661696C656420746F206D6F766520637572736F7221000000000A0D202121204661696C656420746F20636C6F7383
:40348000652066696C652100610000000A0D2053442063617264206E616D653A000000000A0D204661696C656420746F206765742000000053442063617264206E616D65D1
:4034C000000000000A0D2D2D2D2D0000005100401000305100404000F0510040100000000140000A800A0140800500140140800400190140000300400140000A004C0140E5
:40350000000200500140200060520040880400480600000A0140900400488000801801401005004880000000A1080000DF07000085070000000000002E2E0000B43500004F
:4035400008000100B63500000A000100B935000014010001BB35000016010001BE35000015000101C035000017000101C335000018000100C63500001A000100CA35000002
:403580001A000100CE3500001C010001D13500001E010001D53500001E010001D93500001D000101DC3500001F000101E03500001F000101720072620077007762006100F3
:4035C000616200722B00722B620072622B00772B00772B620077622B00612B00612B620061622B000A00000064000000E803000010270000000A0C0D0F14191E23282D32A4
:40360000373C41508096980040420F00A086010010270000E8030000640000000A000000010000004000000000950000D125000061260000F527000025290000712E000034
:40364000492E0000D9250000C52500006D6D630043000000F8B500BFF8BC08BC9E4670474D000000E1040000F8B500BFF8BC08BC9E4670472900000088360000C880FF1FEE
:40368000D0000000D01000000000000070776462000000000000000040000000616161616161616100006161616161616161616161616161616161000000000000000000F4
:4036C000000000000000000000616161616161616161616100000000000000000000E02EC05D00001800000000366E0128350000BD25000000000000000000000000000078
:403700000000000000000000000000000000000000000000503600000000000000000000000000000000000000000000000000000000000000000000000000000000000003
:4037400000000000000000000000000000000000000000003481FF1F0000000000000000000000000000000000000000000000000000000000000000000000000000000076
:403780000000000000000000000000000000000000000000000000000000000000000000000000000000000000000000000000000000000000000000000000000000000009
:4037C00000000000000000000000000000000000000000000000000000000000000000000000000000000000000000000000000000000000000000000000000000000000C9
:403800000000000000000000000000000000000000000000000000000000000000000000000000000000000000000000000000000000000000000000000000000000000088
:403840000000000000000000000000000000000000000000000000000000000000000000000000000000000000000000000000000000000000000000000000000000000048
:020000040003F7
:0200000480007A
:400000000252004002640040026500405208014053090140140A01403D0B0140341801404E1901404B1A01403F1B0140064501400446014001470140014C01400A4D014083
:400040000450014010101110880F8A0F89388A72010302120344088809200A030B450C210E0210041243130815531601170419531AEC1B0C24E02D0A2F543210330F340FCF
:40008000354036E0373039803B083E403F105401580459045B045C105D105F0180318110824284408501862F88C089048C248D01902C910194119548968E972198089A10D1
:4000C0009C2C9D01A02CA101A424A608A962AA2CAB08AD47AF18B00FB13FB2C1B340B431B708B808B902BA30BF45D409D804D904DB04DF010004010202020308048205103F
:40010000081009080A410B080C010D200E20108811041420188419121B0A1D201E201F80210222402310242026202711280229102A122B022F013108320133403608371906
:40014000380239643E203F0240204308581059055A805D105E085F416240864087108E048F0190029164925393089444980199049A069B609C029D5A9E209F10A0C8A10867
:40018000A282A321A502A608A780C0DFC27FC42ECA1DCCEBCEAFD6FFD808C023C106C5C0C6B0C70EC81AC9FFCAFFCBFFCEF0CF44D00CD440DA04DB04DD01DF01E6C0EA4076
:4001C000EB0200240102020109080A4110081101120213041B10211822032344280229102A022B103020310A324039113B48404641084620471049044A804B814E084F029D
:4002000050015211530456045720614065086610670168F869556AD06B6072038780880189089380AF40C00FC20DC40FCA0FCC0FCE0FD06FD228D878E408EA080303083193
:400240000A060B200E0C102C1109120313D0150C161317711E082110234024312514260E284029102BAC2DDC2F22300F311F344035E0363038803A023B203E50400145409A
:4002800049FF4A074BFF4C404D204EF04F055008580459045A045C115D015F01604061A86240632000A801020420052007010A550C400E800F2110011290132016041708E4
:4002C000184119091A041D801E881F012141221023502501270828202C402D202F2130083310370939023B103D033F20400441404304458048144A014F015104562057107B
:400300005A02600161209020925194409702980199129A149B219D499E209F08A040A108A280A320A604B110B220B341C0CFC2BFC46FCAF2CCC6CEA5D01ED20CD601D80C5C
:40034000007F011C03E104730508060C09800A230C010D4410031118140C17E3181C1A631B041C1F1DFF1E60200821102404253C27C2280229E72B182DC0301031C0322C94
:40038000331F340F3538364038803A283B083E0156025713580459045B045C115D105F018001821E88358A028C048E03910192089403962C99019E40A080A640A901B038F5
:4003C000B280B440B501B607BA80BB02BE14D804D904DC10DF010004014003440552081209800A180B410D080E41108013141509180419251A011D601E6020082205260103
:400400002744281229202A022C0832123344371139403B15590168086B11708072127304818482528A108C208D409109922093509404960299129C209D409F14A108A40CD6
:40044000A520A601C0DFC2BFC43ECA2FCCAFCE0FD601E004092059026620C202D602D80185029D029E20AD209E209E2012807502822089028E809E20C408DE04E001E202C1
:4004800000030C0310031C0380800000400000001F2620007F048000C020040600429F20901040000049FF2600220004C0060120C026020000106000C061080E802700488C
:4004C0000060000FFF10000000280002000010003201400005DEF0BC3BFFFFFF2200F008040000000000022004040404000000010000C00040011011C00100114001400143
:40050000000000000000000000000000000000000101020E00001000004410316D0000000D0060006D67000002670D006D00000000004000022208D16D00000002000400D3
:40054000200740600F801018000020000000454023050600010C000E11FFFFFF62A0F0410C00000018000000040404041011000100000000000040020010301000101012B4
:4005800000000000000000000000000000000000800040808000800000000000000B0B000000000040B0B00030000000000000000000000000000000000000000000000015
:4005C00000000000000000000000000000000000000000000000000000000000000000000000000000000000000000000000000000000000000000000000000000000000FB
:4006000000000000000000000000000000000000000000000000000000000000000000000000000000000000000000000000000000000000000000000000000000000000BA
:40064000000000000000000000000000000000000000000000000000000000000000000000000000000000000000000000000000000000000000000000000000000000007A
:40068000000000000000000000000000000000000000000000000000000000000000000000000000000000000000000000000000000000000000000000000000000000003A
:0200000490006A
:0400000000004005B7
:0200000490105A
:04000000BC90ACAF55
:0200000490303A
:02000000850574
:0200000490402A
:4000000000000000000000000000000000000000000000000000000000000000000000000000000000000000000000000000000000000000000000000000000000000000C0
:400040000000000000000000000000000000000000000000000000000000000000000000000000000000000000000000000000000000000000000000000000000000000080
:400080000000000000000000000000000000000000000000000000000000000000000000000000000000000000000000000000000000000000000000000000000000000040
:4000C0000000000000000000000000000000000000000000000000000000000000000000000000000000000000000000000000000000000000000000000000000000000000
:0200000490501A
:0C00000000012E16106900012E2D956ED7
:00000001FF