:400000000080002011000000191100001911000008B5044B1A6803F53F5302331A6001F09BF800BFFA46004010B5054C237833B9044B13B10448AFF300800123237010BD8F
:40004000B888FF1F00000000C8360000084B10B51BB108490848AFF300800848036803B910BD074B002BFBD0BDE81040184700BF00000000BC88FF1FC8360000C880FF1F18
:4000800000000000704700BF0122014B1A707047D488FF1F00B583B002AB03E90300012001F034FE0028FAD00E49009B8B719DF804305B0001F8043F0822012001F0DCFD83
:4000C000012001F023FE0028FAD0064900238B7101F8043F0822012001F0CEFD03B05DF804FB00BFD488FF1F174B1B7B5BBB10B500F026FC1421084600F08CFC134800F0BF
:40010000C1FE134800F0BEFE124800F0BBFE00F025FC62B60221002001F064FD06E00A4B1B781BB10022084B1A7010BD01F09EFD0028F4D0044C0822211D012001F09CFDF7
:400140000123237310BD7047D488FF1FC0390000DC390000083A000008B5034B1B7B0BB9FFF7C2FF08BD00BFD488FF1F70B505460E46FFF7B9FF204B1B7B63B356B100F0DD
:40018000DFFB2821142000F045FC1C4800F07AFE00F0E4FB00240AE02B5DA3F12002184B03EBC20393E80300FFF774FF0134284602F082FE8442EFD3E6B13021142000F02A
:4001C00029FC104800F05EFE00F0C8FB4FF4C87001F0AEF870BD00F0B3FB2821142000F019FC094800F04EFE00F0B8FB4FF4167001F09EF870BD00BFD488FF1F183A0000EC
:40020000CC80FF1F243A00002C3A00002DE9F04182B080461D468C1A04D5002001F0DAF8002406E05E1EB44203DD70B201F0D2F8344600F085FB01270097142364221621B6
:40024000002000F08DFC384600F0EAFB0621002000F0E0FB384600F0EBFB384600F0E0FBBC4204DDC4EB84107E38404400E0204800F008FE002C04DDC4EB84103F384044FE
:4002800000E01B4800F0FEFD022000F0C9FB002000F0CEFB1821052000F0BCFBC4EB841608EB060000F0EEFD012000F0B9FB012000F0BEFB2A21002000F0ACFBAB1E9C4207
:4002C00004DC601CC0EB8010404400E0084800F0D9FD033DAC4203DC06F17E00404400E0034800F0CFFD00F039FB02B0BDE8F081443A000010B582B0041E04DA002001F08E
:4003000069F800240CE0124BD3F80003431E9C4206DD58B201F05EF80D4BD3F80043013C0B4BB3F90423B3F90813002000902C2300F016FC04EBC40404F11801012302220D
:4003400009B20A2000F040FC00F008FB02B010BDCC80FF1F84B038B504AC84E80F0000F0EFFA0621002000F055FB012000F058FB012000F05DFB04A800F084FD002413E0E3
:4003800004EBC401114DD5F80833194409B2B5F9040300F03FFB05F5437504EB84039800284400F06FFD0134084BD3F800339C42E6DB00F0D3FA002001F00CF801F004F8C0
:4003C000FFF798FFBDE8384004B07047CC80FF1FF0B5ADF55D7D012002F096FC642000F0A7FF002002F090FC62B6734800F082FF724801F0BDF8724802F0ACFC00F034FFE5
:40040000704800F04BFF01F011F801F005F93C2000F0E0FA4FF43D726B491FA802F014FD00226A4B1A70694B5B7B032BFBD8DFE803F0021B428100F083FA0A21084600F0EF
:40044000E9FA022000F0ECFA012000F0F1FA604800F018FD00F082FA01225C4B5A734FF47A7000F065FFDEE700F0AEFF024659490CA802F0FDFC00F063FA28210A2000F0D9
:40048000C9FA0CA800F0FEFC00F068FA4F4B1B78002BC8D04D4B00241C7002225A73204600F098FF00F090FF0C23224601461FA8FFF7ACFEB7E700F087FF0C230022014603
:4004C0001FA8FFF7A3FE00F07FFFC0EB80101FAB1C180FAE04F13007354620686168A268E3680FC510342E46BC42F5D120686168A26807C6A289A37B3280B370334B1B7846
:40050000002B90D0314B00221A7003225A730FAE6C4613AD0FCD0FC40FCD0FC495E80F0007C424F8023B1B0C237096E80F00FFF711FF78E700F048FFFFF7DCFE234B1B7825
:40054000002B3FF470AF0022204B1A7000F03CFF10B1012818D066E70FAE01210DF14500FFF704FE6C4613AD0FCD0FC40FCD0FC495E80F0007C424F8023B1B0C237096E8CB
:400580000F00FFF7E7FE4EE70FAE01211AA8FFF7EDFD6C4613AD0FCD0FC40FCD0FC495E80F0007C424F8023B1B0C237096E80F00FFF7D0FE37E700BF850000008900000025
:4005C00059010000503A0000CC360000D488FF1F603A0000683A000083B27F2B3CD800293ADB3F2938DC012A03D09AB1022A23D070471A4A0B46002900DACB1DDB1000EB1D
:40060000C31001F00701012303FA01F1135C194311547047114A0B46002900DACB1DDB1000EBC31001F00701012303FA01F1135C23EA010111547047084A0B46002900DA68
:40064000CB1DDB1000EBC31001F00701012303FA01F1135C59401154704700BF3D84FF1FF0B5BDF81440904267D10D46002900DACD1DED1000EBC510444F07441846002BFF
:4006800000DAD81DC01002EBC012404810443A4650E0BA4218D13E4D0D4003D5013D65F007050135EEB2F5186D1AEDB2062D00D90725AD1B01354FF0010E0EFA05F5013D4F
:4006C00005FA06F6F6B20EE082420CD1304D1D4003D5013D65F0070501352DB2012606FA05F56E1EF6B2BA4201D0824212D1012C03D034B1022C09D01BE015783543157028
:4007000017E0157825EA0605157012E01578754015700EE0012C03D02CB1022C06D008E0FF25157005E00025157002E01578ED43157080328242ACD9F0BD0B46002900DACE
:40074000CB1DDB1000EBC313104D2B44121A1A4401F00701012000FA01F1CDB212E0012C03D034B1022C09D00BE018782843187007E0187820EA0100187002E0187868409A
:40078000187001339342EAD9F0BD00BF3D84FF1F07000080B1F90020154B1B78022B0CD0032B19D0012B21D1B0F900300B80114B1B889A1A013A02807047B0F900200D4B6C
:4007C0001B889B1A013B0380B1F900200A4B1B889B1A013B0B80704710B4B0F90040064B1B881B1B013B0B80028010BC704700BF4A89FF1F4889FF1F4C89FF1F10B584B0BF
:40080000ADF80E00ADF80C10ADF80A20ADF80830904203D009B21BB2994271D1394B1B78012B01D0032B1AD1002869DB364BB3F90030984264DA002A62DB9A4260DABDF90D
:400840000C30002B5CDB314AB2F90020934257DABDF90830002B53DB9A421ADC50E0BDF90C30002B4CDB2849B1F900108B4247DABDF90830002B43DB994241DD00283FDB76
:40088000224BB3F9003098423ADA002A38DB9A4236DA03A90DF10E00FFF77CFF02A90DF10A00FFF777FFBDF90E30BDF90A20934205D1BDF90800BDF90C10884207DBBDF91F
:4008C0000C00BDF9081088420DD193420BDDADF80E20ADF80A30BDF90C30BDF80820ADF80C20ADF80830BDF90830BDF90A20BDF90C10BDF90E00BDF818400094FFF7B0FEE1
:4009000004B010BD4A89FF1F4C89FF1F4889FF1FF8B507460E460021084B187800F0F8FF0024FF2504E0385D01F04EF805460134B442F8DB01F02CF82846F8BD2489FF1FE6
:4009400010B5054C4FF480620021601C02F087FA4023237010BD00BF3C84FF1F00B583B00A4B186800909A889B79ADF804208DF8063007216846FFF7CBFF40F2014104486F
:40098000FFF7C6FF03B05DF804FB00BF6C3A00003C84FF1F0A4B18800A4B19800A4B58809980002209490A70DA801A8101229A724FF6FF719981D981054B1A70704700BF86
:4009C0004889FF1F4C89FF1F2489FF1F4A89FF1F4E89FF1F30B589B00C4B187040218020FFF7D8FF01AC0A4D55F8080F6968AA68EB680FC42869696903C42B8B23801A216A
:400A000001A8FFF785FF09B030BD00BF2489FF1F6C3A0000014BD880198170472489FF1F08B90120FFE7014B987270472489FF1F014B9881D88170472489FF1F10B582B026
:400A4000ADF80600ADF80410002819DB0D4BB3F90230984214DA0BB2002B11DB0949B1F904108B420CDA144601A90DF10600FFF791FE2246BDF90410BDF90600FFF7ACFD47
:400A800002B010BD2489FF1F2DE9F04F85B005460E461746BDF838200292B84201D0994207D1029A00923A4631462846FFF7A6FE52E0C1EB0308B8F1000FB8BFC8F1000841
:400AC000C0EB0709B9F1000FB8BFC9F10009C84504DD3A461F4613460D460646BD4205DD32461E4613462A463D461746C5EB070B1FFA8BFB0FFA8BF4C6EB030ABAF1000FB6
:400B0000B8BFCAF1000A04EBD47464109E4202DA012303931EE04FF0FF3303931AE0C84505DD029A29463046FFF788FF04E0029A31462846FFF782FFCAEB0404A3B21CB2B0
:400B4000002C05DA039A164436B20BEB030424B201352DB2BD42E2DD05B0BDE8F08F00BF2DE9F04383B005460E4617469846BDF8289093420FDC0C461EE006EB0803013B42
:400B8000CDF800901BB2224631462046FFF77CFF013424B200E00446EB199C42EDDB0FE0EA19013ACDF80090234612B221462846FFF76AFF013424B206EB08039C42EFDBEC
:400BC00003B0BDE8F08300BF2DE9F04F87B082460E4602921F46019395B2C5F1010424B2C5EBC53253001AB205921FFA81FB05EB0B013A4609B2FFF721FFC5EB0B013A46E3
:400C000009B25046FFF71AFF1FFA8AFA05EB0A003A46314600B2FFF711FFC5EB0A003A46314600B2FFF70AFF4FF000090123039360E0002C0ADB029B013B1BB20293059B7E
:400C400002339BB21AB205921C4424B209F10105ADB20FFA85F9039B02339BB21AB203921C4424B20AEB05031BB2BDF808600BEB06080FFA88F8019A414604931846FFF73B
:400C8000DDFEC5EB0A073FB2019A41463846FFF7D5FEC6EB0B080FFA88F8019A41460498FFF7CCFE019A41463846FFF7C7FE0AEB06073FB20BEB05080FFA88F8019A414677
:400CC0003846FFF7BBFEC6EB0A0636B2019A41463046FFF7B3FEC5EB0B052DB2DDF80480424629463846FFF7A9FE424629463046FFF7A4FE029B99459BDB07B0BDE8F08F04
:400D00002DE9F04F85B0BDF838B09DF83C60364CB4F90240844263DD334CB4F904408C425EDD06EB46056C000444012C58D401EBC604012C54D4984603928A4681460027E6
:400D40004CE0052F08D0039B03EB83033B44274A134493F8245000E0002500243AE015F0010F19D0012E09D104EB0A0107EB0900424609B200B2FFF761FE28E0B0B232B20C
:400D800004FB00A107FB0090CDF80080134609B200B2FFF7E5FE1AE0D84518D0012E09D104EB0A0107EB09005A4609B200B2FFF745FE0CE0B0B232B204FB00A107FB009076
:400DC000CDF800B0134609B200B2FFF7C9FE6D08013464B2072CC2DD01377FB2052FB0DD05B0BDE8F08F00BF2489FF1F6C3A00000A2808D11A4B997A1A8902EBC1021A81C5
:400E00000022DA8070470D28FCD030B583B00246134CE389B4F90810B4F90600A57A0195A5890095FFF76CFFA27A91B201EB41035800E38803441BB2E3800A48007868B156
:400E4000A2EB82025000B4F902201044834205DD228902EBC10121810022E28003B030BD2489FF1F4E89FF1F70B5064602F024F80546002403E0305DFFF7BAFF0134AC4237
:400E8000F9D370BD08B5FFF7EFFF0A20FFF7B0FF08BD00BFFEE700BFF0B40022174611E050F82760F3B226F0FF0608E001EB420511F812406D78A5550132013BDBB2002B82
:400EC000F4D10137252FEBD9F0BC7047064B1B78DBB203F00701054A11701B09013213704422034B1A707047CF0100496E5800407658004008B50A46002101F0B0FF08BDAF
:400F000038B50122284B1A801823284A13700E210232118002321370192502321580023213700622224B1A705222A3F580731A70204B1B78DBB2204A13704FF4E1621F4BEB
:400F40001A8041F25122023B1A8000240CE01C4B1B7803F0010343EA440404F003044FF4F07001F005FF013D0DB1032CEFD115B90320FFF78FFF134A4FF4807313800723A1
:400F80001370002310490B7048200231087013700532137002220D4B1A700D4A137843F00703137038BD00BF8040004082400040004300400F010049A14600402242004062
:400FC00025420040044000400640004001400040A243004008B501F037FF08BD38B572B6394A137843F00403137000240CE0374D630019194A0011462A44084691882858F2
:40100000FFF778FF0134E4B2062CF0D900240BE02E49A3001819420088180622016BC06AFFF7D8FF0134E4B2002CF1D028494FF09040FFF731FF274A137843F002031370A1
:401040001032137843F002031370234C237843F040032370A2F58632513A137843F0100313700A221D491E48FFF7B4FF0A221D491D48FFF7AFFF0A221C491D48FFF7AAFFD6
:4010800008221C491C48FFF7A5FF0A221B491C48FFF7A0FF0A221B491B48FFF79BFF1B4A137843F008031370194D61232B70FFF727FF81232B70FFF709FF0E222146154814
:4010C000FFF788FF38BD00BFE84600408C3F00009800004803500140A0430040D80D004800510040E40D0048C0510040F00D0048F0510040FC0D004812510040040E004893
:4011000020510040100E0048305100402243004000480040B043004008B501F069FE03680C2B00D1FEE7FEE708B5094B1A681044084BC31A802B02DC054B186005E001F0E7
:4011400057FE0C2303604FF0FF32104608BD00BF4088FF1F288AFF1F08B5104E104D16E029686B68AC68002204E051F8040B43F8040B0432A242F8D1E868002203E00021A1
:4011800043F8041B04328242F9D11035013E002EE6D101F033FEFFF71BF9FEE7010000005441000008B5104A104B1A60104A136843F40073136000230AE0032B03D80D4AB6
:4011C00052F8231000E00C490C4A42F8231001332F2BF2D90A4B1A780A4B1A70074A0A4B1A60FFF7FBFE08BD0004FA050CED00E014ED00E000000000191100000080FF1F02
:40120000BC760040C080FF1F08ED00E07222074B1A702022023B1A700622643B1A70472210331A70002251331A7070478964004010B501F0A5FD04460A4A137843F020031E
:401240001370023A137843F010031370033A137843F01003137000F05BF8204601F094FD10BD00BF9964004008B5054B1B7823B9FFF7CCFF0122024B1A70FFF7D9FF08BD0C
:401280003489FF1F034B1B7813F0040FFAD1024B18707047646400404765004038B5074B1B782BB938BDFFF7EDFF0134A4B201E005460024285D0028F5D138BD3489FF1F66
:4012C000014B1B68D864704708ED00E04001C0B2014B1870704700BF03E400E00822014B1A60704700E100E00822014B1A60704780E100E010B50446FFF7F6FF2046FFF7ED
:40130000DFFF0720FFF7E2FFFFF7E8FF10BD00BF054A137843F0040313701032137843F004031370704700BFA243004001BE704710B5044605E0084B186801F019FDA4F5CF
:401340000044B4F5004FF6D8034B586800FB04F001F00EFD10BD00BF4488FF1F08B5034B1B7A00FB03F001F003FD08BD4488FF1F70B504460E46074B1D681F2802D90020EA
:40138000FFF7D4FF04F01F04103455F8240045F8246070BD08ED00E038B504460D46072902D90020FFF7C2FF1F2C02D90020FFF7BDFF04F01F0000F1604000F564406D01C6
:4013C000EDB2057038BD00BF08B500F05BF8803840B208BD08B5002803DBC0B280F0800001E08038C0B200F047F808BD024B187800F00F00704700BF68640040014B187060
:40140000704700BF8864004008B50F20FFF7F6FFFFF7ECFF01F0B4FC034A137843F01003137001F0B1FC08BD9864004008B500F077F8802000F020F8044B1B7813B90122DC
:40144000024B1A70FFF7E0FF08BD00BF3689FF1F024A137843F080031370704773640040014B1870704700BF8B650040014B1878704700BF6B650040014B1870704700BF5B
:4014800004650040024B1B78024B1878704700BF0465004044650040014B1878704700BF44650040014B1870704700BF24650040014B1870704700BF3465004008B501E0AF
:4014C000FFF7EAFFFFF7D2FF10F0400FF8D108BD08B5114B1A7802F0F8021A701A7802F0FC021A70FFF7EAFF8020FFF7DBFF8020FFF7C2FF0020FFF7B3FFFFF7B7FF802082
:40150000FFF7D6FF01F03CFC044A137843F01003137001F039FC08BD736400409B65004008B5054B1B7823B9FFF7D2FF0122024B1A70FFF78DFF08BD3789FF1F014B1B68A2
:401540009864704708ED00E04001C0B2014B1870704700BF02E400E00422014B1A60704700E100E00422014B1A60704780E100E010B50446FFF7F6FF2046FFF7DFFF07207D
:40158000FFF7E2FFFFF7E8FF10BD00BF10B50222114B1A7081220E3B1A70082202331A70042211331A70002401331C704FF400420A4B1A6007210F20FFF7EEFE08490F20D8
:4015C000FFF7D6FE1022074B1A70074B1C70074B1C70074B1C7010BDD649004080E100E0411600004F89FF1F5089FF1F5289FF1F5389FF1F08B501F0C3FB064A137843F05B
:40160000040313701032137843F00403137001F0BBFB08BDA543004008B5074B1B7823B9FFF7B4FF0122044B1A70FFF7E3FF4FF40042024B1A6008BD3889FF1F00E100E056
:4016400038B5A54B1C78A54B1B7813F0400F00F03A81E4B214F0010F00F01D819F4B1B78453B052B00F21481DFE813F006008200120112010600DF0004F0DF0504F00A0456
:40168000082C42D1954B1B78DBB2452B35D1944B1B7813F0FF0F10D0924B1B681B78DBB2914A137004228C4B1A7001228F4B1A7046228A4B1A702C46EDE08D4B1B7813F0AA
:4016C000020F0DD08B4A137843F00A0313706022824B1A704FF40042874B1A602C46DAE0864A137843F0100313701022844B1A700422023B1A702C46CDE00022764B1A70DB
:401700004A22764B1A702C46C5E00A2C2BD1794A137843F0A0031370754B1B7813F0020F14D06E4B1B7813F0080F01D0092300E00A23704A11780B4313706022674B1A7075
:401740004FF400426C4B1A602C46A4E06B4A137843F0100313701022694B1A700422023B1A702C4697E00020FFF7E0FD2C4692E014F0020F36D15D4B1A78D2B2584B1B7887
:40178000DBB29A4210D2594A1378DBB255490968CB5CDBB254490B7004214F4B197013780133DBB2137076E0514B1B7813F0020F0CD0504A137843F00A0313706022474BC0
:4017C0001A704FF400424C4B1A6064E04B4A137843F0100313701022494B1A700422023B1A7058E0424B1B7813F0020F0CD0414A137843F09A0313706022384B1A704FF4DC
:4018000000423D4B1A6046E03C4A137843F01003137010223A4B1A700422023B1A70354A137843F09003137035E0364A1378DBB2354908682C490978C9B2C1541378013303
:40184000DBB213701278D2B2304B1B78DBB29A4203D21022204B1A701DE0254B1B7813F0020F0CD0234A137843F00903137060221A4B1A704FF400421F4B1A600BE01F4AFF
:40188000137843F0100313700022134B1A7002E00020FFF74BFD14F0200F1CD00F4B1B7813F0080F01D0012300E00223114A11780B431370114A137803F0EF031370102235
:4018C000064B1A7038BD054B1B7813F0100F02D11022024B1A7038BDD74900404F89FF1F5889FF1F5C89FF1FD84900405389FF1F5189FF1F5089FF1F80E100E0D649004000
:40190000D94900405289FF1F5489FF1F6089FF1F1A4B1B78DBB2102B29D1194B1B7813F0080F26D14FF40042164B1A604000C0B229B140F001004922104B1A7002E04522D2
:401940000E4B1A70104B1870012201331A700F4B1B7813F0010FFAD00C4B1B7803F00A030A2B08D11022054B1A700320704702207047012070470020704700BF4F89FF1FDB
:40198000D949004080E100E0D8490040D74900400A4B1B7813F0040F0ED01023074A13700421023A1170064A1370064B1B7813F0210FFAD00020704702207047D949004038
:4019C0004F89FF1FD7490040114B1B7813F0040F1BD0104B18700422013B1A7046220E4B1A700E4B1B7813F0010FFAD00B4B1B7813F0020F04D16022074B1A7000207047B7
:401A00006022054B1A70032070470220704700BFD9490040D84900404F89FF1FD7490040F8B501F0ADF90646344A137843F0010313701032137843F0010313700125304B44
:401A40001D700227943B1F7002F5E2521B32137803F07F0313700020FFF780FC294C237803F0F9032370284A137803F0DF03137023782B4323702846FFF770FC2820FFF734
:401A80006DFC224B1A7802F07F021A701A7802F0BF021A7023783B4323703846FFF75EFC237843F0040323700023194A137001321370304601F068F907211720FFF76CFCCC
:401AC00014491720FFF754FC07211820FFF764FC11491820FFF74CFC07212846FFF75CFC0E492846FFF744FC07210C20FFF754FC0B490C20FFF73CFCF8BD00BFA5430040C3
:401B00009D6000409443004012600040F851004084600040D12100002D200000A12100006924000010B5002304E00124204AD4542344DBB2002BF8D01E4B187000231E4A7E
:401B400013701E4A13701E4A13701E4A13701E4A13701E4A13701E4A13701E4B4FF400021A604FF080721A6002221A6011B1012906D00BE0184A137803F0FE0313700AE0F4
:401B8000154A137843F00103137004E0124A137843F0010313700322104B1A708022203B1A70012001F0E4F804220D4B1A7010BD048AFF1F7089FF1F8789FF1F8689FF1F8A
:401BC0008089FF1F8589FF1F7189FF1FF989FF1F6489FF1F00E100E009600040286000401260004038B504460D46064B1B7823B9FFF716FF0122034B1A7029462046FFF7D0
:401C000091FF38BD3989FF1F002304E001210E4AD1540B44DBB2002BF8D000230B4A13700B4A13700B4A13700B4A13700B4A13700B4A13700B4A137003220B4B1A70802218
:401C4000203B1A70704700BF048AFF1F8789FF1F8689FF1F8089FF1F8589FF1F7189FF1FF989FF1F6489FF1F28600040014B1878704700BF8089FF1F431EDBB2072B3CD877
:401C8000F0B4074600EB4004A3001C4C2344DB889BB2C3F500739A4208D900EB400293002344DA8892B2C2F5007292B200EB4004A300124C2344DB7843EA1223104D040112
:401CC0002E192B55D3B2737039B909E0CE5C3D010C4C665501339BB200E000239A42F5D8420002449300054A134400225A705A79D2B20001044B1A54F0BC70478889FF1FDE
:401D0000FC5F004078600040FE5F0040431EDBB2072B06D80001044B185C00F01000C0B270470020704700BFFE5F00401D4B19781D4A13889BB20B449BB2138000220FE0AD
:401D40001A494B681B78DBB2194883544B6801334B600132D2B20B889BB2013B9BB20B80124B1B889BB20BB1072AE9D90D4B1B78DBB2082B00D05AB10E490B7883F0800366
:401D80000B700F210C4B197002210C4B197004E0022309490B7009490B70094B1A70014B1A7070476489FF1F6689FF1F7489FF1F00600040F489FF1F7389FF1F8789FF1FD1
:401DC0007289FF1F0222074B1A708022064B1A700F22064B1A700023054A1370054A1370012070478789FF1FF489FF1F7389FF1F6489FF1F7289FF1F08B5FFF797FF08BD8D
:401E000010B4194B197801F00F010239C9B2174A13889BB20B449BB21380002011E0144A5468144B1B5CDBB223705368013353600130C0B20139C9B213889BB2013B9BB22E
:401E400013800B4B1B889BB20BB10029E7D10A4B19700A4A137883F0800313700B22084B1A7010BC704700BF296000406689FF1F7489FF1F006000407289FF1FF489FF1F25
:401E80007389FF1F0623064A1370064A13708022054B1A700022054B1A700120704700BF8789FF1F7389FF1FF489FF1F7289FF1F064B9B6843B1054B9A6810709A680449C5
:401EC0000988518000229A60704700BF7489FF1F6689FF1F08B5134B1A78D2B21A701B78DBB213F0800F02D00F4A137008BD0220FFF7DEFF0D4B1B7803F06003202B05D090
:401F0000402B06D043B900F057FD06E000F040FF03E000F0E5FE00E0002010B90322024B1A7008BD286000407389FF1F0060004008B5094B1978094A13889BB20B449BB2D0
:401F400013800022064B1A700120FFF7B1FF0322044B1A7008BD00BF6489FF1F6689FF1F8789FF1F7389FF1F08B50B4B1B78DBB2042B06D0062B07D0022B0BD1FFF7D8FF12
:401F800008BDFFF73DFF08BD0320FFF791FF0322024B1A7008BD00BF8789FF1F7389FF1F08B50022044B1A700120FFF781FF0322024B1A7008BD00BF8789FF1F7389FF1FDD
:401FC00008B50B4B1B7813F0FF0F07D0084A137843F0800307490B70002313700022064B1A700120FFF764FF0322044B1A7008BD7189FF1F086000408789FF1F7389FF1F0D
:4020000008B5094B1B78DBB2042B06D0062B07D0022B07D1FFF7F0FE08BDFFF7C1FF08BDFFF7CEFF08BD00BF8789FF1F08B5284B1B78DBB213F0100F48D013F0800F0CD0CC
:4020400003F00F03012B16D1FFF744FF214B1B7813F0800F11D1012312E013F0400F03D0FFF7CEFF01230BE013F0200F07D0FFF77BFF012304E0002302E0002300E00023E3
:4020800023B3134B1B7813F0800F1FD1124B1B78124A12781343124A13701278D2B2934214D10C4B1B78DBB2094A127812F0800F07D1084B1B78DBB2054A1370137803F084
:4020C0000F03044A1278D2B29342EAD108BD00BF286000407389FF1FF489FF1F7289FF1F296000400022064B1A80064B9B682BB1044A916800230B7092685380704700BF9A
:402100006689FF1F7489FF1F08B50F4B1B889BB213B9FFF757FE15E002220C4B1A7000220B4B1A70FFF7DEFF0A4AD179937943EA0123054A128892B2934201D2024A1380DB
:40214000FFF7F4FD012008BD7489FF1F8789FF1FF489FF1F0060004008B504220B4B1A7080220B4B1A70FFF7BDFF0A4AD179937943EA0123084A128892B2934201D2064AF4
:4021800013800B22054B1A70012008BD8789FF1FF489FF1F006000407489FF1F7389FF1F0122094B1A700F3B9B7C084B1B7B03F00303934204D0054AD37B83F08003D3733B
:4021C0000122024B5A7370470B6000408889FF1F08B5FFF719FD08BD08B50C4B18780138C0B200F097F90A4B1B79DBB29A1C00EBC20042680749CB5C02EBC3035B68596A81
:402200000B78054A1380516008BD00BF8089FF1F006000406889FF1F7489FF1F08B50E4B18780138C0B200F075F90C4B1B79DBB29A1C00EBC20042680949CB5C02EBC303B3
:402240005B68DB69597813F8022B42EA012205490A804B6008BD00BF8089FF1F006000406889FF1F7489FF1F10B50022194B1A80194B18780138C0B200F04CF9174AD378A2
:402280001279D2B2911C00EBC10041680ABBDBB21348825C01EBC20149685A1ED2B2022A17D803F10053013B01EBC3000B4A9278D2B211F833309A420BD8406802EB4202F2
:4022C000910042185468034B5C60415A198092689A6010BD7489FF1F8089FF1F006000406889FF1F08B55B4B1A79D2B21B7813F0800F4DD0574B5B78013B052B00F28D80AB
:40230000DFE803F0212B3B8B8B03524BDB78DBB2212B09D1FFF760FF4F4B1B889BB2002B7DD0FFF7F1FE08BD4A4BDB78DBB2222B77D1FFF773FF484B1B889BB2002B72D03D
:40234000FFF7E2FE08BDFFF78FFF434B1B889BB2002B6AD0FFF7D8FE08BD002A67D13D4B9B7813F0FF0F64D13B4901230B803B4B1A444A60FFF7C8FE08BD002A5BD1364970
:4023800001230B80364B1A444A60FFF7BDFE08BD304B5B78DBB20A2B0DD00B2B2FD0092B4BD1FFF761FF2C4B1B889BB2002B46D0FFF7D2FE08BD002A43D1264B9B7813F0AF
:4023C000FF0F40D1234BDB78DBB224498B54895CC9B2244B9B5CDBB2994203D20021214B995409E01F4B9B5CDBB2012B04D91B4B9B5CDBB21B498B54FFF744FD08BD22BBC1
:40240000144B9B78DBB2012B21D8124B9B78DBB213498B54FFF736FD08BD002008BD002008BD002008BD002008BD002008BD002008BD002008BD002008BD002008BD002025
:4024400008BD002008BD002008BD002008BD002008BD00BF006000407489FF1F008AFF1F048AFF1FFC89FF1F08B500F045FC08BD10B401233EE019461A010C2421488454EE
:4024800003EB4300820020480244527912F0FF0F13D003EB430082001B480244127912F0800F04D01801194A024494700AE01801164A02440820907004E01801134A02447A
:4024C000802090704800084482000F480244D488E4B208010B4901448C71D088C0F30720C871D088C0B20871D288C2F307224A710133DBB2082BBED9FF22054B1A7010BC05
:40250000704700BF706000408889FF1FFC5F00400A600040074B1A78074B03EBC2035B681A7C824204D9C0001030184440687047002070477089FF1FC43F0000F8B5404BDA
:402540001B7813F0FF0F79D03D4B18780138C0B2FFF7E0FF047AC2683A4B1878C0B200236AE01178884264D13749095CC9B25578A9425ED1917801F07F01D67806F00306A4
:40258000DFF8C8E04D000D44AF000EEB07054FF0000C85F803C092F802C085F804C092F803C00EF807C097882F8192F90250002D0DDA012E01D1072700E00D274E000E4475
:4025C000B500224E35446F7101266E700CE0012E01D1052700E009274E000E44B5001B4E35446F7100266E70DFF868E00F010EEB07060125B57001FA05F529448D00134949
:4026000029440D89C5F307250EF807500D89EDB27570CE88F6B20E4D3D44AE71CE88C6F30726EE71CE88F6B22E71C988C1F30721697108320133DBB2A34292D3F8BD00BF4B
:402640008089FF1F8589FF1F6889FF1F8889FF1F70600040FC5F0040034B1A78034B03EBC2035868704700BF7089FF1FC43F000008B5084B18780138C0B2FFF74BFF30B181
:4026800042681279023200EBC203586808BD002008BD00BF8089FF1F2DE9F041002310E0684D5900CA189600AC190022AA55A270E2702281A272627034462C44627101330D
:4026C000DBB2082BECD940B90AE000225E49CA545E49CA540133DBB200E00023002BF4D05B4B1B7813F0FF0F00F0A980584B18780138C0B2FFF70EFF4368DB7913F0400F7E
:4027000005D0544A137843F00103137004E0514A137803F0FE031370057A012464E0C16800235DE08A7802F07F02944255D1264604EB4407BA00434F3A44128992B28F8818
:40274000BA4207D204EB440E4FEA8E02DFF8F4E0724417810A783C4FBA5CD2B24F78BA423BD191F802C0DFF8DCE07200324497000EEB070282F804C0CA780EF80720CA78BD
:4027800002F0030291F90270002F13DA012A02D14FF0070801E04FF00D08DFF8A8E0720002EB060C4FEA8C07774487F8058001267E7012E0012A02D14FF0050801E04FF0BD
:4027C0000908DFF880E0720002EB060C4FEA8C07774487F8058000267E7008310133DBB2AB429FD30134E4B2082C98D9C06800220CE0837803F07F0310F8084B03EB430383
:402800009900104B19448C720132D2B2AA42F0D3FFF72EFF104B1860002101230BE0094D5A00D01884002C44E180228992B2114489B20133DBB2082BF1D9FFF719FEBDE8E1
:40284000F08100BF8889FF1F6889FF1F8489FF1F8089FF1FF989FF1F6C89FF1F08B5154B1B7903F07F035A1ED2B2072A20D8590019448A0010490A44917841F00101917076
:402880000021D170517841F002015170127912F0800F05D01B01094A1A448D23937004E01B01064A1A4489239370FFF7EBFA08BD002008BD006000408889FF1FFC5F00403B
:4028C000274B1B7903F07F035A1ED2B2072A44D810B5590019448A0022490A44917801F0FE0191700021D1701F4C1801215C01F07F012154517801F0FD015170127912F00D
:40290000800F13D003EB43018A0016490A445278D2B2012A04D1224602440C23937019E01B01114A1A440D23937013E003EB43018A000C490A445278D2B2012A05D11B01D0
:40294000094A1A440823937004E01B01064A1A4409239370FFF796FA10BD0020704700BF006000408889FF1FFC5F004010B50E4B1C79E4B20D4B18780138C0B2FFF7CAFDAF
:4029800043681B799C4201D9012C0AD8084A135DDBB208490B55044B9B78DBB21355012010BD002010BD00BF006000408089FF1F6889FF1F8489FF1F10B59B4B1B78DBB254
:4029C00000219A4A118013F0800F00F09C80964A5278D2B20A2A00F25F81DFE812F058005D015D015D015D015D010B005D0181005D0189008C4BDB78DBB2012B09D1FFF7F4
:402A00002BFE4268894B5A6012221A80FFF77CFB10BD854BDB78DBB2022B13D1824B9878FFF778FD002800F0398142687F4B5A605A68D1785A68927842EA01221A80FFF76E
:402A400063FB10BD784BDB78DBB2032B05D01BE00A7811440133DBB201E000237449724A9278D2B2934203D20A7812F0FF0FEFD10B7813F0FF0F00F013810B786B4A138008
:402A80005160FFF741FB10BD00F082F910BD13F0030317D0022B40F0058164490B80624B1B7903F07F0303EB43039A00614B1A449278D2B2604B1A7000225A704B60FFF745
:402AC00023FB10BD594902230B805C4B1A78D2B2594B1A7000225A704B60FFF715FB10BD524B01221A80564A5A60FFF70DFB10BD4E4A012313804C4B1B7952490B445360AE
:402B0000FFF702FB10BD484A5278013A0A2A00F2CB80DFE812F04C00C9007900C9000B00C900C900C9001300C90030003E4B9B78DBB2454A1370FFF7A5F910BD3A4B9B7807
:402B400003F0FF041BB1601EC0B2FFF7E3FC04B110B9002C40F0AA80394B1B78DBB29C4206D0374B1C700120384B1870FFF794FDFFF788F910BDFFF7F9FE002800F0988050
:402B8000294A1379DBB21279D2B231490A70314AD25CD2B22B49CB5CDBB29A4204D001222A4B1A70FFF7CAFCFFF76CF910BD03F00303012B17D04BB1022B7BD11A4B9B7882
:402BC00013F0FF0F78D1FFF77BFE10BD164B9B78DBB2012B72D1194A137803F0FD031370FFF750F910BD104B1B7913F0FF0F67D10D4B98781B79DBB21749CA5C22EA00020A
:402C0000CA54FFF73FF910BD03F00303012B32D023B3022B56D1044B9B7813F0FF0F53D1FFF71CFE10BD00BF006000407489FF1F9C4000008889FF1F3C89FF1FF989FF1FAE
:402C40008089FF1F6889FF1F7189FF1F8689FF1F8589FF1F8489FF1FF889FF1F1D4B9B78DBB2012B32D11C4A137843F002031370FFF708F910BD174B1B7913F0FF0F27D13D
:402C8000144B98781B79DBB21449CA5C22EA0002CA54FFF7F7F810BD002010BD002010BD002010BD002010BD002010BD002010BD002010BD002010BD002010BD002010BDE1
:402CC000002010BD002010BD002010BD002010BD002010BD00600040F989FF1FF889FF1F044B1B7813F0800F01D0024B5B780020704700BF00600040024B1878C0F3801099
:402D0000704700BF8F450040044A137803F0FD03400000F0020018431070704720510040014B1B681865704708ED00E04001C0B2014B1870704700BF04E400E01022014BAD
:402D40001A60704700E100E01022014B1A60704780E100E010B50446FFF7F6FF2046FFF7DFFF0720FFF7E2FFFFF7E8FF10BD00BF0230800803D000BF01380046FCD1704787
:402D8000EFF3108072B6704780F31088704700BF08B5144B1B7803F00303012B02D0022B04D00FE00F4B1B79DBB20CE00D4B1B7903F07F0303EB43039A000B4B1A44937A54
:402DC000DBB200E00023012B07D8084A1268D35C032B04D1FFF786FA08BD002008BD002008BD00BF006000408889FF1F6C89FF1F014B1868704700BFB488FF1F0E4B70B57A
:402E00001E460E4C0025E41AA410A54204D056F8253098470135F8E701F08AF9084B094C1E46E41AA4100025A54204D056F8253098470135F8E770BD3C4100003C410000DB
:402E40003C4100004441000010B5431E0A44914204D011F8014B03F8014FF8E710BD03460244934202D003F8011BFAE7704700000EB400B54FF402719CB0ADF814106FF063
:402E80000041049107914FF6FF711DAB02900690084853F8042BADF81610006802A9019300F06CF8029B00221A701CB05DF804EB03B07047B488FF1F034613F8012B002AA8
:402EC000FBD1181A013870472DE9F0478E6882469E420C46914698463ED88A8912F4906F3AD02568096902236F1A656905EB450595FBF3F57B1C43449D4238BF1D465305DE
:402F00000FD5294600F040FB064698B13A462169FFF79AFFA38923F4906343F08003A38113E02A4600F08EFB064670B92169504600F0DEFA0C23CAF80030A3894FF0FF30E1
:402F400043F04003A381BDE8F08726613E44266046466561ED1BA560464528BF464649463246206800F0A8FAA36800209B1BA36023681E442660BDE8F08700002DE9F04FC6
:402F80009DB003938B8980461C060D4616460DD50B695BB9402100F0F7FA2860286118B90C23C8F80030CDE040236B610023099320238DF82930DFF89CB130238DF82A30C4
:402FC00037463C4614F8013B1BB9B7EB060910D003E0252BF9D02746F3E74B46324629464046FFF771FF013000F0A780099B4B4409933B78002B00F0A08000234FF0FF32E6
:4030000004930793059206938DF853301A930126052221784E4800F041FA671C049B38B14B4A3C46801A06FA00F018430490EFE7D90644BF20228DF853201A0744BF2B22D4
:403040008DF8532022782A2A03D0079A00210A200BE0039A111D12680391002A10DA524243F00200079204900BE027463B780134303B092B03D800FB02320121F5E701B144
:4030800007923B782E2B1ED17B782A2B0AD1039B02371A1D1B680392002BB8BF4FF0FF33059310E0002319460593781C0A2407463A780130303A092A03D804FB01210123CF
:4030C000F5E703B1059103223978224800F0E6F940B14023CBEB000003FA00F0049B013718430490397806221B487E1C8DF8281000F0D4F988B1194B33B9039B073323F01A
:4031000007030833039314E003AB00932A46144B04A94046AFF3008007E003AB00932A460F4B04A9404600F093F8B0F1FF3F824603D0099B5344099342E7AB895B0601D4D7
:40314000099801E04FF0FF301DB0BDE8F08F00BFFC400000024100000641000000000000C92E00002DE9F04791461F460A698B6806469342B8BF1346C9F8003091F8432035
:403180000C46DDF8208012B10133C9F800302368990642BFD9F800300233C9F80030256815F0060510D104F1190A07E00123524639463046C04701301AD00135E368D9F86C
:4031C00000209B1A9D42F1DB94F843302268003318BF012392060FD5E118302081F843005A1C94F845102244023382F8431003E04FF0FF30BDE8F08704F1430239463046BC
:40320000C0470130F4D02268D9F80050E36802F00602042A08BF5D1B2269A3680CBF25EAE57500259342C4BF9B1AED184FF000091A344D4509D00123224639463046C047AB
:403240000130D5D009F10109F3E70020BDE8F0872DE9F04317460A7E85B06E2A984606460C460C9B01F1430E00F0AE8011D8632A22D009D8002A00F0BB80582A40F0CA8045
:4032800081F84520834955E0642A1ED0692A1CD0C0E0732A00F0B08009D86F2A2ED0702A40F0B8800A6842F020020A603EE0752A24D0782A3AD0ADE01A6801F14205111D5A
:4032C0001960136884F84230A8E021681A6811F0800F02D0111D196008E011F0400F02F10401196002D0B2F9003000E01368002B3CDA2D225B4284F8432037E021681A6871
:4033000011F0800F02D0111D196007E011F0400F02F10401196001D0138800E01368227E5C496F2A14BF0A2208221BE078225A4984F845202268186812F0800F00F1040560
:403340001D6003D1550601D5038800E00368D00744BF42F0200222601BB9226822F0200222601022002084F8430001E049490A226568002DA56008DB206820F00400206083
:403380002BB9002D7DD175460CE0002B79D07546B3FBF2F002FB1033CB5C05F8013D03460028F5D1082A0BD12368DA0708D5236962689A42DEBF302305F8013C05F1FF3592
:4033C000C5EB0E0323612EE008681A6810F0800F496903D0101D1860136808E010F0400F02F104001860136801D0198000E0196000232361754616E01A68111D1960156872
:4034000000216268284600F049F808B1401B6060636804E004F1420584F8422001232361002384F84330CDF800803B4603AA21463046FFF797FE013002D14FF0FF3026E058
:4034400023692A4639463046C0470130F5D023689B0710D5002504F1190907E001234A4639463046C0470130E7D00135E368039A9B1A9D42F2DBE068039B9842B8BF18467D
:4034800005E00B7804F1420584F842308AE705B0BDE8F0830D4100001E41000010B5C9B202449042034605D01C7801308C42F8D1184610BD002010BD884210B501EB020325
:4034C00001D8421E0BE09842FBD28118D21AD34204D013F8014D01F8014DF8E710BD994204D011F8014B02F8014FF8E710BD000038B50546002944D051F8043C0C1F002BF9
:40350000B8BFE41800F0D4F81E4A1368114613B96360146030E0A3420DD92268A018834201BF18685B681218226063600C6023E0A24203D813465A68002AF9D118681918DD
:40354000A1420BD12168014458188242196013D110685268014419605A600DE002D90C232B6009E021686018824201BF106852680918216062605C602846BDE8384000F0C6
:4035800098B838BD4489FF1F70B5CD1C25F0030508350C2D38BF0C25002D064601DBA94202D90C23336046E000F082F8234B1C681A462146A1B10B685B1B0ED40B2B03D9BD
:4035C0000B60CC18CD501EE08C420BBF63684B681360636018BF0C4615E00C464968E9E7174C23681BB9304600F052F820602946304600F04DF8431C18D0C41C24F00304D6
:40360000A0420DD12560304600F053F804F10B00231D20F00700C31A0ED05A42E25070BD211A304600F034F80130EBD10C233360304600F03EF8002070BD00BF4489FF1F78
:403640004089FF1FF8B5074615460E4621B91146BDE8F840FFF798BF1AB9FFF749FF2846F8BD00F027F885420ED929463846FFF78BFF044650B131462A46FFF7E5FB314682
:403680003846FFF735FF01E03046F8BD2046F8BD38B5064C0023054608462360FDF744FD431C02D1236803B12B6038BD208AFF1F7047704751F8040C0028BEBF091851F8F9
:4036C000043CC0180438704700000000726563310000000000757365726E616D6531000000000000000000000000000000000000000000000000000070617373776F726450
:403700003100000000000000000000726563320000000000757365726E616D6532000000000000000000000000000000000000000000000000000070617373776F726432B5
:4037400000000000000000000000726563330000000000757365726E616D6533000000000000000000000000000000000000000000000000000070617373776F72643300A3
:40378000000000000000000000726563340000000000757365726E616D6534000000000000000000000000000000000000000000000000000070617373776F726434000060
:4037C0000000000000000000726563350000000000757365726E616D6535000000000000000000000000000000000000000000000000000070617373776F7264350000001D
:4038000000000000000000726563360000000000757365726E616D6536000000000000000000000000000000000000000000000000000070617373776F72643600000000D9
:40384000000000000000726563370000000000757365726E616D6537000000000000000000000000000000000000000000000000000070617373776F726437000000000096
:403880000000000000726563380000000000757365726E616D6538000000000000000000000000000000000000000000000000000070617373776F72643800000000000053
:4038C00000000000726563390000000000757365726E616D6539000000000000000000000000000000000000000000000000000070617373776F7264390000000000000010
:40390000000000726563313000000000757365726E616D6531300000000000000000000000000000000000000000000000000070617373776F726431300000000000000057
:403940000000726563313100000000757365726E616D6531310000000000000000000000000000000000000000000000000070617373776F72643131000000000000000014
:4039800000726563313200000000757365726E616D6531320000000000000000000000000000000000000000000000000070617373776F72643132000000000000000000D1
:4039C000696E697469616C697A696E67206B6579626F6172642E2E2E000000006D75737420626520636F6E6E656374656420746F206D6963726F2D75736220706F72742085
:403A0000666F72206B6200007075736820746F20676F206261636B00747970696E672E2E2E000000646F6E65210000006661696C65642C206E6F7420636F6E6E656374658B
:403A4000640000006C69737420656E6400000000434F4D20506F7274204F70656E0000004C4F47494E000000256400000021007F2200070000AED580A83FD300408D1420F0
:403A800000A1C8DA1281CFD9F1DB40A4A6AF000000000000003E5B4F5B3E3E6B4F6B3E1C3E7C3E1C183C7E3C181C577D571C1C5E7F5E1C00183C1800FFE7C3E7FF001824FE
:403AC0001800FFE7DBE7FF30483A060E2629792926407F050507407F05253F5A3CE73C5A7F3E1C1C08081C1C3E7F14227F22145F5F005F5F06097F017F006689956A606002
:403B000060606094A2FFA29408047E040810207E201008082A1C08081C2A08081E101010100C1E0C1E0C30383E3830060E3E0E06000000000000005F000000070007001417
:403B40007F147F14242A7F2A12231308646236495620500008070300001C2241000041221C002A1C7F1C2A08083E080800807030000808080808000060600020100804020E
:403B80003E5149453E00427F400072494949462141494D331814127F1027454545393C4A49493141211109073649494936464949291E0000140000004034000000081422F7
:403BC000411414141414004122140802015909063E415D594E7C1211127C7F494949363E414141227F4141413E7F494949417F090909013E414151737F0808087F00417FC3
:403C000041002040413F017F081422417F404040407F021C027F7F0408107F3E4141413E7F090909063E4151215E7F09192946264949493203017F01033F4040403F1F2038
:403C400040201F3F4038403F631408146303047804036159494D43007F4141410204081020004141417F04020102044040404040000307080020545478407F284444383840
:403C800044444428384444287F385454541800087E090218A4A49C787F0804047800447D40002040403D007F1028440000417F40007C047804787C080404783844444438C4
:403CC000FC1824241818242418FC7C08040408485454542404043F44243C4040207C1C2040201C3C4030403C44281028444C9090907C4464544C4400083641000000770017
:403D000000004136080002010204023C2623263C1EA1A161123A4040207A385454555921555579412254547842215554784020545579400C1E5272123955555559395454DE
:403D4000545939555454580000457C410002457D420001457C407D1211127DF0282528F07C545545002054547C547C0A097F4932494949323A4444443A324A4848303A41EB
:403D800041217A3A42402078009DA0A07D3D4242423D3D4040403D3C24FF2424487E4943662B2FFC2F2BFF0929F620C0887E090320545479410000447D413048484A3238DF
:403DC0004040227A007A0A0A727D0D19317D2629292F28262929292630484D4020380808080808080808382F10C8ACBA2F102834FA00007B000008142A142222142A140876
:403E0000AA005500AAAA55AA55AA000000FF00101010FF00141414FF001010FF00FF1010F010F0141414FC001414F700FF0000FF00FF1414F404FC141417101F10101F106D
:403E40001F1414141F00101010F0000000001F101010101F10101010F010000000FF101010101010101010FF10000000FF140000FF00FF00001F10170000FC04F4141417C2
:403E800010171414F404F40000FF00F714141414141414F700F7141414171410101F101F141414F4141010F010F000001F101F0000001F14000000FC140000F010F010108D
:403EC000FF10FF141414FF141010101F00000000F010FFFFFFFFFFF0F0F0F0F0FFFFFF0000000000FFFF0F0F0F0F0F3844443844FC4A4A4A347E02020606027E027E0263E8
:403F0000554941633844443C04407E201E2006027E020299A5E7A5991C2A492A1C4C7201724C304A4D4D303048784830BC625A463D3E494949007E0101017E2A2A2A2A2A53
:403F400044445F444440514A444040444A51400000FF0103E080FF000008086B6B083612362436060F090F06000018180000001010003040FF0101001F01011E00191D176C
:403F800012003C3C3C3C000000000000C8490040190040510040300000000140001000140140000800400140000A004C01400002005001402000000060520040D00D004804
:403FC0000600000001000000CC3F000001000000E8400000000000000000000001000000E43F000001000000C44000000100000008400000010000001040000000000000C3
:40400000044000000300000000008103080003000100000018400000000000004C40000000000000000000000000000040400000010000005840000001000000D640000095
:40404000020000001C8AFF1F0C8AFF1F09000000108AFF1F088AFF1F3F0005010906A101050719E029E715002501750195088102950175088101950575010508190129057F
:40408000B10295017503B10195067508150025650507190029658100C00000000403090406036D0065000A036B0065006500620012036B006500790062006F00610072004D
:4040C00064000000090222000101038032090400000103000003092111010001223F000705810308000A00001201000200000008B40451800000010200014300232D302B8C
:404100002000686C4C00656667454647003031323334353637383941424344454600303132333435363738396162636465660000F8B500BFF8BC08BC9E4670474D0000006B
:40414000A5110000F8B500BFF8BC08BC9E4670472900000068410000C880FF1FF00700007001000000000000000000002C000000000000001E0000000100000034000000EB
:4041800001000000200000000100000021000000010000002200000001000000240000000100000034000000000000002600000001000000270000000100000025000000CB
:4041C000010000002E0000000100000036000000000000002D000000000000003700000000000000380000000000000027000000000000001E000000000000001F00000059
:404200000000000020000000000000002100000000000000220000000000000023000000000000002400000000000000250000000000000026000000000000003300000056
:4042400001000000330000000000000036000000010000002E00000000000000370000000100000038000000010000001F000000010000000400000001000000050000000A
:404280000100000006000000010000000700000001000000080000000100000009000000010000000A000000010000000B000000010000000C000000010000000D000000AA
:4042C000010000000E000000010000000F0000000100000010000000010000001100000001000000120000000100000013000000010000001400000001000000150000002A
:404300000100000016000000010000001700000001000000180000000100000019000000010000001A000000010000001B000000010000001C000000010000001D000000A9
:40434000010000002F000000000000003100000000000000300000000000000023000000010000002D0000000100000035000000000000000400000000000000050000001C
:404380000000000006000000000000000700000000000000080000000000000009000000000000000A000000000000000B000000000000000C000000000000000D000000B1
:4043C000000000000E000000000000000F00000000000000100000000000000011000000000000001200000000000000130000000000000014000000000000001500000031
:404400000000000016000000000000001700000000000000180000000000000019000000000000001A000000000000001B000000000000001C000000000000001D000000B0
:40444000000000002F000000010000003100000001000000300000000100000035000000010000002A000000000000000500000014000000140000007479706520757365ED
:40448000726E616D6500000000000000747970652070617373776F726400000000000000766965772063726564656E7469616C73000000007669657720544F545020636F17
:4044C00064650000000000003C2D20676F206261636B00000000000000000000400000000000000000000000000000000000000000000000000000000000000000000000A3
:40450000000000000000000000000000000000000000000000000000000000000000000000000000000000000000000000000000000000000000000000000000000000007B
:40454000000000000000000000000000000000000000000000000000000000000000000000000000000000000000000000000000000000000000000000000000000000003B
:4045800000000000000000000000000000000000000000000000000000000000000000000000000000000000000000000000000000000000000000000000000000000000FB
:4045C00000000000000000000000000000000000000000000000000000000000000000000000000000000000000000000000000000000000000000000000000000000000BB
:40460000000000000000000000000000000000000000000000000000000000000000000000000000000000000000000000000000000000000000000000000000000000007A
:40464000000000000000000000000000000000000000000000000000000000000000000000000000000000000000000000000000000000000000000000000000000000003A
:4046800000000000000000000000000000000000000000000000000000000000000000000000000000000000000000000000000000000000000000000000000000000000FA
:4046C00000000000000000000000000000000000000000000000000000000000000000000000000000000000000000000000000000000000000000000000000000000000BA
:404700000000000000000000000000000000000000000000000000000000000000000000000000000000000000000000000000000000000000000000000000000000000079
:404740000000000000000000000000000000000000000000000000000000000000000000000000000000000000000000000000000000000000000000000000000000000039
:4047800000000000000000000000000000000000000000000000000000000000000000000000000000000000000000000000000000000000000000000000000000000000F9
:4047C00000000000000000000000000000000000000000000000000000000000000000000000000000000000000000000000000000000000000000000000000000000000B9
:404800000000000000000000000000000000000000000000000000000000000000000000000000000000000000000000000000000000000000000000000000000000000078
:404840000000000000000000000000000000000000000000000000000000000000000000000000000000000000000000000000000000000000000000000000000000000038
:4048800000000000000000000000000000000000000000000000000000000000000000000000000000000000000000000000000000000000000000000000000000000000F8
:4048C0000000000000000000000000000000000000000000000000000000000000000000288AFF1F0000E02EC05D00001800000000366E0100000000000000000000000000
:404900000000000000000000000000000000000000000000FA400000000000000000000000000000000000000000000000000000000000000000000000000000000000003D
:4049400000000000000000000000000000000000000000005488FF1F000000000000000000000000000000000000000000000000000000000000000000000000000000003D
:4049800000000000000000000000000000000000000000000000000000000000000000000000000000000000000000000000000000000000000000000000000000000000F7
:4049C00000000000000000000000000000000000000000000000000000000000000000000000000000000000000000000000000000000000000000000000000000000000B7
:404A00000000000000000000000000000000000000000000000000000000000000000000000000000000000000000000000000000000000000000000000000000000000076
:404A40000000000000000000000000000000000000000000000000000000000000000000000000000000000000000000000000000000000000000000000000000000000036
:020000040003F7
:0200000480007A
:40000000014500400452004007640040016500404A0001402D0101404C0201405203014062040140530501404A0601405C0701404408014048090140600A01403B0B01406E
:40004000020D01405D140140481501405B1601404F17014045180140501901404D1A0140561B0140064001400C4101400C4201400943014003450140024601400547014015
:40008000054801401A490140084C01400A4D014009500140035101407E0218C019401CC07C40240F25043408840F8738880F89728B6F01060506060408080C10100812037E
:4000C000130814081601170219041A011D01210922022508260828082C082E0130073108341835063701382039A03A023E103F10580459045C115F01800F83028401850426
:4001000087E0880189928B608C108D408E0B8F1D920B93FF950D9614980299019A099C089E029F08A01FA1E2A403A501A95DAA01ABA2AC03AD3DAFC2B41FB5FFBF10D80415
:40014000D904DC01DF010024030205280680070209200A900B200C020E100F0A11D91308150117981AC01B211F10211022022381240428102B802D492E102F8030A0310452
:4001800032023520378A380839023C203E423F0879107B04C0F7C2FEC4FFCAF3CCFFCEF3007F014D0392042205A50605074A080109CC0B130C400D1A0E070F601003110225
:4001C000141016071702183A19FF1A041C081E071F012005227823B5240125A92754280129042C032F0435FF367F3E403F1052F654205604580459045B045D105F018D01B8
:400200009B01A301A801B501B601BF10C002C704C9FFCA07CBFFCC40CD20CEF0CF05D008D280D804D904DA04DB04DC01DD02DF01E040E1A8E240E320040605200702088054
:400240000A010E040F92108011201302140116A0171018021F802008270429012C802DA02E042F103210342135083602374038803C243D803E803F1A411049044A044B1022
:4002800053085C805D015F286402660167086D206F10710175A8762277407C027D02802182018A128D44912092809321940A95029C109D2C9E829F12A202A321A4B0A564B7
:4002C000A706A801AB80AC12C0F0C2F0C4F2CAF1CCF4CEF8D004D6F0D8B0E4100008040206010C010E020F0210011202130118011A062C083004310234033501360838809D
:400300003A203E4040524525480349FF4AFF4BFF4C424DA04E705008511054015604580459045A045B045D215F016148624063486480654866806748801F81018501862065
:40034000880189018C1C8E028F01900A910192109418960698129A089C019D019E1EA004A302A406A802AA18AC02B220B41FB703B820C032C404C60BC70DC814C9FFCA7FB9
:40038000CBFFCC42CDA0CE70D00CD804D904DA04DC11DD01DF01E109E240E309E430E50900840102040205100620070209200A400E080F51114015201652180419401A402B
:4003C0001D101E20208021202201254027022F8032013440360239803C203D803E023F08432044104518470149424A204C014E0255045648588059256380811089018F4011
:40040000900291809280932194889503962197089A129B049C109F28A004A204A3A8A4B0A545A706AC80AD20B504B740C0FDC2FAC4F1CA80CC91CEF8D0E4D208D60FD8017B
:40044000E640EA02EE020501060107020B030D100F201108160117031A031B031C011D011F062102230125102601272029012B042D08310732013538360239203B023E04C5
:400480003F10580459045C115F0181108301840F87088A088B148D408E088F20917F9204951096029702990F9D049E019F08A00FA140A60FA780AA0FAB18AF80B00FB33F1A
:4004C000B580B740B988BE01BF10D418D604D804D904DB04DC10DD20DF0100A0012803200508080409400A800B710D800E240F201090110812181302152016341A401D802A
:400500001F4420042208230225102740282029222B012D402E502F50308432223410350A374039503A043B013D803E843F2058415A8060046280638079207B048020834026
:40054000860288408910900292809322940895639601975899029A089B049C409D059E209F29A004A140A232A308A4B0A519A706A8C0AA10AD20B424B701C027C2EDC42E75
:40058000CAFFCCFFCE7FD601D80DE002E60CEA01EE870008010104080516070808010A020B010D0E1510170219011C011E0220022201240125182602270429182B022E04BF
:4005C0002F1E3003320833013404351E38083A023F04540F580459045B045F01813C8301851889088D0490019304952796019718993C9B029D3FA201A801AB03AD10B20106
:40060000B320B51FB808BB20BF04D602D712D804D904DB04DC22DD20DF0102200320051006A00AA00E02110112081441170819081C201D181F022214241026202704294030
:400640002B042F26325934083710382839033B803C243D803F025A085C905F0569747014714078407B02830184018701918092809308940498089B089D149F04A144A20134
:40068000A311A402A632A70AA908AB61AC02B401B504B620B701C070C28CC4BACA7CCC6FCEFFD6F2EA40EC50EE80000101730202040705FD07020801099E0A020B6012083A
:4006C000130F19CF1A041B302207240429302BC92C072D942F60300F31FF3B803F01400549FF4AFF4BFF4C024D0C4EF8580459045A0A5C205D095F01624863A168F06AF030
:400700006CF06EF0806783208440850A860F886C8A018B208D209320944B952096249A209B019D06A048A201A50CA610A82CA90CAA42AF10B120B20FB310B468B501B610A9
:40074000B70EB980BF01C005C9FFCAFFCBFFCC03CD0CCEF4D804D904DA09DD09DF01E248E3A1E8F0EAF0ECF0EEF000140240040206200704081009020C400D040E080F0281
:400780001040118815201640170819011B011C101E0A1F2421422240240225482680274828082A602B022C102F05301031013220340235143682381639283C043F61480241
:4007C0004C027A107F088B40A310C07EC26AC47DCA7CCCF5CEF7D218DE22E020EA02EE028F10E010010E0330054607A909330B0C11FF18041A091C02200221402313240274
:4008000027012804292A2A082B542D802F56300C320233FF340138083E04406341014532464C470E481F49FF4AFF4BFF4DA04F015018580459045A045C115F016040628045
:4008400064406540668068406A806C406D206E8080088240830384088501861087068A018B038C048D028F099303942A98089A709C2A9D019F04A02AA103A422A503A6082C
:40088000A822AA08AB03B207B307B478B708B808BA20BB08BE04D804D904DC11DF01040205450608074209100B020E040F1110A01208145415381A101B221D2C1E0420207B
:4008C000210425042721284429402A082C502D103101374239083B113D083F91421248A45398813083C087108A888CA08F08900291209313984099209A0A9B029C109F6163
:40090000A004A208A410A528A680A722AD80AF40B001B121B204C0F0C2E3C47ECAEFCC91CEF7D00AD204E407E680E820EA0D008C040205240684070A0802092E0A040D265A
:400940000E010F08128414C01502171C1882192C1A081B021D021E401F102010220A26202701280A2A142CDE2D2E303E312033013401351E36C039023B203F015804590434
:400980005C115F018503870488108F05900991039210930C9420990A9A039B049C0C9D039E119F04A41CA602A814AC10AE0CAF08B10FB220B41FBB02BE04C051C104C5E0E0
:4009C000C6ECC70BC81EC9FFCAFFCBFFCEF0CF44D00CD804D904DA04DC22DD02DF01E6C0EA40EB02012003080688071108800A080BA00D080E090F40102812021520174604
:400A000019041A081C801E05210122022505270829802E802F2030A0320234103758380839803F58408041C049014A064B1050C853108180842089018C8490029120935373
:400A400094889503960598409A8A9B069C019D059F29A004A208A30CA470A50DA680A722AA12AF01B040B110B440C0F2C2FFC4F7CA58CC7DCE7AD009D208E202E402E60973
:400A8000EE080505060C070A0D070E021004150F1601190C1B031E012103230C260227202801290A2B052F1030083110320233203404350F36013E54580459045F018402CD
:400AC000850C880889048A308C108D3F8E089002910F933094049533970C992C9A029B139C209D029E08A101A439A503A839AB33AC01AD08B006B11CB201B30FB438B52C7B
:400B0000B802BB0AD804D904DC22DF0101A8020106200701080209800A040B100D080E400F0211541714181019221B261E6A1F082121220A24042510275829402A012B2485
:400B40002C502E802F043180321A36203708382839803D884F30590C78807A0181108311860488028D04902891F4922093089404950296029783984099409C809D049EA070
:400B80009F10A14CA220A311A402A618A70CAD08B140B304B602C0A7C2BFC467CAFFCC6FCE5EE020E210E402E608EC10050C090C0D30133015301A011B301D281F06260110
:400BC000273029302B012D142F4A3140320133303503370C3E043F10406341014204440245EC480349FF4AFF4BFF4C624DA04EF04F41500C580459045A045C205D025F016D
:400C00006640670269106A306B106D106E106F128101821C8401860E8B028F049603981C99049A039D029E08AC01AE16B104B21AB301B40FB702BA28BF45D40FD804D904D2
:400C4000DB04DC02DF05050609200E060F201020140219081D041E042004218022012320244025082702282029A03180321A375039A43D203E123F40403441404240482050
:400C80004A084B025C405E185F02640866086C026F057D808008812882418410874089888B408D108EA8901091A4922096069782980299229A029B509C109D849EA09F2584
:400CC000A160A20EA310A402A580AF02B202B320C030C2E2C484CA0ECC3FCEBED00FD204D6F0D860DE10E011E280E450E8A0EA05EE203311358036083B20CCF0CE10091050
:400D00000C20308083108D1097209D809F11A608C2C0CC10E2203E1082028C809D80A020A480A608AF11CE20E620EA40EE408208842096109A02A020A608B180E040E2204B
:400D400002100308C00AAE10AF080B109710B310C208EE01850996109A02E440E61009200D40130215025E01660275087B0281608A01950299089A029F02A302AA10AB029F
:400D8000B302C2C0C430D680D880DC80DE20E0A0EAA01328144078107F0884408708C40EDE031080710281028880AB28B010C408DC01E601E8040007010108070A070C057B
:400DC0000D0110071A071C0500FB010F03C000000280000040000000C00000C000000000000000008300408380008300000000004000000000000000C0000000000B0B001D
:400E000000000000010004030200000000000000C00000C00000C0000000000000000000000000000000000000000000000000000000000000000000000000000000000068
:400E40000000000000000000000000000000000000000000000000000000000000000000000000000000000000000000000000000000000000000000000000000000000072
:400E80000000000000000000000000000000000000000000000000000000000000000000000000000000000000000000000000000000000000000000000000000000000032
:400EC00000000000000000000000000000000000000000000000000000000000000000000000000000000000000000000000000000000000000000000000000000000000F2
:400F000000000000000000000000000000000000000000000000000000000000000000000000000000000000000000000000000000000000000000000000000000000000B1
:0200000490006A
:0400000000004005B7
:0200000490105A
:04000000BC90ACAF55
:0200000490303A
:0200000098095D
:0200000490402A
:4000000000000000000000000000000000000000000000000000000000000000000000000000000000000000000000000000000000000000000000000000000000000000C0
:400040000000000000000000000000000000000000000000000000000000000000000000000000000000000000000000000000000000000000000000000000000000000080
:400080000000000000000000000000000000000000000000000000000000000000000000000000000000000000000000000000000000000000000000000000000000000040
:4000C0000000000000000000000000000000000000000000000000000000000000000000000000000000000000000000000000000000000000000000000000000000000000
:0200000490501A
:0C00000000012E16106900012E31A872BC
:00000001FF